:100000000C9421070C943E070C943E070C94631546
:100010000C943E070C943E070C943E070C943E074C
:100020000C943E070C94DD090C943E070C94E207F7
:100030000C943E070C9440070C9452070C943E0716
:100040000C943E070C943E070C943E070C943E071C
:100050000C943E070C94B2140C943E070C943E078B
:100060000C94A51E0C943E07FA3E1A7ADE8EF62EEC
:100070006078AE1CAA2A3ACEF30AB61E3838B86E9B
:1000800076DA6800FC60DAF266B6BEE0FEE684006E
:10009000000080E0F0F8FCFE3E0F07070707070F9F
:1000A0003EFEFCF8F0E0800000F0FEFFFFFFFFFFE7
:1000B000FF000000000000000000FFFFFFFFFFFF47
:1000C000FEF07FFFFFFFFFFFFFFF000000000000CA
:1000D000000000FFFFFFFFFFFFFF7F00030F3F7FD8
:1000E000FFFFFFF8C0800000000080E0FFFFFF7FFF
:1000F0003F0F030000000000000001010303070799
:1001000007070703030301000000000000000000D0
:10011000383838383878F8FCFCFCFEFFFFFF000068
:10012000000000000000000000000000000000FFD0
:10013000FFFFFFFFFFFFFF000000000000000000C6
:100140000000000000000000FFFFFFFFFFFFFFFFB7
:10015000000000000000000000000080808080801F
:1001600080FFFFFFFFFFFFFFFF8080808080000097
:10017000000000000303030303030303030303035B
:10018000030303030303030300000000C0E0F8F8C7
:10019000FC9E8E0607070707070F3FFEFEFEFCFCCE
:1001A000F8E0C000001F3F7F7F7F7F7F3F0C000093
:1001B0000000C0F0FFFFFFFFFFFF3F0F0000000047
:1001C0000000000080C0E0F8FC7E3F3F1F0F0F07DB
:1001D0000301C0E0E00080C0F0F8FCFEFFFFFBF987
:1001E000F8F8F8F8F8F8F8F8F8F8FCFFFF1F000343
:1001F00003030303030303030303030303030303CF
:10020000030303030303000000E0F8FCFCFEFECF41
:1002100087070707070F3FFFFEFEFCFCF8F0C00052
:100220000000070F0F0F0F8F878380808080C0F042
:10023000FFFFFF7F7F3F1F07000080C0C0C0C0C01E
:1002400081030303030303071FFFFEFEFEFCFCF80C
:10025000E0000E3FFFFFFFFFFF9F07000000008050
:10026000C0F0FFFFFFFFFF7F3F0F00000000000115
:100270000303030707070707070703030303010037
:10028000000000000000000000000000000000006E
:10029000C0E0F0F8FCFFFFFFFF00000000000000DE
:1002A000000080C0E0F83C1E0F07FFFFFFFFFFFFCC
:1002B000FFFF00000000E0F0F8FEDFCFC3C1C0C0C8
:1002C000C0C0C0FFFFFFFFFFFFFFFFC0C0C0C001F5
:1002D000010101010101010181818181FFFFFFFF16
:1002E000FFFFFFFF8181818100000000000000000E
:1002F00003030303030303030303030303030303CE
:1003000003000000C0FFFEFEFEFEFEFEFEFEFEFE3F
:10031000FE7E7E7E3E1E0F020000000000FFFFFFFB
:10032000E0E06070707070F0F0F0E0E0E0C080003D
:100330000000000082C7CFC7C1C0800000000000DD
:10034000000107FFFFFFFFFFFFFEF8001F7FFFFF19
:10035000FFFF9F9F0F0000008080C0F8FFFFFFFF9E
:100360007F3F1F030000000001010303030707078D
:100370000707070703030301000000000000000057
:1003800000C0E0F0F8FCFC7E1E0F07070707E7FF40
:10039000FFFEFEFCF8F000C0FCFFFFFFFFFFFF07C1
:1003A0008080C0C0C0C0C0C3C7C7C78707030100E3
:1003B000FFFFFFFFFFFFFFFF0F0303010101010329
:1003C0000FFFFFFFFFFFFEFCF0010F1F7FFFFFFF8E
:1003D000FFF0C08000000080C0F0FFFFFFFFFF3F84
:1003E0001F070000000000010103030307070707C0
:1003F00007070303030100000000000000F8FEFEF1
:10040000FEFEFEFEFEFEFEFEFEFEFEFEFEFEFEFE0C
:10041000FEFE3E0E00707F7F0F0100000000000016
:1004200000000080E0F0FC7F1F03000000000000DF
:100430000000000000000080E0F8FCFFFFFF7F03E9
:100440000000000000000000000000000000F8FEB6
:10045000FFFFFFFFFFFFFF000000000000000000A3
:100460000000000000000001030707070707030161
:1004700000000000000000000080E0F0F8FCFE1E1C
:100480000E0F07070707070F0F3EFEFEFCF8F0E010
:1004900000003FFFFFFFFFFFFEF8F0F0F0E0E0E0BC
:1004A000E0F0F8FFBF9F1F0F030080C0E0F1F3FBF7
:1004B0007F3F1F0F1F1F1F1F3F3F7F7FFFFFFFFF5C
:1004C000FEFCF01F7FFFFFFFFFE0C0808000000008
:1004D00000008080C0E0FFFFFF7F1F0700000001D9
:1004E00001030303070707070707070303030301C4
:1004F000000000000000C0F0F8FCFCFEFE3E0F070C
:10050000070707070F7EFEFCFCF8F0E080007FFF86
:10051000FFFFFFFFFFFFC000000000000000C0FF62
:10052000FFFFFFFFFFFFFC000103078F8F1F1F1F4F
:100530001F1F1E1E0E0E0703FFFFFFFFFFFFFF1F03
:10054000007CFEFFFFFFFFFF3E0000000080C0E0D8
:10055000FCFFFF7F3F1F07000000000001030303B3
:100560000707070707070303030101000000000056
:1005700000004040C0C0C0404000004040C0C0C07B
:100580004040000000008080C04040C080800000EB
:100590000000004040C0C0C0C0C0C0C0C0C0C0401B
:1005A000400000FFFFFF101010101010FFFFFF00B1
:1005B000000000FCFFFF1110101010111F1F9C0005
:1005C00000000000FFFF0000000000FFFFFF000030
:1005D00004040707070404000004040707070404D1
:1005E00000000001030306060606060201000000E3
:1005F0003C0C07070404040404060707070C3C40EE
:1006000040C0C0C04040404040C0C0C0404000006A
:1006100000008080C04040C080800000000040405A
:10062000C0C0C0404000004040C0C0C040400000CA
:10063000FFFFFF0000000000FFFFFF000000007C44
:10064000FFFF010000000001FFFF7C00000000FF31
:10065000FFFF101010101010FFFFFF000004040730
:10066000070704040004040707070404000000014E
:100670000303060404060303010000000404070743
:1006800007040400000404070707040440C0C0C0B6
:10069000C0404040C0C0808000000000C0C040405A
:1006A00040C0C0C0404040C0C0000000000080808A
:1006B000C04040C0808000000000000000FFFFFF3D
:1006C000101010183FEFE7C0000000070000000006
:1006D000FFFFFF00000000070000007CFFFF01009B
:1006E00000000001FFFF7C0000000404070707046E
:1006F00004040606030301000000000000040407D0
:1007000007070404000000000000000103030604C2
:1007100004060303010000000000008080C0404088
:1007200040C080000000004040C0C0C080C0C0C0C9
:10073000C0C080000000000000008080C0C04040B9
:100740004040C0C0C04040007CFFFF81000000026C
:100750000707830000000000FFFFFF01000000000A
:1007600081FFFF7C00000000070F1FD8F0F0101081
:1007700010FFFFFF00000000010307060606060247
:1007800003000000008080FFFFFF8386060606034B
:100790000301000000000306040607070104060623
:1007A0000707070604004040C0C0C040400040406A
:1007B000C0C0C04040000000008080C04040C080F9
:1007C000800000000000C0C0404040C0C0C04040A9
:1007D00040C0C0000000001F3F7F6040404060FFFD
:1007E000FFFF00000000FCFFFF1110101010111F90
:1007F0001F9C0000000700000000FFFFFF0000003A
:1008000000070000000000000000000004040707CB
:1008100007040400000001030306060606060201A1
:1008200000000000000000040407070704040000A3
:100830000000004040C0C0C04040404040C0C0C078
:100840004040000000008080C04040C08080000028
:10085000000000C0C0404040C0C0C0404040C0C0D8
:1008600000000000FFFFFF0000000000FFFFFF008E
:10087000000000FCFFFF1110101010111F1F9C0042
:1008800000000700000000FFFFFF0000000007005D
:10089000000404070707040400040407070704040E
:1008A0000000000103030606060606020100000020
:1008B0000000000004040707070404000000000013
:1008C00000008080C0404040C08000000000C0C0E8
:1008D000404040C0C0C0C040000000000000000018
:1008E00000C0F89C86C74747C78787030100007C84
:1008F000FFFF8100000002070783000000070000DF
:100900000000FFFFFF101010101030F0E0C00000DA
:100910007FFFFF010000000001FFFF7C00000001DD
:10092000030706060606020300000000000000049C
:10093000040707070404040406060303010000007B
:1009400001030306040406030301000000C0F0FCD9
:100950000E02010101030EFCF8C0001FFFFF800022
:100960000000000080FFFF1F0000000103060404D8
:1009700004060301000000000004040606FEFFFF59
:100980000000000000000000000000FFFFFF00006A
:100990000000000000040404060707070404040420
:1009A0000078FCF6E2010101010386FEFC780000FC
:1009B0000080C06030180C0E070381E000040607B9
:1009C0000707070707070707070700001C3E3E3316
:1009D00001010183FEFE3C000000E0F0F001010196
:1009E0000103FEFCF80000000003030604040607F0
:1009F00003010000000000000080C07018FCFFFF31
:100A000000000020302C2623202020FFFFFF202084
:100A1000200000000000040404070707060400008B
:100A200000F0FF87878787878703010000C0E2F314
:100A3000E1000000000103FFFE780000010306064C
:100A400004040406030301000080F0F81C060203FE
:100A50000101011F1E08003FFFFF86020101010185
:100A600003FEFE78000000010306040404060303ED
:100A7000010000003F0F070707070787E73F0F0345
:100A8000000000000000E0F8FE0700000000000089
:100A9000000000000707070000000000000078FCCD
:100AA000FEC38381010383FE7E3C00E0F8FC0D075A
:100AB00003030707070EFEFC780001030706040482
:100AC00004040603030100F0FCFE06030101010318
:100AD0000EFCF8E00001C7C70E0C08080804C6FFAA
:100AE0007F1F000003070404040606030100000042
:100AF000000B3E41414141424242423C0006FFFF61
:100B0000FFFFFFFF000000000000005F0000000783
:100B1000000700147F147F14242A7F2A122313084D
:100B2000646236495522500005030000001C224132
:100B3000000041221C00082A1C2A0808083E080858
:100B4000005030000008080808080060600000201D
:100B5000100804023E5149453E00427F4000426178
:100B60005149462141454B311814127F1027454504
:100B700045393C4A4949300171090503364949491B
:100B800036064949291E0036360000005636000058
:100B900000081422411414141414412214080002F1
:100BA00001510906324979413E7E1111117E7F497A
:100BB0004949363E414141227F4141221C7F4949FA
:100BC00049417F090901013E414151327F0808082E
:100BD0007F00417F41002040413F017F08142241B6
:100BE0007F404040407F0204027F7F0408107F3E28
:100BF0004141413E7F090909063E4151215E7F097D
:100C0000192946464949493101017F01013F4040C8
:100C1000403F1F2040201F7F2018207F63140814AE
:100C2000630304780403615149454300007F414157
:100C3000020408102041417F000004020102044028
:100C400040404040000102040020545454787F4842
:100C50004444383844444420384444487F38545449
:100C60005418087E090102081454543C7F080404F7
:100C70007800447D40002040443D00007F1028441F
:100C800000417F40007C041804787C080404783814
:100C9000444444387C14141408081414187C7C0848
:100CA0000404084854545420043F4440203C40402D
:100CB000207C1C2040201C3C4030403C4428102814
:100CC000440C5050503C4464544C4400083641009D
:100CD00000007F0000004136080008082A1C0808B0
:100CE0001C2A08084932433A204255535F45525264
:100CF0004F520D0A004932433A204E4F5F494E464B
:100D00004F0D0A004932433A2053542D3E4441547A
:100D1000415F4E41434B206F72204C4153545F441E
:100D20004154410D0A004932433A2053542D3E4468
:100D30004154415F41434B0D0A004932433A20532D
:100D4000542D3E534C415F41434B0D0A0049324301
:100D50003A2053522D3E53525F53544F500D0A00C8
:100D60004932433A2053522D3E444154415F4E4153
:100D7000434B0D0A004932433A2053522D3E444121
:100D800054415F41434B0D0A004932433A205352CC
:100D90002D3E534C415F41434B0D0A004932433ACB
:100DA000204D522D3E534C415F41434B0D0A0049AB
:100DB00032433A204D522D3E444154415F41434B12
:100DC0000D0A004932433A204D542D3E4152425FB4
:100DD0004C4F53540D0A004932433A204D54522D82
:100DE0003E534C415F4E41434B206F72204D542D7A
:100DF0003E444154415F4E41434B0D0A004932434A
:100E00003A204D522D3E444154415F4E41434B0DDB
:100E10000A004932433A204D542D3E534C415F4124
:100E2000434B206F7220444154415F41434B0D0AB4
:100E3000004932433A204D2D3E53544152540D0A3D
:100E4000000011241FBECFEFD8E0DEBFCDBF13E0FE
:100E5000A0E0B1E0EAEAF1E402C005900D92AE35FF
:100E6000B107D9F713E0AEE5B3E001C01D92A93D8B
:100E7000B107E1F70E94D20B0C94D3200C94000030
:100E80001F920F920FB60F9211248F939F9388B1E8
:100E900098E0892788B99F918F910F900FBE0F908E
:100EA0001F9018951F920F920FB60F9211248F93D7
:100EB0009F938091660390916703009749F080911A
:100EC000660390916703019790936703809366038D
:100ED0008091CD039091CE03009749F08091CD038E
:100EE0009091CE0301979093CE038093CD03809190
:100EF000CB03882389F18091640390916503009767
:100F000059F58091C2039091C3030097E1F48CE2FC
:100F100091E09093C3038093C20380918100882362
:100F200079F41092800089E08093810083E08093BF
:100F30006F0088EE93E0909389008093880003C04F
:100F40001092810043988091C2039091C30301974E
:100F50009093C3038093C2039F918F910F900FBE14
:100F60000F901F90189580E090E00E94BD20833C78
:100F700041F181E090E068E00E94C52082E090E0CD
:100F800060E00E94C52083E090E060E10E94C520FF
:100F900084E090E061E00E94C52085E090E060E0A0
:100FA0000E94C52086E090E060E00E94C52087E0B6
:100FB00090E06AE00E94C52080E090E063EC0E942F
:100FC000C52008951F920F920FB60F9211248F9390
:100FD0009F9388B198E0892788B99F918F910F904E
:100FE0000FBE0F901F901895CF93DF931092800043
:100FF000C1E8D0E029E0288323E020936F009C0122
:1010000040E050E060E079E08DE390E00E94A220B3
:1010100030938900209388008FEF90E7A2E0815001
:101020009040A040E1F700C0000018824398DF9193
:10103000CF9108951E9B16C08091C803882311F19B
:101040001092C8031092D1031092650310926403AA
:101050008091CB038823B1F01092CB0310928100D2
:10106000439808958091C803882361F481E08093B8
:10107000C803109265031092640383E080936303B6
:10108000809362030895EF92FF920F931F93F82EBF
:10109000162FE42E21E001E00E94E5180E2D0F0D21
:1010A0008EEFF82EF00E612F61508F2D0E948F1859
:1010B000612F6F5F8F2D0E948F180350612F625038
:1010C000802F0E948F18612F6E5F802F0E948F18D3
:1010D0001F910F91FF90EF9008951F93DF93CF938F
:1010E0000F92CDB7DEB7162F6AE00E944D20805DCB
:1010F000612F99830E94601B9981892F805D612FE8
:101100000E94601B0F90CF91DF911F910895DF9394
:10111000CF93CDB7DEB729970FB6F894DEBF0FBED9
:10112000CDBF1982F89480ED61E0AE014F5F5F4F53
:101130000E941D1E8823E1F0789480EA9FE00E94BF
:10114000F4078FEF90E7A2E081509040A040E1F7D4
:1011500000C0000080EA9FE00E94F4078FEF99E64C
:10116000A8E181509040A040E1F700C00000E4CF2A
:1011700080ED67E0AE014E5F5F4F0E945D1E789488
:101180008823D9F080EA9FE00E94F4078FEF90E770
:10119000A2E081509040A040E1F700C0000080EA4A
:1011A0009FE00E94F4078FEF99E6A8E181509040FC
:1011B000A040E1F700C00000E5CF8A81282F2695E6
:1011C000269526952E70922F990F990F920F282F02
:1011D0002F70920F9093D0033B81232F2695269555
:1011E00026952E70922F990F990F920F3F70930FA3
:1011F0009093C6039C81292F22952F70492F4F7001
:1012000096FF0FC09295969591703CE0939F902D1C
:1012100011242170220F322F330F330F320F930F0F
:1012200006C02370220F922F990F990F920F940FDF
:101230009093BD033E81232F2695269526952670F3
:10124000922F990F990F920F3F70930F9093C503B0
:101250003F81232F2695269526952270922F990F50
:10126000990F920F3F70930F9093CF033885232FE0
:1012700022952F70220F922F990F990F920F3F7086
:10128000930F9093C003807829960FB6F894DEBF31
:101290000FBECDBFCF91DF9108959C0183709070F8
:1012A000009739F4C90164E670E00E945920009764
:1012B00071F4C90160E971E00E9459209C0181E04C
:1012C00090E02115310529F080E090E0089581E05B
:1012D00090E0089508956AE00E944D208295807FF5
:1012E000892B0895AF92BF92CF92EF920F93DF9325
:1012F000CF93CDB7DEB72B970FB6F894DEBF0FBEF6
:10130000CDBF5E010894A11CB11C98E0D5011D92CF
:101310009A95E9F72B874A8769870E946B098A8328
:101320006985862F0E946B098B834A85842F0E94D2
:101330006B098C832B85822F0E946B098D83802FF4
:101340000E946B098E838E2D0E946B098F838C2DDA
:101350000E946B098887F89480ED68E0A5010E94DF
:101360001D1E78948823D9F080EA9FE00E94F4073C
:101370008FEF90E7A2E081509040A040E1F700C0DD
:10138000000080EA9FE00E94F4078FEF99E6A8E151
:1013900081509040A040E1F700C00000E5CF2B96BF
:1013A0000FB6F894DEBF0FBECDBFCF91DF910F9186
:1013B000EF90CF90BF90AF9008951F920F920FB60D
:1013C0000F921124BF92CF92DF92EF92FF920F9370
:1013D0001F932F933F934F935F936F937F938F93BD
:1013E0009F93AF93BF93EF93FF93A895809168036A
:1013F000803579F410926803D090D0031091C60321
:10140000F090BD030E9487088091BD038F1529F4D9
:1014100095C08F5F809368036EC1BB24B394B09274
:101420006003F092C7031093BE038091C603811737
:1014300009F497C08091D0038D1509F492C0809172
:10144000BD038430F9F48091CF036091C5034091CE
:10145000C0030E949B158823A9F480916A03882306
:1014600079F40091C503E090CF03C090C0038EE2F1
:101470006BE343E020E00E947209B0926A0302C06D
:1014800010926A038091BD03823031F58091CF03C1
:10149000833011F58091C5038830F0F08091C50349
:1014A0008F30D0F48091CF036091C5034091C00389
:1014B0000E949B15882381F48091D0036091C6031C
:1014C0004091BD030091C503E090CF03C090C003DD
:1014D0004F5F20E00E9472098091BD03823009F0C5
:1014E00040C08091CF038B30E1F58091C5038830F7
:1014F000C0F58091CF036091C5034091C0030E9465
:101500009B15882371F580916A038823A1F480914B
:10151000D0036091C6034091BD030091C503E090E4
:10152000CF03C090C003415020E00E94720981E0C7
:1015300080936A0316C010926A0313C08091C60399
:10154000811731F081E080935F031093BE0309C0DF
:101550008091D0038D1529F081E080936103D092B2
:10156000D2038091D0038D1509F43FC08091CB0345
:10157000882359F08091640390916503009729F0C6
:10158000019790936503809364038091620388239D
:1015900061F18091620381508093620380916203C4
:1015A000882319F58091630380937203109263037B
:1015B00080916003882329F08091C7038093BD0345
:1015C00004C080915F03882321F08091BE03809343
:1015D000C60380916003882321F480915F038823F0
:1015E00021F0F092BD031093C6038091CC038430A8
:1015F00061F08091CC03853041F08091CC0388303C
:1016000021F08091CC03863089F580916C0388238A
:1016100069F584E462E00E94221D8091BD0360E0D0
:101620000E94770D8AE360E00E94601B8091C603F0
:1016300060E00E946D088AE360E00E94601B809178
:10164000D00360E00E946D088091BF03882371F48D
:1016500080E260E00E94601B8091BD038C3010F03E
:1016600080E501C081E460E00E94601B8091C803B6
:10167000882399F08091D003882379F49091C60350
:101680008091C103981749F49091BD038091CA03DA
:10169000981719F481E08093D10380915F03882328
:1016A00069F480916003882349F48091D1038823F1
:1016B00029F081E08093CB031092D10380916903DC
:1016C000863039F41092690380917003882329F4DD
:1016D00009C08F5F809369030EC0809170038150B1
:1016E0008093700380916B03882329F080916B03B2
:1016F000815080936B03FF91EF91BF91AF919F91C8
:101700008F917F916F915F914F913F912F911F9199
:101710000F91FF90EF90DF90CF90BF900F900FBE92
:101720000F901F901895CF92EF920F930E94691D12
:101730000E948708882359F080E060E04CE020E0B8
:1017400001E0EE24E39499E0C92E0E9472090E9400
:10175000870882E090E00E94BD206CE30E944D204B
:101760009093C10381E090E00E94BD2068E10E9457
:101770004D209093CA0387E08093B10081E080936D
:10178000700078940F91EF90CF90089588E592E0E3
:1017900090936503809364031092810043981092A4
:1017A000CC030895BF92CF92DF92EF92FF920F93F6
:1017B0001F93CF93DF9384B714BE88E10FB6F894DC
:1017C00080936000109260000FBE8AE190E00E945A
:1017D000F1163B9A0E94930B0E94B30785E090E0BC
:1017E0000E94BD208093C90386E090E00E94BD2046
:1017F0008093BF030E9487140E941A0882E084BD70
:1018000083E085BD8DE787BD80916E008260809307
:101810006E00539A80E28093B0008091B0008360A4
:101820008093B0008091B10088608093B10080E126
:101830008093B30083E090E00E94BD208093B400C9
:10184000259A80EA9FE00E94F4072FE088E190E06B
:101850000FB6F894A895809360000FBE20936000A7
:101860000E94501D0E942C1D0E94881580E00E943D
:10187000891510E0CBE4D0E062E0B62E03E058E03A
:10188000C52E46E0D42E34E0E32E25E0F22ED09390
:10189000CE03C093CD0380916E03882341F08091E5
:1018A000CB03882321F010926E030E94C60B809117
:1018B0006E03867031F010926E03B0926303009352
:1018C000620380916E0380FF41C010926E031092FC
:1018D0006303109262038091CC03843089F08530D9
:1018E00028F4882341F0833009F511C08530A1F038
:1018F0008830E1F416C0E092CC030E9476131DC03C
:101900000093CC030E947D0E1092000116C0F0924D
:10191000CC030E94BB1111C0C092CC030E942510C1
:101920000CC0D092CC030E94EB1007C01092CC03E5
:101930000E942C1D80E00E9489158091CC03882391
:1019400029F40E942C1D80E00E9489150E949315A5
:101950008091CC03882341F5112369F48091CB0356
:10196000882369F08091D00380FF09C081E00E9444
:10197000891511E019C08091CB03882351F0809123
:10198000CB03882359F0112349F08091D00380FDC7
:1019900005C080E00E94891510E006C02D9A812FB5
:1019A00090E00E94DD152D982091CD033091CE035B
:1019B00021153105C9F76BCF1F93182F88E064E01C
:1019C0000E94221D81E091E060E00E94C41B809192
:1019D000C903882339F48091BF03882319F48AE06E
:1019E00091E020C08091C903882339F48091BF031E
:1019F000813019F487E191E015C08091C9038130ED
:101A000039F48091BF03882319F484E291E00AC07D
:101A10008091C903813049F48091BF03813029F45A
:101A200081E391E0612F0E94C41B1F910895EF9202
:101A3000FF920F931F93182F062FF42EE22E88E0AB
:101A400063E00E94221D8EE391E060E00E94C41BCF
:101A50008091C9038823C1F484E491E060E00E948E
:101A6000C41B61E08E2D8B3009F060E0812F0E9455
:101A70006D088FE260E00E94601B61E08E2D8C306B
:101A800009F060E0802F1BC08091C9038130E9F428
:101A900084E491E060E00E94C41B61E08E2D8C30F4
:101AA00009F060E0802F0E946D088FE260E00E94E4
:101AB000601B61E08E2D8B3009F060E0812F0E9469
:101AC0006D088FE260E00E94601B11E08E2D8D306A
:101AD00009F010E084E1612F0E946D088F2D612FC5
:101AE0000E946D081F910F91FF90EF9008950F9342
:101AF0001F93CF93DF93082F162F8091BF03882366
:101B0000D1F4802F90E047966CE070E00E946D2049
:101B1000EC018930910524F09C012F5F822F14C0C5
:101B200080E260E00E94601B9E012F5C822F612F8B
:101B30000E94601B0CC080E260E00E94601B80E29B
:101B400060E00E94601B802F612F0E946D08DF9172
:101B5000CF911F910F9108950F931F93CF93DF9310
:101B6000082F162F8091BF03882371F584E761E069
:101B70000E94221D0C3010F080E501C081E460E07D
:101B80000E94601B8DE460E00E94601B80E561E0C4
:101B90000E94221D802F90E047966CE070E00E942A
:101BA0006D20EC018930910524F09C012F5F822F7C
:101BB00010C080E260E00E94601B9E012F5C822FBB
:101BC000612F0E94601B08C080E561E00E94221D19
:101BD000802F612F0E946D08DF91CF911F910F918F
:101BE000089580916C038F5F80936C030E942C1D7D
:101BF00080E060E00E94221D8AE491E060E00E94A3
:101C0000C41B88E061E00E94221D8DE591E060E048
:101C10000E94C41B8091CA0360E00E94AC0D8AE35D
:101C200060E00E94601B8091C10360E00E946D082B
:101C300088E062E00E94221D8AE691E060E00E9456
:101C4000C41B8091BD0360E00E94770D8AE360E0D1
:101C50000E94601B8091C60360E00E946D088AE3C9
:101C600060E00E94601B8091D00360E00E946D08DC
:101C70008091BF03882371F480E260E00E94601BC2
:101C80008091BD038C3010F080E501C081E460E0FC
:101C90000E94601B8091CF036091C5034091C003F7
:101CA00025E00E94170D80E090E00E94DC0C88E0A7
:101CB00065E00E94221D85E791E060E00E94C41B60
:101CC0008091B40060E00E946D0880E066E00E94B0
:101CD000221D85E891E060E00E94C41B80E067E07F
:101CE0000E94221D8BE991E060E00E94C41B80915C
:101CF0006C03815080936C0308959F92AF92BF92C2
:101D0000CF92DF92EF92FF920F931F93CF93DF93C7
:101D10001091BD03F090C603D090D0030E94F10D46
:101D200080916C038F5F80936C0380E063E147E0F8
:101D30000E94430880916C03815080936C038AE079
:101D400080936B0303E09AE0992ECCE3D0E088E126
:101D5000A82EB12C80916E0380FD6BC180916E0323
:101D6000882321F480916F03882319F090926B03EC
:101D700007C080916B03882319F41092CC0359C1DA
:101D800080916E0381FFDCC010926E0380916C0322
:101D90008F5F80936C03033081F584E462E00E94DE
:101DA000221D812F61E00E94770D84E762E00E948E
:101DB000221D8091BF03882361F480E260E00E94CD
:101DC000601B1C3010F080E501C081E461E00E94DE
:101DD000601B80E066E00E94221D8CEA91E060E0DA
:101DE0000E94C41B80E067E00E94221D82EC91E00B
:101DF00060E00E94C41B05E69EC00536C1F584E480
:101E000062E00E94221D812F60E00E94770D8AE32C
:101E100060E00E94601B8F2D61E00E946D0880E0F1
:101E200066E00E94221D88ED91E060E00E94C41BE4
:101E300080E067E00E94221D8EEE91E060E00E944B
:101E4000C41B84E762E00E94221D8091BF038823A7
:101E500009F070C080E260E00E94601B1C3010F04E
:101E600080E501C081E460E00E94601B63C006362B
:101E700051F58091BF03882311F486E501C082E605
:101E800062E00E94221D8F2D60E00E946D088AE3AF
:101E900060E00E94601B8D2D61E00E946D0880E073
:101EA00066E00E94221D84E092E060E00E94C41B74
:101EB00080E067E00E94221D8AE192E060E00E94DB
:101EC000C41B07E638C08091BF03882311F488E65D
:101ED00001C084E762E00E94221D8D2D60E00E9417
:101EE0006D0880E066E00E94221D85E891E060E0D8
:101EF0000E94C41B80E067E00E94221D8BE991E0F4
:101F000060E00E94C41B1093BD03F092C603D09200
:101F1000D0038091D0036091C6034091BD0300912E
:101F2000C503E090CF03C090C00320E00E94720977
:101F300003E001C006E680916C03815080936C033E
:101F400080916E0382FD04C080916F0382FF02CFF7
:101F500010926E0380916C038F5F80936C03053643
:101F600049F5812F90E00196B5010E946D20E82E81
:101F7000182F8093BD0384E462E00E94221D8E2D01
:101F800061E00E94770D84E762E00E94221D80914B
:101F9000BF038823D9F580E260E00E94601B809136
:101FA000BD038C3010F080E501C081E461E00E9447
:101FB000601B2CC0063699F48F2D90E00196BE016F
:101FC0000E946D20F82E8091BF03882311F486E5CE
:101FD00001C082E662E00E94221D8F2D14C00736E8
:101FE000A9F48D2D90E00196BE010E946D20D82E9F
:101FF0008091BF03882311F488E601C084E762E082
:102000000E94221D8D2D61E00E946D0880916C035D
:10201000815080936C0380916F0382FF9BCE8FEF82
:1020200091EEA4E081509040A040E1F700C0000094
:1020300091CEDF91CF911F910F91FF90EF90DF90A4
:10204000CF90BF90AF909F9008950F931F930E94E1
:10205000F10D80916C038F5F80936C0380E063E2ED
:1020600047E00E94430880916C03815080936C0389
:102070008AE080936B0318E00AE080916E0380FD94
:10208000A7C080916E03882321F480916F03882379
:1020900019F000936B0307C080916B03882319F438
:1020A0001092CC0395C080916E0381FF3BC01092CB
:1020B0006E0380916C038F5F80936C031830B9F4CA
:1020C00081E00E94DC0C80E066E00E94221D80E33B
:1020D00092E060E00E94C41B80E067E00E94221D45
:1020E00086E492E060E00E94C41B18E616C080E01F
:1020F0000E94DC0C80E066E00E94221D85E891E0F1
:1021000060E00E94C41B80E067E00E94221D8CE515
:1021100092E060E00E94C41B18E080916C03815043
:1021200080936C0380916E0382FD04C080916F03E5
:1021300082FFA3CF10926E03183609F09ECF8091D4
:10214000BF03882359F08091C9038F5F8093C9032F
:102150008091C903823010F01092C9039091BF039F
:1021600081E0911180E08093BF0380916C038F5FC9
:1021700080936C030E94F10D80E066E00E94221DB6
:1021800080E392E060E00E94C41B80E067E00E9470
:10219000221D86E492E060E00E94C41B80E063E2BE
:1021A00047E00E94430881E00E94DC0C80916C03B0
:1021B000815080936C036091C90385E090E00E9498
:1021C000C5206091BF0386E090E00E94C52055CFF6
:1021D0001F910F9108950F931F930E94F10D80910D
:1021E0006C038F5F80936C0380E066E00E94221D89
:1021F00082E792E060E00E94C41B80E06BE247E06F
:102200000E94430880916C03815080936C038AE0A4
:1022100080936B0316E00AE080916E0380FDA8C0F6
:1022200080916E03882321F480916F03882319F035
:1022300000936B0307C080916B03882319F41092FD
:10224000CC0396C080916E0381FF47C010926E034D
:1022500080916C038F5F80936C031630E9F482E603
:1022600065E00E94221D8091B40061E00E946D082B
:1022700080E066E00E94221D88E892E060E00E9413
:10228000C41B80E067E00E94221D8DE992E060E0BF
:102290000E94C41B19E61CC082E665E00E94221D54
:1022A0008091B40060E00E946D0880E066E00E94CA
:1022B000221D82EB92E060E00E94C41B80E067E098
:1022C0000E94221D85EC92E060E00E94C41B16E093
:1022D00080916C03815080936C0380916E0382FD2A
:1022E00004C080916F0382FF97CF10926E0319365E
:1022F00009F092CF8091B4008F5F8093B4008091F9
:10230000B400813110F01092B40080916C038F5FA3
:1023100080936C030E94F10D80E066E00E94221D14
:1023200080E392E060E00E94C41B80E067E00E94CE
:10233000221D86E492E060E00E94C41B80E06BE214
:1023400047E00E94430882E665E00E94221D8091DA
:10235000B40061E00E946D0880916C03815080930D
:102360006C036091B40083E090E00E94C52054CFDC
:102370001F910F910895BF92CF92DF92EF92FF923B
:102380000F931F93CF93DF931091C503F090CF036A
:10239000D090C0030E94F10D80916C038F5F8093F9
:1023A0006C0380E06BE147E00E94430880916C037E
:1023B000815080936C038AE080936B0305E02AE0F0
:1023C000B22EC4E6D0E080916E0380FD85C180917D
:1023D0006E03882321F480916F03882319F0B09253
:1023E0006B0307C080916B03882319F41092CC0310
:1023F00073C180916E0381FFDFC010926E038091E4
:102400006C038F5F80936C030530F1F48091C903F6
:10241000882309F451C08091C903823009F44CC06B
:102420008091C903843009F447C08091C903853085
:1024300009F442C08091C9038130C9F08091C90379
:10244000833009F086C013C00B3059F58091C90361
:10245000882369F08091C903823049F08091C903D3
:10246000843029F08091C903853009F050C08F2D48
:10247000612F4D2D2CE00E94170D80E066E00E9438
:10248000221D85E093E060E00E94C41B80E067E0CD
:102490000E94221D8BE193E060E00E94C41B0CE0CF
:1024A00086C00C3009F055C08091C903813021F0FD
:1024B0008091C9038330D1F48F2D612F4D2D2BE0F6
:1024C0000E94170D80E066E00E94221D89ED92E0D7
:1024D00060E00E94C41B80E067E00E94221D8FEE36
:1024E00092E060E00E94C41B0BE061C08091C903D0
:1024F0008823A9F08091C903823089F08091C903B3
:10250000843069F08091C903853019F508C0809145
:10251000C903813021F08091C9038330D1F48F2D1C
:10252000612F4D2D2DE00E94170D80E066E00E9486
:10253000221D81E393E060E00E94C41B80E067E01D
:102540000E94221D87E493E060E00E94C41B0DE01E
:102550002EC08F2D612F4D2D25E00E94170D80E09C
:1025600066E00E94221D85E891E060E00E94C41BA5
:1025700080E067E00E94221D8BE991E060E00E940C
:10258000C41BD092C003F092CF031093C503809177
:10259000D0036091C6034091BD030091C503E09054
:1025A000CF03C090C00320E00E94720905E0809133
:1025B0006C03815080936C0380916E0382FD04C094
:1025C00080916F0382FFFFCE10926E0380916C03A7
:1025D0008F5F80936C030B3091F5F3948F2D8D30CA
:1025E000D8F4823089F48D2D90E00E944D09882323
:1025F00011F01E31D0F48D2D90E00E944D098823FA
:10260000C9F41D31A0F416C09F2D943059F09630B6
:1026100049F0993039F003C0FF24F3940BC0AF2D7B
:10262000AB3041F41F3128F405C01DE103C01CE1AB
:1026300001C01EE18F2D612F4D2D2BE038C00C30D5
:1026400049F51F5F103208F011E0BF2DB23089F458
:102650008D2D90E00E944D09882311F01E31A0F4C9
:102660008D2D90E00E944D09882379F41D3160F48E
:102670000CC08F2D843031F0863021F0893011F07C
:102680008B3019F41F3109F411E08F2D612F4D2D7E
:102690002CE00DC00D3069F48D2D90E00196BE0147
:1026A0000E946D20482FD82E8F2D612F2DE00E9483
:1026B000170D80916C03815080936C0380916F03A0
:1026C00082FF81CE8FEF91EEA4E081509040A04038
:1026D000E1F700C0000077CEDF91CF911F910F91FD
:1026E000FF90EF90DF90CF90BF900895CF92DF9250
:1026F000FF920F931F93DF93CF930F92CDB7DEB767
:102700000E94F10D80916C038F5F80936C0380E0D9
:102710006BE047E00E94430880916C0381508093F6
:102720006C038AE080936B0324E04AE0F42E3CE3E0
:10273000C32ED12C08E110E080916E0380FDDEC035
:1027400080916E03882321F480916F03882319F010
:10275000F0926B0307C080916B03882319F41092E9
:10276000CC03CCC080916E0381FF74C010926E03C5
:1027700080916C038F5F80936C032430C9F4809147
:10278000CA0361E00E94AC0D80E066E00E94221D59
:102790008CEA91E060E00E94C41B80E067E00E9448
:1027A000221D82EC91E060E00E94C41B25E64DC032
:1027B000253631F580E561E00E94221D8091CA0333
:1027C00060E00E94AC0D82E661E00E94221D8091D3
:1027D000C10361E00E946D0880E066E00E94221D56
:1027E00088ED91E060E00E94C41B80E067E00E94F9
:1027F000221D8EEE91E060E00E94C41B26E625C0FB
:1028000080E561E00E94221D8091CA0360E00E9481
:10281000AC0D82E661E00E94221D8091C10360E060
:102820000E946D0880E066E00E94221D85E891E02C
:1028300060E00E94C41B80E067E00E94221D8BE9DB
:1028400091E060E00E94C41B24E080916C03815001
:1028500080936C0380916E0382FD04C080916F03AE
:1028600082FF6ACF10926E0380916C038F5F80931A
:102870006C032536A1F48091CA0390E00196B8015B
:102880000E946D208093CA038091CA0361E029836E
:102890000E94AC0D6091CA0381E090E019C0263619
:1028A000D1F48091C10390E00196B6010E946D20A1
:1028B0008093C10382E661E029830E94221D8091FA
:1028C000C10361E00E946D086091C10382E090E065
:1028D0000E94C520298180916C03815080936C03F4
:1028E00080916F0382FF28CF8FEF91EEA4E081509B
:1028F0009040A040E1F700C000001ECF0F90CF91A4
:10290000DF911F910F91FF90DF90CF90089526984F
:102910002E9A81E080936800EBE6F0E0808180648D
:10292000808382E080937C0010927B00EAE7F0E0F5
:102930008EE88083808180648083089580917A000E
:10294000877F80937A0080917A00806480937A00F8
:1029500080917A0084FFFCCF20917800309179003B
:10296000C90108951F920F920FB60F9211242F9351
:102970003F934F935F936F937F938F939F93AF9307
:10298000BF93EF93FF9378948091780090917900B2
:1029900022E0803E920728F010926F0310926D03A0
:1029A0007CC022E083369207A8F180916D0382FDFE
:1029B00074C08FE19EE40197F1F700C000000E940F
:1029C0009E14825692408E37910508F066C082E0D0
:1029D0008093700312C00E949E14825692408E37DC
:1029E000910558F080916D038B7F80936D038091EA
:1029F0006E03846080936E0350C0809170038823BF
:102A000051F780916D03846080936D0380916F0313
:102A1000846041C021E08F30920700F180916D0306
:102A200081FD13C08FE19EE40197F1F700C0000023
:102A30000E949E148E50914021E08535920768F5E2
:102A400080916E03826080936E0380916D0382603B
:102A500080936D0380916F0382601DC080916D0330
:102A600080FD11C08FE19EE40197F1F700C00000E6
:102A70000E949E1421E08F30920778F480916E03BB
:102A8000816080936E0380916D03816080936D03FC
:102A900080916F03816080936F0380917A008864D6
:102AA00080937A00FF91EF91BF91AF919F918F91A9
:102AB0007F916F915F914F913F912F910F900FBE3A
:102AC0000F901F9018951F920F920FB60F9211241E
:102AD0002F933F934F935F936F937F938F939F9326
:102AE000AF93BF93EF93FF9378940E941A08FF91DE
:102AF000EF91BF91AF919F918F917F916F915F9176
:102B00004F913F912F910F900FBE0F901F901895EE
:102B100008950F93082F80E060E040E820E40E94D1
:102B2000E5180F910895089521E0411120E044E057
:102B30000E94AE1A0895CF93DF93C82FD0E0E42F00
:102B4000F0E0E053F84F833010F42C963197262FA5
:102B500030E02F5F3F4F2E0F3F1FCE01880F991F90
:102B6000280F391FCF019695879596958795280F41
:102B7000391FCF0160E971E00E945920260F371FED
:102B8000CF0164E670E00E945920261B370B219686
:102B9000CE01880F991F8C0F9D1F880F991F6AE027
:102BA00070E00E945920260F371FC90167E070E0CE
:102BB0000E945920DF91CF910895DF92EF92FF920A
:102BC0000F931F9380916303833029F48091CA038C
:102BD000F090C10310C080916303823041F4809172
:102BE000C00364E60E944D20F92E84E104C0809168
:102BF000BD03F090C6039091BF03992359F49091BF
:102C00006303923039F090E047966CE070E00E94E8
:102C10006D208F5FFAE0EF2E6E2D0E944D20D92E91
:102C20002DE7829FC001112480579F4F63E070E021
:102C300040E050E029E130E005E010E00E942A1B6E
:102C40003D2D2DE7329FC001112480579F4F6FE12A
:102C500070E040E050E029E130E00E942A1B8F2D17
:102C60006E2D0E944D20F92E3DE7839FC001112457
:102C700080579F4F68E470E040E050E029E130E089
:102C80000E942A1B2F2D3DE7239FC001112480574E
:102C90009F4F64E670E040E050E029E130E00E94A0
:102CA0002A1B8091CF036091C5034091C0030E940D
:102CB0009B159DE8899FC00111248E589A4F61E0B1
:102CC00070E045E050E02FE230E003E010E00E94C9
:102CD0002A1B8091C903882329F48091CF03E090B7
:102CE000C50304C08091C503E090CF03EAE0FE2E47
:102CF0006F2D0E944D20D92E2AE2829FC0011124FF
:102D0000835B964F6BE370E045E050E02EE030E0EF
:102D100003E010E00E942A1B3D2D2AE2329FC001F1
:102D20001124835B964F6BE470E045E050E02EE0A9
:102D300030E00E942A1B8BE568E344E022E001E0DA
:102D40000E94E5188CE567E342E024E00E94E51864
:102D50008E2D6F2D0E944D20F92E3AE2839FC001E7
:102D60001124835B964F61E670E045E050E02EE071
:102D700030E003E010E00E942A1B2F2D3AE2239F4F
:102D8000C0011124835B964F61E770E045E050E09D
:102D90002EE030E00E942A1B80916103882389F095
:102DA0008091D00380FF0DC080916303823049F091
:102DB00080E46FE040E00E94941580E46EE140E022
:102DC00008C080E46FE041E00E94941580E46EE169
:102DD00041E00E9494151F910F91FF90EF90DF90BA
:102DE00008959093C5008093C40088E18093C1004A
:102DF0008EE08093C200519A5098089505C081508A
:102E00009EE100009150E9F78823C9F708950AC0B0
:102E10002FEF39E648E1215030404040E1F700C053
:102E2000000081508823A1F708959091C00095FF7C
:102E3000FCCF8093C60080E090E008958091C000B0
:102E400087FFFCCF8091C60008958091C0008078F4
:102E50000895EF92FF921F93DF93CF930F92CDB718
:102E6000DEB77C0110E005C069830E9415171F5F63
:102E70006981F701E10FF11D84918823A9F7662389
:102E800031F08AE00E9415178DE00E9415170F900F
:102E9000CF91DF911F91FF90EF900895EF92FF92F5
:102EA000CF93DF93E82EE7017E01F92EE70102C000
:102EB0000E94151789918823D9F7DF91CF91FF9050
:102EC000EF9008951F93182F82958F708A3010F419
:102ED000805D01C0895A0E941517212F30E02F70A4
:102EE0003070812F8F702A30310514F4805D01C05D
:102EF000895A0E9415171F9108951F93182F892F23
:102F00000E946217812F0E9462171F910895EF920D
:102F1000FF920F931F937B018C01C8010E947D17C4
:102F2000C7010E947D171F910F91FF90EF900895A8
:102F3000AF92BF92CF92DF92EF92FF920F931F93C7
:102F4000CF93DF938C0195E0E92EF12C20E0C0E1D6
:102F5000D7E28AE0C82ED12CC801BE010E945920B8
:102F6000B62E662329F4222319F4C130D10529F4A1
:102F70008B2D805D0E94151721E0CE01B6010E94C5
:102F800059200894E108F108E114F10489F04B2D6F
:102F900050E04C9FC0014D9F900D5C9F900D1124FF
:102FA000081B190BA62EE5015E01B72EE501D4CF53
:102FB000DF91CF911F910F91FF90EF90DF90CF9015
:102FC000BF90AF900895AF92BF92CF92DF92EF92F1
:102FD000FF920F931F93CF93DF93D82E87FF04C0E8
:102FE0008DE20E941517D19403E010E020E0C4E6C2
:102FF000D0E03AE0E32EF12C8D2D992787FD9095B6
:10300000BE010E945920C62E16162CF0222319F458
:10301000C130D10529F48C2D805D0E94151721E067
:10302000CE01B7010E9459200150104051F0CC9EB2
:10303000C02C1124DC18462FEA015E01B72EE501F1
:10304000DBCFDF91CF911F910F91FF90EF90DF9039
:10305000CF90BF90AF9008954F925F926F927F9202
:103060008F929F92AF92BF92CF92DF92EF92FF9298
:103070000F931F93CF93DF935B016C01CAE0D0E005
:103080004424E12C4AECF42E4AE9042F4BE3142F9C
:10309000C601B501A80197010E948020922E22232B
:1030A00041F4442031F481E0E816F10401051105F2
:1030B00031F4892D805D0E94151744244394C80182
:1030C000B7012AE030E040E050E00E948020822EEC
:1030D000732E642E552E219789F0692D70E080E0C3
:1030E00090E0A80197010E942E20A61AB70AC80AEC
:1030F000D90AE82CF72C062D152DCACFDF91CF91D8
:103100001F910F91FF90EF90DF90CF90BF90AF9005
:103110009F908F907F906F905F904F900895EF9267
:10312000FF920F931F93F82E162F062F06950695E4
:103130000695602F0E94221D0E947C1C0E947C1C10
:10314000E82E8F2D602F0E94221D177021E030E0A5
:1031500002C0220F331F1A95E2F78E2D822B0E9498
:10316000C91C80E00E94151D1F910F91FF90EF90E8
:103170000895EF92FF920F931F93F82E162F062FAC
:10318000069506950695602F0E94221D0E947C1CC4
:103190000E947C1CE82E8F2D602F0E94221D17702C
:1031A00021E030E002C0220F331F1A95E2F7822F90
:1031B00080958E210E94C91C80E00E94151D1F91E0
:1031C0000F91FF90EF90089508952F923F924F92A4
:1031D0005F926F927F928F929F92AF92BF92CF92A7
:1031E000DF92EF92FF920F931F93DF93CF930F9293
:1031F000CDB7DEB7182F962F742ED22E37E0B32E10
:10320000B62209F462C0862E869486948694AA24F7
:103210006B2C4B2C552447FC5094262E332427E04E
:10322000222233242D0C311C21E0E22EF12C39C056
:103230009A2C910E892D682D99830E94221D0E943F
:103240007C1C0E947C1CC82E40E050E0998115C077
:10325000013041F4970102C0220F331FEA95E2F7D3
:10326000C22A09C0970102C0220F331FEA95E2F774
:10327000F901E095CE224F5F5F4FFA01E40DF51D95
:10328000E215F30524F4862D840F883009F7892D83
:10329000682D99830E94221D8C2D0E94C91CA39425
:1032A0009981A71428F24D2D50E0892F877028E0CE
:1032B00030E0281B31092417350724F48B2D885062
:1032C000D80E01C0DD24987F985FC92EC694C6949D
:1032D000C694A92EBB24AD0CB11C93E0B594A79461
:1032E0009A95E1F711C0812F6C2D0E94221DEE24CA
:1032F00008C0013011F48FEF01C080E00E94C91CAA
:10330000E394E714B0F3C3948C2D90E08A159B05E9
:1033100054F38D2D8770C1F1BB24E82EFF2481E08A
:10332000882E912C2FC0AB2CA10E8A2D6C2D0E94C3
:10333000221D0E947C1C0E947C1CD82E20E030E0C4
:1033400016C0013049F4C401022E02C0880F991F33
:103350000A94E2F7D82A09C0A401022E02C0440F41
:10336000551F0A94E2F74095D4222F5F3F4F2E1548
:103370003F053CF38A2D6C2D0E94221D8D2D0E944D
:10338000C91CB394B71478F280E00E94151D0F9009
:10339000CF91DF911F910F91FF90EF90DF90CF9031
:1033A000BF90AF909F908F907F906F905F904F9065
:1033B0003F902F900895DF92EF92FF920F931F930B
:1033C000182FF62EE42ED22E41E001E00E94E518DF
:1033D000812F81508E0D6F2D41E02D2D0E94E5181B
:1033E000812F6F2D4E2D21E00E94E5186F2D615029
:1033F0006D0D812F4E2D21E00E94E5181F910F9138
:10340000FF90EF90DF9008953F924F925F926F92FE
:103410007F928F929F92AF92BF92CF92DF92EF9264
:10342000FF920F931F93CF93DF93B82EA62E322EC9
:10343000662E681A042F10E0CC27DD27C01BD10BA5
:10344000CC0FDD1F2396762E4501CC24DD24EE24FF
:10345000FF24832D813041F5402E4A0C8B2D642DA5
:103460000E948F189A2D901B592E8B2D692F0E9428
:103470008F18892D642D0E948F18892D652D0E942B
:103480008F184618842D682D0E948F18842D672D63
:103490000E948F185618852D682D0E948F18852D33
:1034A000672D0E948F1827C0402E4A0C8B2D642D4B
:1034B0000E94B9188A2D801B582E8B2D652D0E94D5
:1034C000B918892D642D0E94B918892D652D0E9487
:1034D000B9184618842D682D0E94B918842D672DBF
:1034E0000E94B9185618852D682D0E94B918852D8F
:1034F000672D0E94B918D7FF04C02696CC0DDD1D9C
:103500000CC02A969701201B310B220F331F220F6C
:10351000331FC20FD31F015010400894E11CF11C4F
:1035200084E090E0C80ED91EB3949A9483947A9460
:103530000E151F050CF08DCFDF91CF911F910F91CC
:10354000FF90EF90DF90CF90BF90AF909F908F90C3
:103550007F906F905F904F903F9008952F923F9291
:103560004F925F926F927F928F929F92AF92BF9293
:10357000CF92DF92EF92FF920F931F93CF93DF933F
:10358000A82E162FB22E362E381AE42EFF24CC2762
:10359000DD27CE19DF09CC0FDD1F239666247724A3
:1035A000CC24DD24262E23188C2C512E5E189E2C24
:1035B000990C8C2D8A0D652D41E0292D0B2D0E9433
:1035C000E5188A2D8C19652D41E0292D0E94E518FA
:1035D000912E9C18880C822D8E0D692D41E0282D8E
:1035E0000E94E518852D8319692D41E0282D0E9440
:1035F000E518D7FF04C02696C60DD71D0DC02A9624
:10360000C6018E199F09880F991F880F991FC80F2F
:10361000D91F0894E108F1080894C11CD11C84E06A
:1036200090E0680E791EEC14FD040CF0BDCFDF9124
:10363000CF911F910F91FF90EF90DF90CF90BF90AF
:10364000AF909F908F907F906F905F904F903F9042
:103650002F9008959F92AF92BF92CF92DF92EF92F8
:10366000FF920F931F93CF93DF93EC01162FB42E8D
:10367000A22E9924E22EFF2415C0692D6B0D812FF7
:103680000E94221D6E0107C0F6010894C11CD11CC6
:1036900084910E94C91C8C2D8C1B8A15A8F3CE0D19
:1036A000DF1D9394901648F3DF91CF911F910F91F6
:1036B000FF90EF90DF90CF90BF90AF909F900895D4
:1036C000DF92EF92FF920F931F93CF93DF93D62E4B
:1036D00095E0899FC0011124EC01C05AD040E5E675
:1036E000EE2EEFEFFE2EE80EF91E8E01DD2031F0FA
:1036F000FE01EC5FF44F8491809504C0F801EC5F0B
:10370000F44F84910E94C91C21960F5F1F4FCE1564
:10371000DF0561F7DD2011F08FEF01C080E00E942E
:10372000C91C80E00E94151DDF91CF911F910F9160
:10373000FF90EF90DF9008950F931F93CF93DF9347
:1037400020E090E007C0CF50D54FFE0134913F5F9D
:10375000230F9F5FC22FD0E09817A8F3FE01EF5010
:10376000F54F0491219610E008C0FE01EF50F54F8F
:1037700084910E94C91C1F5F21961017B0F3DF913E
:10378000CF911F910F910895EF92FF921F93CF93C6
:10379000DF93162FE82EE7017E01F92EE70103C023
:1037A000612F0E94601B89918823D1F7DF91CF910F
:1037B0001F91FF90EF9008952F982D982C98409886
:1037C0005A98279A259A249A389A529A8BB18F70D0
:1037D0008BB985B1807F85B98AB1806F8AB984B190
:1037E0008F6084B9089540985A98882319F08130E1
:1037F00021F402C0409A08955A9A0895F8940E94BC
:10380000F31B8BB1806F8BB985B18F6085B92F9811
:103810008AB18F708AB984B1807F84B92D9A2C9A2D
:1038200008C02C9800000000000000002C9A000046
:1038300000000000000089B193B187FDF2CF2C9801
:103840002D988AB1806F8AB984B18F6084B97894D9
:103850000895DF93CF930F92CDB7DEB7F8946983C5
:103860000E94FE1B2F982D982C9A8AB1806F8AB9DE
:1038700084B18F6084B98BB18F708BB99BB1698132
:10388000862F807F892B8BB985B1807F85B985B1E3
:103890006F70682B65B90000000000000000000098
:1038A0000000000000002C9878940F90CF91DF91D9
:1038B0000895F8940E94FE1B2F988AB18F708AB9E0
:1038C00084B1807F84B92D9A2C9A000000000000FA
:1038D0000000000000000000000089B193B12C98A6
:1038E0002D982AB1206F2AB924B12F6024B9789479
:1038F0009F70807F892B08958091D3038295869550
:1039000086958370F8940E94FE1B2F9A8AB18F705F
:103910008AB984B1807F84B92D9A2C9A0000000066
:1039200000000000000000000000000089B193B119
:103930002C982D9878949F70807F892B08950895F6
:103940008093D30380E060E40E94291C1092D50389
:1039500081E060E40E94291C1092D7038091D30378
:10396000682F6F73606482958695869583700E9438
:10397000291C08951F938093D403182F186B80E09F
:10398000612F0E94291C81E0612F0E94291C1F9138
:1039900008950F931F93082F1091D3031295169536
:1039A00016951370F894812F0E94FE1B2F9A2D9864
:1039B0002C9A8AB1806F8AB984B18F6084B98BB137
:1039C0008F708BB99BB1802F807F892B8BB985B18C
:1039D000807F85B985B10F70082B05B90000000004
:1039E0000000000000000000000000002C98789407
:1039F000E12FF0E0EE0FFF1FEB52FC4F80818F5F55
:103A000080838091D3038F5F8093D30387FF0AC0A5
:103A10008091D4038F5F8093D4030E94BA1C80E00E
:103A20000E94A01C1F910F9108951F93182F106CD6
:103A300080E0612F0E94291C81E0612F0E94291CD7
:103A40001F9108951F93182F862F0E94BA1C812F53
:103A50000E94A01C1F9108950F931F9310E080E017
:103A6000612F0E94221D00E080E00E94C91C0F5FB0
:103A70000038D1F71F5F183091F71F910F9108950B
:103A800080E00E94151D80E060E00E94221D1092DF
:103A9000D5031092D6031092D7031092D80308953D
:103AA0000E94DC1B80E06FE30E94291C81E06FE331
:103AB0000E94291C0E942C1D0E94401D0895982FD1
:103AC000862F880F860F880F692F0E94221D089568
:103AD0000895459A449A1092BA031092B90310922D
:103AE000BC031092BB0380E28093B800ECEBF0E0E3
:103AF00080818460808310927303808181608083E1
:103B00008081806480837894089580E28093B800F7
:103B1000089591E0662309F490E08E7F892B8093CD
:103B2000BA0008959093BA038093B90308959093CF
:103B3000BC038093BB030895ECEBF0E080818F70B1
:103B4000806A80830895ECEBF0E080818F70806D57
:103B5000808308958091BC0087FFFCCF08958093F7
:103B6000BB00ECEBF0E080818F708068808308956B
:103B7000882329F08091BC008F70806C04C08091F4
:103B8000BC008F7080688093BC0008958091BB005A
:103B900008958091B9000895909173039923E1F7F6
:103BA00092E0909373038E7F80937403842F952FFC
:103BB000DC01E7E7F3E0862F90E08E0F9F1F02C045
:103BC0002D912193E817F907D9F7109275036093A7
:103BD00076030E949C1D08950F931F93DF93CF934C
:103BE0000F92CDB7DEB78A01909173039923E1F765
:103BF00093E0909373038160809374031092970312
:103C00006093B80369830E949C1D6981809173034E
:103C10008823E1F7E8E9F3E070E06E0F7F1F04C04E
:103C20008191D8018D938D01E617F707C9F70F90A1
:103C3000CF91DF911F910F910895EF92FF921F9303
:103C4000DF93CF930F92CDB7DEB7162F7A01909105
:103C5000BC009E7F9093BC0089830E949C1D0E94A3
:103C6000AA1D89818E7F0E94AF1D0E94AA1D80918E
:103C7000B900883169F408C0F70181917F010E9481
:103C8000AF1D0E94AA1D11501123B1F780E001C0A1
:103C900081E089830E94A31D89819091BC0094FFDB
:103CA000FCCF9091BC0091609093BC000F90CF919D
:103CB000DF911F91FF90EF900895EF92FF921F9375
:103CC000DF93CF930F92CDB7DEB7162F7A01909185
:103CD000BC009E7F9093BC0089830E949C1D0E9423
:103CE000AA1D898181600E94AF1D0E94AA1D80913A
:103CF000B9008034C9F40BC08FEF0E94B81D0E9438
:103D0000AA1D8091BB00F70181937F0111501230F1
:103D100098F780E00E94B81D0E94AA1D8091BB0008
:103D2000F701808380E001C081E089830E94A31DA8
:103D30009091BC0091609093BC0089810F90CF91CD
:103D4000DF911F91FF90EF9008951F920F920FB691
:103D50000F9211242F933F934F935F936F937F9311
:103D60008F939F93AF93BF93EF93FF938091B9008D
:103D7000887F883609F4C9C0893688F5803309F40C
:103D80008EC08133B0F4803109F45AC0813138F4E7
:103D9000882309F442C1883009F04CC151C08032F7
:103DA00009F47DC0883209F453C0883109F042C15A
:103DB0004FC0883409F473C0893438F4883309F467
:103DC00076C0803409F036C190C0883509F456C0F9
:103DD000803609F49AC0803509F02CC172C0803A4F
:103DE00009F4BCC0813AB0F4803809F499C0813834
:103DF00038F4803709F489C0883709F01BC185C0C1
:103E0000803909F48DC0883909F49FC0883809F0D9
:103E100011C19BC0883B09F4CFC0893B38F4883A74
:103E200009F4B4C0803B09F005C1B0C0883C09F476
:103E3000E4C0883F09F4EBC0803C09F0FBC0DDC062
:103E400081E39EE060E00E9429178091740313C013
:103E500082E19EE060E00E942917909175038091B5
:103E60007603981708F5E92FF0E0E958FC4F8081B8
:103E70009F5F909375030E94AF1DDCC08DEF9DE0A6
:103E800060E00E942917809197039091BB00E82F72
:103E9000F0E0E856FC4F90838F5F8093970387EDA7
:103EA0009DE060E00E9429170E94A31DC1C083EC21
:103EB0009DE060E00E9429178091BC008F708068AF
:103EC000B5C08FEA9DE060E00E9429178091BB0099
:103ED00090919703E92FF0E0E856FC4F80839F5FB5
:103EE0009093970390E00E947D178CE99DE060E03D
:103EF0000E9429172091970330E08091B80390E049
:103F000001972817390734F51EC089E89DE060E065
:103F10000E94291785E0809373031092970361C074
:103F200085E79DE060E00E942917809197039091BA
:103F3000BB00E82FF0E0E856FC4F90838F5F809342
:103F40009703803238F48FEF06C080E69DE060E092
:103F50000E94291780E00E94B81D6CC08DE49DE08E
:103F600060E00E9429178091BC008F70806C809364
:103F7000BC00E091B903F091BA03309709F458C03E
:103F80008091970368E973E0099552C08AE39DE048
:103F900060E00E94291784E080937303E091BB03E3
:103FA000F091BC03309731F080E267E773E0099548
:103FB000809376031092750386E29DE060E00E9494
:103FC000291780917503E82FF0E0E958FC4F9081A4
:103FD0009093BB008F5F8093750390917603891750
:103FE00028F48091BC008F70806C04C08091BC006C
:103FF0008F7080688093BC001DC084E09DE060E00D
:104000000E9429178091BC008F70806C0FC085EFD3
:104010009CE060E00E9429170DC084EE9CE060E007
:104020000E9429178091BC008F70806D8093BC0026
:1040300010927303FF91EF91BF91AF919F918F9178
:104040007F916F915F914F913F912F910F900FBE94
:104050000F901F901895809173030895629FD0016F
:10406000739FF001829FE00DF11D649FE00DF11D33
:10407000929FF00D839FF00D749FF00D659FF00DE2
:104080009927729FB00DE11DF91F639FB00DE11DCF
:10409000F91FBD01CF0111240895991B79E004C0D7
:1040A000991F961708F0961B881F7A95C9F7809577
:1040B0000895AA1BBB1B51E107C0AA1FBB1FA6176F
:1040C000B70710F0A61BB70B881F991F5A95A9F7C1
:1040D00080959095BC01CD01089597FB092E072688
:1040E0000AD077FD04D0E5DF06D000201AF47095E1
:1040F00061957F4F0895F6F7909581959F4F0895AC
:10410000A1E21A2EAA1BBB1BFD010DC0AA1FBB1FDB
:10411000EE1FFF1FA217B307E407F50720F0A21B4D
:10412000B30BE40BF50B661F771F881F991F1A94BA
:1041300069F760957095809590959B01AC01BD01E4
:10414000CF01089597FB092E05260ED057FD04D008
:10415000D7DF0AD0001C38F4509540953095219552
:104160003F4F4F4F5F4F0895F6F7909580957095AC
:1041700061957F4F8F4F9F4F0895F999FECF92BD64
:1041800081BDF89A992780B50895262FF999FECF19
:104190001FBA92BD81BD20BD0FB6F894FA9AF99A64
:0A41A0000FBE01960895F894FFCFBA
:1041AA0001526567696F6E3A200020202020205551
:1041BA0053203132687200202020202055532032AB
:1041CA003468720020202020204555203132687240
:1041DA000020202020204555203234687200446196
:1041EA0074653A00202020202000436F6E666967BC
:1041FA0075726174696F6E204D656E7500536574D2
:10420A0020416C61726D3A20200053657420546914
:10421A006D653A2000536574204261636B6C69676F
:10422A0068743A20005072657373204D454E5520CC
:10423A00746F20616476616E636500507265737392
:10424A002053455420746F2073657400507265734F
:10425A0073202B20746F206368616E676520687213
:10426A002E0050726573732053455420746F207367
:10427A00657420686F7572005072657373202B2005
:10428A00746F206368616E6765206D696E00507295
:10429A006573732053455420746F20736574206DC1
:1042AA00696E73005072657373202B20746F2063DC
:1042BA0068616E6765207365630050726573732069
:1042CA0053455420746F20736574207365637300BB
:1042DA005072657373202B20746F206368616E6758
:1042EA0065202020200050726573732053455420A6
:1042FA00746F2073617665202020200050726573E8
:10430A00732053455420746F207365742020202035
:10431A0020005072657373204D454E5520746F20EE
:10432A0065786974202020005072657373202B20F1
:10433A00746F206368616E67652020200050726583
:10434A0073732053455420746F207361766520205F
:10435A0020005072657373204D454E5520746F20AE
:10436A0065786974005072657373205345542074DC
:10437A006F20736574202020005072657373202BA0
:10438A0020746F206368616E6765206D6F6E0050E0
:10439A00726573732053455420746F2073657420BB
:1043AA006D6F6E2E005072657373202B20746F2010
:1043BA006368616E67652064617900507265737322
:1043CA002053455420746F207365742064617465AA
:1043DA00005072657373202B20746F206368616EBE
:1043EA0067652079722E00507265737320534554A5
:0E43FA0020746F207365742079656172000075
:00000001FF
