:100000000C9421070C943E070C943E070C94FC15AD
:100010000C943E070C943E070C943E070C943E074C
:100020000C943E070C94480A0C943E070C94B307BA
:100030000C943E070C9440070C9452070C943E0716
:100040000C943E070C943E070C943E070C943E071C
:100050000C943E070C9425150C943E070C943E0717
:100060000C94461F0C943E07FA3E1A7ADE8EF62E4A
:100070006078AE1CAA2A3ACEF30AB61E3838B86E9B
:1000800076DA6800FC60DAF266B6BEE0FEE684006E
:10009000000080E0F0F8FCFE3E0F07070707070F9F
:1000A0003EFEFCF8F0E0800000F0FEFFFFFFFFFFE7
:1000B000FF000000000000000000FFFFFFFFFFFF47
:1000C000FEF07FFFFFFFFFFFFFFF000000000000CA
:1000D000000000FFFFFFFFFFFFFF7F00030F3F7FD8
:1000E000FFFFFFF8C0800000000080E0FFFFFF7FFF
:1000F0003F0F030000000000000001010303070799
:1001000007070703030301000000000000000000D0
:10011000383838383878F8FCFCFCFEFFFFFF000068
:10012000000000000000000000000000000000FFD0
:10013000FFFFFFFFFFFFFF000000000000000000C6
:100140000000000000000000FFFFFFFFFFFFFFFFB7
:10015000000000000000000000000080808080801F
:1001600080FFFFFFFFFFFFFFFF8080808080000097
:10017000000000000303030303030303030303035B
:10018000030303030303030300000000C0E0F8F8C7
:10019000FC9E8E0607070707070F3FFEFEFEFCFCCE
:1001A000F8E0C000001F3F7F7F7F7F7F3F0C000093
:1001B0000000C0F0FFFFFFFFFFFF3F0F0000000047
:1001C0000000000080C0E0F8FC7E3F3F1F0F0F07DB
:1001D0000301C0E0E00080C0F0F8FCFEFFFFFBF987
:1001E000F8F8F8F8F8F8F8F8F8F8FCFFFF1F000343
:1001F00003030303030303030303030303030303CF
:10020000030303030303000000E0F8FCFCFEFECF41
:1002100087070707070F3FFFFEFEFCFCF8F0C00052
:100220000000070F0F0F0F8F878380808080C0F042
:10023000FFFFFF7F7F3F1F07000080C0C0C0C0C01E
:1002400081030303030303071FFFFEFEFEFCFCF80C
:10025000E0000E3FFFFFFFFFFF9F07000000008050
:10026000C0F0FFFFFFFFFF7F3F0F00000000000115
:100270000303030707070707070703030303010037
:10028000000000000000000000000000000000006E
:10029000C0E0F0F8FCFFFFFFFF00000000000000DE
:1002A000000080C0E0F83C1E0F07FFFFFFFFFFFFCC
:1002B000FFFF00000000E0F0F8FEDFCFC3C1C0C0C8
:1002C000C0C0C0FFFFFFFFFFFFFFFFC0C0C0C001F5
:1002D000010101010101010181818181FFFFFFFF16
:1002E000FFFFFFFF8181818100000000000000000E
:1002F00003030303030303030303030303030303CE
:1003000003000000C0FFFEFEFEFEFEFEFEFEFEFE3F
:10031000FE7E7E7E3E1E0F020000000000FFFFFFFB
:10032000E0E06070707070F0F0F0E0E0E0C080003D
:100330000000000082C7CFC7C1C0800000000000DD
:10034000000107FFFFFFFFFFFFFEF8001F7FFFFF19
:10035000FFFF9F9F0F0000008080C0F8FFFFFFFF9E
:100360007F3F1F030000000001010303030707078D
:100370000707070703030301000000000000000057
:1003800000C0E0F0F8FCFC7E1E0F07070707E7FF40
:10039000FFFEFEFCF8F000C0FCFFFFFFFFFFFF07C1
:1003A0008080C0C0C0C0C0C3C7C7C78707030100E3
:1003B000FFFFFFFFFFFFFFFF0F0303010101010329
:1003C0000FFFFFFFFFFFFEFCF0010F1F7FFFFFFF8E
:1003D000FFF0C08000000080C0F0FFFFFFFFFF3F84
:1003E0001F070000000000010103030307070707C0
:1003F00007070303030100000000000000F8FEFEF1
:10040000FEFEFEFEFEFEFEFEFEFEFEFEFEFEFEFE0C
:10041000FEFE3E0E00707F7F0F0100000000000016
:1004200000000080E0F0FC7F1F03000000000000DF
:100430000000000000000080E0F8FCFFFFFF7F03E9
:100440000000000000000000000000000000F8FEB6
:10045000FFFFFFFFFFFFFF000000000000000000A3
:100460000000000000000001030707070707030161
:1004700000000000000000000080E0F0F8FCFE1E1C
:100480000E0F07070707070F0F3EFEFEFCF8F0E010
:1004900000003FFFFFFFFFFFFEF8F0F0F0E0E0E0BC
:1004A000E0F0F8FFBF9F1F0F030080C0E0F1F3FBF7
:1004B0007F3F1F0F1F1F1F1F3F3F7F7FFFFFFFFF5C
:1004C000FEFCF01F7FFFFFFFFFE0C0808000000008
:1004D00000008080C0E0FFFFFF7F1F0700000001D9
:1004E00001030303070707070707070303030301C4
:1004F000000000000000C0F0F8FCFCFEFE3E0F070C
:10050000070707070F7EFEFCFCF8F0E080007FFF86
:10051000FFFFFFFFFFFFC000000000000000C0FF62
:10052000FFFFFFFFFFFFFC000103078F8F1F1F1F4F
:100530001F1F1E1E0E0E0703FFFFFFFFFFFFFF1F03
:10054000007CFEFFFFFFFFFF3E0000000080C0E0D8
:10055000FCFFFF7F3F1F07000000000001030303B3
:100560000707070707070303030101000000000056
:1005700000004040C0C0C0404000004040C0C0C07B
:100580004040000000008080C04040C080800000EB
:100590000000004040C0C0C0C0C0C0C0C0C0C0401B
:1005A000400000FFFFFF101010101010FFFFFF00B1
:1005B000000000FCFFFF1110101010111F1F9C0005
:1005C00000000000FFFF0000000000FFFFFF000030
:1005D00004040707070404000004040707070404D1
:1005E00000000001030306060606060201000000E3
:1005F0003C0C07070404040404060707070C3C40EE
:1006000040C0C0C04040404040C0C0C0404000006A
:1006100000008080C04040C080800000000040405A
:10062000C0C0C0404000004040C0C0C040400000CA
:10063000FFFFFF0000000000FFFFFF000000007C44
:10064000FFFF010000000001FFFF7C00000000FF31
:10065000FFFF101010101010FFFFFF000004040730
:10066000070704040004040707070404000000014E
:100670000303060404060303010000000404070743
:1006800007040400000404070707040440C0C0C0B6
:10069000C0404040C0C0808000000000C0C040405A
:1006A00040C0C0C0404040C0C0000000000080808A
:1006B000C04040C0808000000000000000FFFFFF3D
:1006C000101010183FEFE7C0000000070000000006
:1006D000FFFFFF00000000070000007CFFFF01009B
:1006E00000000001FFFF7C0000000404070707046E
:1006F00004040606030301000000000000040407D0
:1007000007070404000000000000000103030604C2
:1007100004060303010000000000008080C0404088
:1007200040C080000000004040C0C0C080C0C0C0C9
:10073000C0C080000000000000008080C0C04040B9
:100740004040C0C0C04040007CFFFF81000000026C
:100750000707830000000000FFFFFF01000000000A
:1007600081FFFF7C00000000070F1FD8F0F0101081
:1007700010FFFFFF00000000010307060606060247
:1007800003000000008080FFFFFF8386060606034B
:100790000301000000000306040607070104060623
:1007A0000707070604004040C0C0C040400040406A
:1007B000C0C0C04040000000008080C04040C080F9
:1007C000800000000000C0C0404040C0C0C04040A9
:1007D00040C0C0000000001F3F7F6040404060FFFD
:1007E000FFFF00000000FCFFFF1110101010111F90
:1007F0001F9C0000000700000000FFFFFF0000003A
:1008000000070000000000000000000004040707CB
:1008100007040400000001030306060606060201A1
:1008200000000000000000040407070704040000A3
:100830000000004040C0C0C04040404040C0C0C078
:100840004040000000008080C04040C08080000028
:10085000000000C0C0404040C0C0C0404040C0C0D8
:1008600000000000FFFFFF0000000000FFFFFF008E
:10087000000000FCFFFF1110101010111F1F9C0042
:1008800000000700000000FFFFFF0000000007005D
:10089000000404070707040400040407070704040E
:1008A0000000000103030606060606020100000020
:1008B0000000000004040707070404000000000013
:1008C00000008080C0404040C08000000000C0C0E8
:1008D000404040C0C0C0C040000000000000000018
:1008E00000C0F89C86C74747C78787030100007C84
:1008F000FFFF8100000002070783000000070000DF
:100900000000FFFFFF101010101030F0E0C00000DA
:100910007FFFFF010000000001FFFF7C00000001DD
:10092000030706060606020300000000000000049C
:10093000040707070404040406060303010000007B
:1009400001030306040406030301000000C0F0FCD9
:100950000E02010101030EFCF8C0001FFFFF800022
:100960000000000080FFFF1F0000000103060404D8
:1009700004060301000000000004040606FEFFFF59
:100980000000000000000000000000FFFFFF00006A
:100990000000000000040404060707070404040420
:1009A0000078FCF6E2010101010386FEFC780000FC
:1009B0000080C06030180C0E070381E000040607B9
:1009C0000707070707070707070700001C3E3E3316
:1009D00001010183FEFE3C000000E0F0F001010196
:1009E0000103FEFCF80000000003030604040607F0
:1009F00003010000000000000080C07018FCFFFF31
:100A000000000020302C2623202020FFFFFF202084
:100A1000200000000000040404070707060400008B
:100A200000F0FF87878787878703010000C0E2F314
:100A3000E1000000000103FFFE780000010306064C
:100A400004040406030301000080F0F81C060203FE
:100A50000101011F1E08003FFFFF86020101010185
:100A600003FEFE78000000010306040404060303ED
:100A7000010000003F0F070707070787E73F0F0345
:100A8000000000000000E0F8FE0700000000000089
:100A9000000000000707070000000000000078FCCD
:100AA000FEC38381010383FE7E3C00E0F8FC0D075A
:100AB00003030707070EFEFC780001030706040482
:100AC00004040603030100F0FCFE06030101010318
:100AD0000EFCF8E00001C7C70E0C08080804C6FFAA
:100AE0007F1F000003070404040606030100000042
:100AF000000B3E41414141424242423C0006FFFF61
:100B0000FFFFFFFF000000000000005F0000000783
:100B1000000700147F147F14242A7F2A122313084D
:100B2000646236495522500005030000001C224132
:100B3000000041221C00082A1C2A0808083E080858
:100B4000005030000008080808080060600000201D
:100B5000100804023E5149453E00427F4000426178
:100B60005149462141454B311814127F1027454504
:100B700045393C4A4949300171090503364949491B
:100B800036064949291E0036360000005636000058
:100B900000081422411414141414412214080002F1
:100BA00001510906324979413E7E1111117E7F497A
:100BB0004949363E414141227F4141221C7F4949FA
:100BC00049417F090901013E414151327F0808082E
:100BD0007F00417F41002040413F017F08142241B6
:100BE0007F404040407F0204027F7F0408107F3E28
:100BF0004141413E7F090909063E4151215E7F097D
:100C0000192946464949493101017F01013F4040C8
:100C1000403F1F2040201F7F2018207F63140814AE
:100C2000630304780403615149454300007F414157
:100C3000020408102041417F000004020102044028
:100C400040404040000102040020545454787F4842
:100C50004444383844444420384444487F38545449
:100C60005418087E090102081454543C7F080404F7
:100C70007800447D40002040443D00007F1028441F
:100C800000417F40007C041804787C080404783814
:100C9000444444387C14141408081414187C7C0848
:100CA0000404084854545420043F4440203C40402D
:100CB000207C1C2040201C3C4030403C4428102814
:100CC000440C5050503C4464544C4400083641009D
:100CD00000007F0000004136080008082A1C0808B0
:100CE0001C2A08084932433A204255535F45525264
:100CF0004F520D0A004932433A204E4F5F494E464B
:100D00004F0D0A004932433A2053542D3E4441547A
:100D1000415F4E41434B206F72204C4153545F441E
:100D20004154410D0A004932433A2053542D3E4468
:100D30004154415F41434B0D0A004932433A20532D
:100D4000542D3E534C415F41434B0D0A0049324301
:100D50003A2053522D3E53525F53544F500D0A00C8
:100D60004932433A2053522D3E444154415F4E4153
:100D7000434B0D0A004932433A2053522D3E444121
:100D800054415F41434B0D0A004932433A205352CC
:100D90002D3E534C415F41434B0D0A004932433ACB
:100DA000204D522D3E534C415F41434B0D0A0049AB
:100DB00032433A204D522D3E444154415F41434B12
:100DC0000D0A004932433A204D542D3E4152425FB4
:100DD0004C4F53540D0A004932433A204D54522D82
:100DE0003E534C415F4E41434B206F72204D542D7A
:100DF0003E444154415F4E41434B0D0A004932434A
:100E00003A204D522D3E444154415F4E41434B0DDB
:100E10000A004932433A204D542D3E534C415F4124
:100E2000434B206F7220444154415F41434B0D0AB4
:100E3000004932433A204D2D3E53544152540D0A3D
:100E4000000011241FBECFEFD8E0DEBFCDBF14E0FD
:100E5000A0E0B1E0ECE8FFE402C005900D92A636F8
:100E6000B107D9F714E0A6E6B4E001C01D92A13E97
:100E7000B107E1F70E94550C0C94C4270C940000B4
:100E80001F920F920FB60F9211248F939F9388B1E8
:100E900098E0892788B99F918F910F900FBE0F908E
:100EA0001F9018951F920F920FB60F9211248F93D7
:100EB0009F9380916E0490916F04892B49F08091EB
:100EC0006E0490916F04019790936F0480936E0469
:100ED0008091D5049091D604892B49F08091D50456
:100EE0009091D60401979093D6048093D504809175
:100EF000D304882389F180916C0490916D04892B2F
:100F000059F58091CA049091CB04892BE1F48CE2CD
:100F100091E09093CB048093CA0480918100882350
:100F200079F41092800089E08093810083E08093BF
:100F30006F0088EE93E0909389008093880003C04F
:100F40001092810043988091CA049091CB0401973C
:100F50009093CB048093CA049F918F910F900FBE02
:100F60000F901F9018951F920F920FB60F92112499
:100F70008F939F9388B198E0892788B99F918F912B
:100F80000F900FBE0F901F901895AF92BF92CF9207
:100F9000DF92EF92FF920F931F93E62E1092800044
:100FA00029E02093810023E020936F009C0140E022
:100FB00050E060E079E08DE390E00E945C273093A0
:100FC000890020938800FF2400E010E0C801B701E9
:100FD0000E947A245B016C0120E030E04AEF54E487
:100FE0000E949C227B018C0120E030E040E85FE31E
:100FF0000E94F62388231CF461E070E024C0C8013D
:10100000B70120E03FEF4FE757E40E949623181600
:10101000B4F4C601B50120E030E040E251E40E94A2
:101020009C220E94C62088EC90E005C0FC0131970C
:10103000F1F76150704061157105C1F707C0C80133
:10104000B7010E94C620CB010197F1F710928100F1
:1010500043981F910F91FF90EF90DF90CF90BF903A
:10106000AF9008951E9B16C08091D004882311F183
:101070001092D0041092D90410926D0410926C0456
:101080008091D3048823B1F01092D3041092810090
:10109000439808958091D004882361F481E080937F
:1010A000D00410926D0410926C0483E080936B0462
:1010B00080936A040895FC0183709070892B39F441
:1010C000CF0164E670E00E941327892B49F420E0E9
:1010D00030E0CF0160E971E00E941327892B11F401
:1010E00021E030E0822F08950895482F6AE00E94A1
:1010F0000727282F30E084E0220F331F8A95E1F77D
:10110000842F0E940727892F822B089588E592E07B
:1011100090936D0480936C04109281004398109218
:10112000D40408950F931F93182F062F6AE00E948E
:101130000727805D602F0E945719812F6AE00E9467
:101140000727892F805D602F0E9457191F910F91EB
:101150000895CF92DF92EF92FF920F931F93DF9348
:10116000CF93CDB7DEB728970FB6F894DEBF0FBE8A
:10117000CDBF162FF42ED22EFE01319698E0DF015E
:101180001D929A95E9F719820E9475088A83812F2A
:101190000E9475088B838F2D0E9475088C838D2D7E
:1011A0000E9475088D83802F0E9475088E838E2D76
:1011B0000E9475088F838C2D0E9475088887F8948B
:1011C00080ED68E0AE014F5F5F4F0E94AD1E7894E6
:1011D0008823D9F008EC10E080EA9FE064E60E94E2
:1011E000C50788EE93E0F8013197F1F70197D9F739
:1011F00080EA9FE064E60E94C50780E197E2F8017B
:101200003197F1F70197D9F7E7CF28960FB6F89401
:10121000DEBF0FBECDBFCF91DF911F910F91FF9029
:10122000EF90DF90CF9008950F931F93DF93CF93AC
:10123000CDB7DEB729970FB6F894DEBF0FBECDBF8E
:101240001982F89480ED61E0AE014F5F5F4F0E941C
:10125000AD1E8823E1F008EC10E0789480EA9FE06E
:1012600064E60E94C50788EE93E0F8013197F1F734
:101270000197D9F780EA9FE064E60E94C50780E104
:1012800097E2F8013197F1F70197D9F7E6CF80EDB2
:1012900067E0AE014E5F5F4F0E94F41E7894882392
:1012A000D9F008EC10E080EA9FE064E60E94C507F0
:1012B00088EE93E0F8013197F1F70197D9F780EACA
:1012C0009FE064E60E94C50780E197E2F80131974C
:1012D000F1F70197D9F7E7CF7A81872F82958F7041
:1012E00090E0877090709C01A3E0220F331FAA95B5
:1012F000E1F7880F991F280F391F872F8F70820FF2
:101300008093D8044B81842F82958F7090E08770F2
:1013100090709C01E3E0220F331FEA95E1F7880FFC
:10132000991F280F391F4F70420F4093CE048C81B4
:10133000482F42954F70682F6F7086FF22C08295AC
:101340008695877090E0817090709C01220F331F0A
:10135000280F391F220F331F220F331F842F90E0D5
:1013600081709070AC0103E0440F551F0A95E1F7BE
:10137000880F991F480F591F240F260F2093C5046B
:1013800011C0842F90E0837090709C01B3E0220F15
:10139000331FBA95E1F7880F991F280F391F620F85
:1013A0006093C5044E81842F82958F7090E0837086
:1013B00090709C01F3E0220F331FFA95E1F7880F3C
:1013C000991F280F391F4F70420F4093CD044F8152
:1013D000842F82958F7090E0817090709C0163E003
:1013E000220F331F6A95E1F7880F991F280F391FC5
:1013F0004F70420F4093D7042885822F82958F70BB
:101400003AE0839FC00111242F70280F2093C80455
:10141000872F807829960FB6F894DEBF0FBECDBF18
:10142000CF91DF911F910F910895CF92EF920F937B
:101430000E94071E0E941409882359F080E060E092
:101440004CE020E001E0EE24E394B9E0CB2E0E94D2
:10145000A9080E94140982E090E00E94AE276CE384
:101460000E9407279093C90481E090E00E94AE2774
:1014700068E10E9407279093D20487E08093B1002F
:1014800081E08093700078940F91EF90CF90089551
:101490001F920F920FB60F921124BF92CF92DF923C
:1014A000EF92FF920F931F932F933F934F935F936E
:1014B0006F937F938F939F93AF93BF93EF93FF931C
:1014C000A89580917004803579F410927004109181
:1014D000D804F090CE04D090C5040E9414098091E5
:1014E000C5048D1529F495C08F5F809370046EC17B
:1014F000BB24B394B0926804D092CF04F092C60497
:101500008091CE048F1509F497C08091D80481177B
:1015100009F492C08091C5048430F9F48091D70415
:101520006091CD044091C8040E9423168823A9F439
:1015300080917204882379F40091CD04E090D7045F
:10154000C090C80486E26BE343E020E00E94A90853
:10155000B092720402C0109272048091C50482306D
:1015600031F58091D704833011F58091CD04883016
:10157000F0F08091CD048F30D0F48091D704609149
:10158000CD044091C8040E942316882381F48091E1
:10159000D8046091CE044091C5040091CD04E09040
:1015A000D704C090C8044F5F20E00E94A908809132
:1015B000C504823009F040C08091D7048B30E1F53A
:1015C0008091CD048830C0F58091D7046091CD041E
:1015D0004091C8040E942316882371F580917204FB
:1015E0008823A1F48091D8046091CE044091C50471
:1015F0000091CD04E090D704C090C804415020E091
:101600000E94A90881E08093720416C010927204AF
:1016100013C08091CE048F1531F081E08093670470
:10162000F092C60409C08091D804811729F081E0A6
:10163000809369041093DA048091D804811709F427
:101640003FC08091D304882359F080916C0490911D
:101650006D04009729F0019790936D0480936C04BA
:1016600080916A04882361F180916A04815080939B
:101670006A0480916A04882319F580916B04809331
:101680007A0410926B0480916804882329F0809179
:10169000CF048093C50404C080916704882321F09F
:1016A0008091C6048093CE0480916804882321F43D
:1016B00080916704882321F0D092C504F092CE0473
:1016C0008091D404843061F08091D404853041F05D
:1016D0008091D404883021F08091D404863089F53B
:1016E00080917404882369F584E462E00E94C01D3F
:1016F0008091C50460E00E94B00D8AE360E00E9422
:1017000057198091CE0460E00E9492088AE360E05D
:101710000E9457198091D80460E00E94920880913D
:10172000C704882371F480E260E00E945719809119
:10173000C5048C3010F080E501C081E460E00E94B7
:1017400057198091D004882399F08091D804882378
:1017500079F49091CE048091C904981749F490913E
:10176000C5048091D204981719F481E08093D904BC
:1017700080916704882369F480916804882349F480
:101780008091D904882329F081E08093D3041092BA
:10179000D90480917104863039F4109271048091DB
:1017A0007804882329F409C08F5F809371040EC0E8
:1017B0008091780481508093780480917304882309
:1017C00029F080917304815080937304FF91EF910D
:1017D000BF91AF919F918F917F916F915F914F9149
:1017E0003F912F911F910F91FF90EF90DF90CF903D
:1017F000BF900F900FBE0F901F901895EF92FF9221
:101800000F931F93F82E162FE42E21E001E00E9483
:10181000D519FE0C0F2D02501150802F612F0E9400
:10182000A91B1E5F802F612F0E94A91B015013501E
:10183000802F612F0E94A91B1C5F802F612F0E94A7
:10184000A91B1F910F91FF90EF90089580E090E009
:101850000E94AE27833C41F181E090E068E00E9465
:10186000B62782E090E060E00E94B62783E090E037
:1018700060E10E94B62784E090E061E00E94B62714
:1018800085E090E060E00E94B62786E090E060E0AE
:101890000E94B62787E090E06AE00E94B62780E0C9
:1018A00090E063EC0E94B62708959F92AF92BF929A
:1018B000CF92DF92EF92FF920F931F93CF93DF931C
:1018C00084B714BE88E10FB6F8948093600010923C
:1018D00060000FBE8AE190E00E9496173B9A0E943A
:1018E000150A0E94260C85E090E00E94AE278093A6
:1018F000D10486E090E00E94AE278093C7040E9446
:10190000FA140E94320882E084BD83E085BD8DE731
:1019100087BD80916E00826080936E00539A80E252
:101920008093B0008091B00083608093B00080917C
:10193000B10088608093B10080E18093B30083E0C0
:1019400090E00E94AE278093B400259A80EA9FE041
:1019500064E60E94C5072FE088E190E00FB6F89496
:10196000A895809360000FBE209360000E94EE1D3A
:101970000E94CA1D0E94211680E00E948C1710E070
:101980005BE4E52EF12CC8E5D2E042E0942E03E0C2
:1019900038E0A32E26E0B22E94E0C92E85E0D82EA2
:1019A000F092D604E092D50480917604882379F0F1
:1019B0008091D304882359F010927604D0936D045B
:1019C000C0936C041092810043981092D4048091CB
:1019D0007604867031F01092760490926B04009336
:1019E0006A048091760480FF41C0109276041092C0
:1019F0006B0410926A048091D404843089F085309D
:101A000028F4882341F0833009F511C08530A1F016
:101A10008830E1F416C0C092D4040E94A6101DC004
:101A20000093D4040E94070F1092000116C0D092B8
:101A3000D4040E943D1311C0A092D4040E94A611A8
:101A40000CC0B092D4040E946D1207C01092D4044E
:101A50000E94CA1D80E00E948C178091D4048823C4
:101A600029F40E94CA1D80E00E948C170E94221651
:101A70008091D404882341F5112369F48091D30423
:101A8000882369F08091D80480FF09C081E00E941A
:101A90008C1711E019C08091D304882351F08091F4
:101AA000D304882359F0112349F08091D80480FD94
:101AB00005C080E00E948C1710E006C02D9A812F8F
:101AC00090E00E946F162D988091D5049091D604D5
:101AD000892BD1F765CF0F931F93CF93DF93182FE7
:101AE000062F8091C704882371F584E761E00E9486
:101AF000C01D1C3010F080E501C081E460E00E9450
:101B000057198DE460E00E94571980E561E00E945A
:101B1000C01D812F90E047966CE070E00E9427275F
:101B2000EC018930910524F09C012F5F822F10C0B9
:101B300080E260E00E9457199E012F5C822F602F87
:101B40000E94571908C080E561E00E94C01D812FE6
:101B5000602F0E949208DF91CF911F910F910895FD
:101B60000F931F93CF93DF93082F162F8091C704F5
:101B70008823D1F4802F90E047966CE070E00E94BB
:101B80002727EC018930910524F09C012F5F822FDB
:101B900014C080E260E00E9457199E012F5C822FE2
:101BA000612F0E9457190CC080E260E00E94571913
:101BB00080E260E00E945719802F612F0E949208F6
:101BC000DF91CF911F910F9108951F93182F88E0F7
:101BD00064E00E94C01D81E091E060E00E948F19E6
:101BE0008091D104882339F48091C704882319F4A3
:101BF0008AE091E020C08091D104882339F480915B
:101C0000C704813019F487E191E015C08091D104B7
:101C1000813039F48091C704882319F484E291E07B
:101C20000AC08091D104813049F48091C704813089
:101C300029F481E391E0612F0E948F191F9108958B
:101C4000EF92FF920F931F93F82E162FE42E022F80
:101C500088E063E00E94C01D8EE391E060E00E9496
:101C60008F198091D1048823B1F484E491E060E07D
:101C70000E948F1960E00B3009F461E08F2D0E9403
:101C800092088FE260E00E94571960E00C3009F47E
:101C900061E0812F19C08091D1048130D9F484E4AE
:101CA00091E060E00E948F1960E00C3009F461E07F
:101CB000812F0E9492088FE260E00E94571960E035
:101CC0000B3009F461E08F2D0E9492088FE260E0F2
:101CD0000E94571910E00D3009F411E084E1612FE2
:101CE0000E9492088E2D612F0E9492081F910F91E1
:101CF000FF90EF900895809174048F5F8093740437
:101D00000E94CA1D80E060E00E94C01D8AE491E04C
:101D100060E00E948F1988E061E00E94C01D8DE59F
:101D200091E060E00E948F198091D20460E00E94EF
:101D30006B0D8AE360E00E9457198091C90460E04E
:101D40000E94920888E062E00E94C01D8AE691E04D
:101D500060E00E948F198091C50460E00E94B00D80
:101D60008AE360E00E9457198091CE0460E00E94EF
:101D700092088AE360E00E9457198091D80460E0DD
:101D80000E9492088091C704882371F480E260E089
:101D90000E9457198091C5048C3010F080E501C075
:101DA00081E460E00E9457198091D7046091CD04CE
:101DB0004091C80425E00E94200E80E090E00E943F
:101DC000E50D88E065E00E94C01D85E791E060E0D8
:101DD0000E948F198091B40060E00E94920880E018
:101DE00066E00E94C01D85E891E060E00E948F19C6
:101DF00080E067E00E94C01D8BE991E060E00E94F6
:101E00008F19809174048150809374040895BF9257
:101E1000CF92DF92EF92FF920F931F93CF93DF93B6
:101E20001091C504D090CE04F090D8040E947B0E8F
:101E3000809174048F5F8093740480E063E147E0D5
:101E40000E94FE0B809174048150809374048AE098
:101E50008093730403E08AE0B82EC8ECD0E0809150
:101E6000760480FD69C180917604882321F48091F5
:101E70007704882319F0B092730407C0809173042B
:101E8000882319F41092D40457C18091760481FFFD
:101E9000DAC010927604809174048F5F809374048A
:101EA000033081F584E462E00E94C01D812F61E06F
:101EB0000E94B00D84E762E00E94C01D8091C704BB
:101EC000882361F480E260E00E9457191C3010F012
:101ED00080E501C081E461E00E94571980E066E07E
:101EE0000E94C01D8CEA91E060E00E948F1980E0A2
:101EF00067E00E94C01D82EC91E060E00E948F19B3
:101F000005E69CC00536C1F584E462E00E94C01D70
:101F1000812F60E00E94B00D8AE360E00E945719B3
:101F20008D2D61E00E94920880E066E00E94C01D55
:101F300088ED91E060E00E948F1980E067E00E94E8
:101F4000C01D8EEE91E060E00E948F1984E762E090
:101F50000E94C01D8091C704882361F480E260E084
:101F60000E9457191C3010F080E501C081E460E048
:101F70000E94571906E662C0063651F58091C704E3
:101F8000882311F486E501C082E662E00E94C01D4C
:101F90008D2D60E00E9492088AE360E00E9457194C
:101FA0008F2D61E00E94920880E066E00E94C01DD3
:101FB00084E092E060E00E948F1980E067E00E9478
:101FC000C01D8AE192E060E00E948F1907E636C0EA
:101FD0008091C704882311F488E601C084E762E099
:101FE0000E94C01D8F2D60E00E94920880E066E094
:101FF0000E94C01D85E891E060E00E948F1980E09A
:1020000067E00E94C01D8BE991E060E00E948F199B
:102010001093C504D092CE04F092D8048091D804D5
:102020006091CE044091C5040091CD04E090D704A6
:10203000C090C80420E00E94A90803E080917404C5
:102040008150809374048091760482FD04C0809155
:10205000770482FF04CF10927604809174048F5F1E
:1020600080937404053649F5812F90E0019668E16C
:1020700070E00E942727182F8093C50484E462E053
:102080000E94C01D812F61E00E94B00D84E762E0D4
:102090000E94C01D8091C7048823E9F580E260E0BA
:1020A0000E9457198091C5048C3010F080E501C062
:1020B00081E461E00E9457192EC00636A1F48D2DEF
:1020C00090E001966CE370E00E942727D82E809163
:1020D000C704882311F486E501C082E662E00E940D
:1020E000C01D8D2D15C00736B1F48F2D90E00196DF
:1020F0006CE370E00E942727F82E8091C7048823A4
:1021000011F488E601C084E762E00E94C01D8F2DB3
:1021100061E00E949208809174048150809374045D
:102120008091770482FF9BCE80ED97E0FE0131978E
:10213000F1F70197D9F793CEDF91CF911F910F91CE
:10214000FF90EF90DF90CF90BF9008950F931F9373
:10215000CF93DF930E947B0E809174048F5F8093F6
:10216000740480E06BE047E00E94FE0B80917404F1
:102170008150809374048AE08093730414E00AE031
:10218000C8ECD0E08091760480FDDBC080917604BD
:10219000882321F480917704882319F00093730435
:1021A00007C080917304882319F41092D404C9C025
:1021B0008091760481FF74C010927604809174043B
:1021C0008F5F809374041430C9F48091D20461E06D
:1021D0000E946B0D80E066E00E94C01D8CEA91E0D9
:1021E00060E00E948F1980E067E00E94C01D82ECD1
:1021F00091E060E00E948F1915E64DC0153631F56B
:1022000080E561E00E94C01D8091D20460E00E94E0
:102210006B0D82E661E00E94C01D8091C90461E0FF
:102220000E94920880E066E00E94C01D88ED91E067
:1022300060E00E948F1980E067E00E94C01D8EEE72
:1022400091E060E00E948F1916E625C080E561E00C
:102250000E94C01D8091D20460E00E946B0D82E656
:1022600061E00E94C01D8091C90460E00E94920854
:1022700080E066E00E94C01D85E891E060E00E9479
:102280008F1980E067E00E94C01D8BE991E060E05B
:102290000E948F1914E0809174048150809374041B
:1022A0008091760482FD04C08091770482FF6ACF1A
:1022B00010927604809174048F5F809374041536B5
:1022C000A1F48091D20490E0019668E170E00E9450
:1022D00027278093D2048091D20461E00E946B0D85
:1022E0006091D20481E090E019C01636C9F4809163
:1022F000C90490E001966CE370E00E942727809368
:10230000C90482E661E00E94C01D8091C90461E0B9
:102310000E9492086091C90482E090E00E94B62772
:10232000809174048150809374048091770482FFBB
:1023300029CF80ED97E0FE013197F1F70197D9F7AA
:1023400021CFDF91CF911F910F9108950F931F938C
:102350000E947B0E809174048F5F8093740480E0F0
:1023600063E247E00E94FE0B8091740481508093E9
:1023700074048AE08093730418E00AE08091760484
:1023800080FDA8C080917604882321F48091770491
:10239000882319F00093730407C080917304882385
:1023A00019F41092D40496C08091760481FF3BC04A
:1023B00010927604809174048F5F809374041830B7
:1023C000B9F481E00E94E50D80E066E00E94C01D46
:1023D00080E392E060E00E948F1980E067E00E9455
:1023E000C01D86E492E060E00E948F1918E616C0D6
:1023F00080E00E94E50D80E066E00E94C01D85E857
:1024000091E060E00E948F1980E067E00E94C01DAB
:102410008CE592E060E00E948F1918E080917404CE
:102420008150809374048091760482FD04C0809171
:10243000770482FFA3CF10927604183609F09ECF5E
:102440008091C704882359F08091D1048F5F8093D5
:10245000D1048091D104823010F01092D104809187
:10246000C70490E0882309F491E09093C704809119
:1024700074048F5F809374040E947B0E80E066E09A
:102480000E94C01D80E392E060E00E948F1980E00E
:1024900067E00E94C01D86E492E060E00E948F1910
:1024A00080E063E247E00E94FE0B81E00E94E50DC0
:1024B000809174048150809374046091D10485E00C
:1024C00090E00E94B6276091C70486E090E00E94E9
:1024D000B62754CF1F910F9108950F931F930E9419
:1024E0007B0E809174048F5F8093740480E066E0BB
:1024F0000E94C01D82E792E060E00E948F1980E098
:102500006BE247E00E94FE0B80917404815080933F
:1025100074048AE08093730416E00AE080917604E4
:1025200080FDA8C080917604882321F480917704EF
:10253000882319F00093730407C0809173048823E3
:1025400019F41092D40496C08091760481FF47C09C
:1025500010927604809174048F5F80937404163017
:10256000E9F482E665E00E94C01D8091B40061E05C
:102570000E94920880E066E00E94C01D88E892E018
:1025800060E00E948F1980E067E00E94C01D8DE925
:1025900092E060E00E948F1919E61CC082E665E0B7
:1025A0000E94C01D8091B40060E00E94920880E00B
:1025B00066E00E94C01D82EB92E060E00E948F19ED
:1025C00080E067E00E94C01D85EC92E060E00E9420
:1025D0008F1916E080917404815080937404809167
:1025E000760482FD04C08091770482FF97CF109219
:1025F0007604193609F092CF8091B4008F5F8093F2
:10260000B4008091B400813110F01092B400809138
:1026100074048F5F809374040E947B0E80E066E0F8
:102620000E94C01D80E392E060E00E948F1980E06C
:1026300067E00E94C01D86E492E060E00E948F196E
:1026400080E06BE247E00E94FE0B82E665E00E94BC
:10265000C01D8091B40061E00E94920880917404D2
:102660008150809374046091B40083E090E00E94F4
:10267000B62754CF1F910F910895BF92CF92DF924A
:10268000EF92FF920F931F93CF93DF93F090CD04BF
:102690001091D704D090C8040E947B0E80917404DE
:1026A0008F5F8093740480E06BE147E00E94FE0B33
:1026B000809174048150809374048AE08093730441
:1026C00005E04AE0B42EC8ECD0E08091760480FDAD
:1026D00087C180917604882321F480917704882330
:1026E00019F0B092730407C080917304882319F421
:1026F0001092D40475C18091760481FFDFC01092DE
:102700007604809174048F5F809374040530F1F433
:102710008091D104882309F451C08091D104823082
:1027200009F44CC08091D104843009F447C08091F1
:10273000D104853009F442C08091D1048130C9F0C0
:102740008091D104833009F086C013C00B3059F555
:102750008091D104882369F08091D104823049F0BE
:102760008091D104843029F08091D104853009F022
:1027700050C0812F6F2D4D2D2CE00E94200E80E047
:1027800066E00E94C01D85E093E060E00E948F1922
:1027900080E067E00E94C01D8BE193E060E00E9452
:1027A0008F190CE086C00C3009F055C08091D1041F
:1027B000813021F08091D1048330D1F4812F6F2DAD
:1027C0004D2D2BE00E94200E80E066E00E94C01D8F
:1027D00089ED92E060E00E948F1980E067E00E943E
:1027E000C01D8FEE92E060E00E948F190BE061C087
:1027F0008091D1048823A9F08091D104823089F09E
:102800008091D104843069F08091D104853019F52C
:1028100008C08091D104813021F08091D1048330AF
:10282000D1F4812F6F2D4D2D2DE00E94200E80E0E0
:1028300066E00E94C01D81E393E060E00E948F1972
:1028400080E067E00E94C01D87E493E060E00E94A2
:102850008F190DE02EC0812F6F2D4D2D25E00E9488
:10286000200E80E066E00E94C01D85E891E060E0F7
:102870000E948F1980E067E00E94C01D8BE991E003
:1028800060E00E948F19D092C8041093D704F09290
:10289000CD048091D8046091CE044091C50400918C
:1028A000CD04E090D704C090C80420E00E94A9089D
:1028B00005E08091740481508093740480917604C3
:1028C00082FD04C08091770482FFFFCE10927604CF
:1028D000809174048F5F809374040B3089F51F5FBF
:1028E0001D3010F011E027C01230C1F48D2D90E0A2
:1028F0000E945B08882331F08DE18F1518F43DE1CB
:10290000F32E19C08D2D90E00E945B08882399F466
:102910008CE18F1580F42CE1F22E0DC0143031F0D3
:10292000163021F0193011F01B3029F48EE18F158B
:1029300010F49EE1F92E812F6F2D4D2D2BE03DC01F
:102940000C3069F5F3948FE18F1510F4FF24F394A4
:10295000123099F48D2D90E00E945B08882319F0C5
:102960008DE18F15A8F08D2D90E00E945B088823E3
:1029700089F48CE18F1560F00DC0143031F0163001
:1029800021F0193011F01B3029F48FE1F81611F401
:10299000FF24F394812F6F2D4D2D2CE00EC00D30B0
:1029A00071F48D2D90E0019664E670E00E94272777
:1029B000D82E812F6F2D4D2D2DE00E94200E80915D
:1029C00074048150809374048091770482FF7DCEDB
:1029D00080ED97E0FE013197F1F70197D9F775CEB9
:1029E000DF91CF911F910F91FF90EF90DF90CF90EB
:1029F000BF90089526982E9A81E080936800EBE6B8
:102A0000F0E080818064808382E080937C0010927B
:102A10007B00EAE7F0E08EE8808380818064808339
:102A2000089580917A00877F80937A0080917A0060
:102A3000806480937A0080917A0084FFFCCF20919B
:102A4000780030917900C90108951F920F920FB656
:102A50000F9211242F938F939F93789480917800F5
:102A60009091790022E0803E920728F0109277043E
:102A700010927504B4C022E08336920708F453C064
:102A80008091750482FDABC080E29EE40197F1F76E
:102A900080917A00877F80937A0080917A008064A9
:102AA00080937A0080917A0084FFFCCF8091780037
:102AB00090917900825692408E37910508F08FC030
:102AC00082E08093780422C080917A00877F80938F
:102AD0007A0080917A00806480937A0080917A00F5
:102AE00084FFFCCF809178009091790082569240CB
:102AF0008E37910558F0809175048B7F8093750413
:102B00008091760484608093760469C08091780413
:102B10008823D1F680917504846080937504809138
:102B2000770484605AC08F50914068F18091750499
:102B300081FD20C080E29EE40197F1F780917A0048
:102B4000877F80937A0080917A00806480937A00F6
:102B500080917A0084FFFCCF809178009091790079
:102B60008E50914085559140D0F5809176048260D9
:102B700080937604809175048260809375048091BF
:102B8000770482602AC08091750480FD1EC080E2B7
:102B90009EE40197F1F780917A00877F80937A0015
:102BA00080917A00806480937A0080917A0084FF1B
:102BB000FCCF80917800909179008F50914078F40B
:102BC00080917604816080937604809175048160A1
:102BD000809375048091770481608093770480915D
:102BE0007A00886480937A009F918F912F910F9043
:102BF0000FBE0F901F9018951F920F920FB60F9255
:102C000011242F933F934F935F936F937F938F93F1
:102C10009F93AF93BF93EF93FF9378940E943208F2
:102C2000FF91EF91BF91AF919F918F917F916F91A4
:102C30005F914F913F912F910F900FBE0F901F907A
:102C4000189508950895CF93DF93C82FD0E0E42F0F
:102C5000F0E0E053F84F833010F42C963197262F94
:102C600030E02F5F3F4F2E0F3F1FCE01880F991F7F
:102C7000280F391FCF019695879596958795280F30
:102C8000391FCF0160E971E00E941327260F371F1B
:102C9000CF0164E670E00E941327261B370BAE01BC
:102CA0004F5F5F4FCA01880F991F840F951F880FD0
:102CB000991F6AE070E00E941327C901860F971FD1
:102CC00067E070E00E941327DF91CF91089520E024
:102CD000442309F421E044E00E94C51A0895DF92DC
:102CE000EF92FF920F931F9380916B04833029F42E
:102CF000E090D204D090C90411C080916B0482305E
:102D000049F48091C80464E60E940727D92E04E1A3
:102D1000E02E04C0E090C504D090CE048091C7049A
:102D2000882369F480916B04823049F08E2D90E005
:102D300047966CE070E00E942727E82EE3948E2DE2
:102D40006AE00E9407271DE7F12E8F9DC001112424
:102D500080579F4F63E070E040E050E029E130E0B1
:102D600005E010E00E94A0198E2D6AE00E9407275E
:102D70009F9DC001112480579F4F6FE170E040E09C
:102D800050E029E130E00E94A0198D2D6AE00E94F8
:102D900007278F9DC001112480579F4F68E470E082
:102DA00040E050E029E130E00E94A0198D2D6AE05A
:102DB0000E9407279F9DC001112480579F4F64E602
:102DC00070E040E050E029E130E00E94A0198091DD
:102DD000D7046091CD044091C8040E9423169DE859
:102DE000899FC00111248E589A4F61E070E045E040
:102DF00050E02FE230E003E010E00E94A019809143
:102E0000D104882329F4E090D704D090CD0404C0E5
:102E1000E090CD04D090D7048E2D6AE00E94072761
:102E2000BAE2FB2E8F9DC0011124835B964F6BE3AA
:102E300070E045E050E02EE030E003E010E00E945A
:102E4000A0198E2D6AE00E9407279F9DC0011124C2
:102E5000835B964F6BE470E045E050E02EE030E09D
:102E60000E94A0198BE568E344E022E001E00E94A3
:102E7000D5198CE567E342E024E00E94D5198D2D39
:102E80006AE00E9407278F9DC0011124835B964F43
:102E900061E670E045E050E02EE030E003E010E055
:102EA0000E94A0198D2D6AE00E9407279F9DC001F6
:102EB0001124835B964F61E770E045E050E02EE01F
:102EC00030E00E94A01980916904882399F08091D4
:102ED000D80480FF0FC080916B04823059F080E4E9
:102EE0006FE044E021E00E94C51A80E46EE144E016
:102EF00021E00AC080E46FE044E020E00E94C51AAF
:102F000080E46EE144E020E00E94C51A1F910F9119
:102F1000FF90EF90DF9008950F93082F80E060E01E
:102F200040E820E40E94D5190F9108959093C500C0
:102F30008093C40088E18093C1008EE08093C2003A
:102F4000519A5098089506C090E000009F5F9E310E
:102F5000E1F781508823C1F7089548EC50E009C09B
:102F600020E137E2FA013197F1F721503040D1F7F3
:102F700081508823A9F70895982F8091C00085FF7C
:102F8000FCCF9093C60080E090E008958091C0004F
:102F900087FFFCCF8091C60008958091C0008078A3
:102FA0000895AC0120E007C08091C00085FFFCCFF0
:102FB0003093C6002F5FFA01E20FF11D34913323E5
:102FC00099F7662371F08091C00085FFFCCF8AE0FD
:102FD0008093C6008091C00085FFFCCF8DE0809378
:102FE000C6000895FC0107C08091C00085FFFCCF9A
:102FF00031969093C60090819923B1F70895282FB8
:10300000982F92959F709A3030F48091C00085FF80
:10301000FCCF905D05C08091C00085FFFCCF995A20
:103020009093C600822F90E08F7090700A973CF4C6
:103030008091C00085FFFCCF2F70205D06C080917D
:10304000C00085FFFCCF2F70295A2093C600089539
:103050001F93182F892F0E94FF17812F0E94FF179F
:103060001F910895EF92FF920F931F937B018C01A4
:10307000C801AA27BB270E942818C7010E94281848
:103080001F910F91FF90EF9008950F931F93CF938F
:10309000DF938C01E0E1F7E240E0C0E0D0E0C8015E
:1030A000BF010E941327262F662329F4442319F415
:1030B000E130F10549F48091C00085FFFCCF205D2F
:1030C0002093C600205341E0CF016AE070E00E94E7
:1030D00013272196C530D10571F0822F90E09C0115
:1030E0002E9FC0012F9F900D3E9F900D1124081B15
:1030F000190BFB01D4CFDF91CF911F910F91089550
:103100001F93CF93DF93482F87FF08C08091C000A3
:1031100085FFFCCF8DE28093C6004195E4E6F0E0A8
:1031200010E0C0E0D0E0842F992787FD9095BF0183
:103130000E941327262F16162CF0112319F4E130C4
:10314000F10549F48091C00085FFFCCF205D2093FC
:10315000C600205311E0CF016AE070E00E941327FF
:103160002196C330D10531F02E9F802D1124481BAC
:10317000FB01D9CFDF91CF911F9108954F925F92BC
:103180006F927F928F929F92AF92BF92CF92DF9277
:10319000EF92FF920F931F93CF93DF934B015C014C
:1031A000E12C9AECF92E9AE9092F9BE3192F44247C
:1031B000C0E0D0E0C501B401A80197010E943A2700
:1031C000D22E222341F4442031F481E0E816F104A8
:1031D0000105110561F48091C00085FFFCCF80E3FB
:1031E000D80ED092C60080EDD80E44244394C80176
:1031F000B7012AE030E040E050E00E943A27C22EBA
:10320000732E642E552E2196CA30D105A9F06D2D4E
:1032100070E080E090E0A80197010E94E826861AFD
:10322000970AA80AB90A2C2D372D462D552DC9010C
:10323000DA017C018D01BECFDF91CF911F910F91FB
:10324000FF90EF90DF90CF90BF90AF909F908F90C6
:103250007F906F905F904F90089508950F931F9304
:10326000CF93DF93482F30E020E007C08F50954F79
:10327000FC0184918F5F280F3F5F822F90E034170D
:10328000A8F3FC01EF50F54F0491EC01CE50D54F5F
:1032900010E006C0FE0184910E94671D1F5F219609
:1032A0001017C0F3DF91CF911F910F910895DF9216
:1032B000EF92FF920F931F93CF93DF93D62E95E05B
:1032C000899FC0011124EC01CC59D54F8E0129E60C
:1032D000E22E2AE0F22EE80EF91EDD2021F0FE019A
:1032E0008491809502C0F80184910E94671D219607
:1032F0000F5F1F4FCE15DF0581F7DD2011F08FEF37
:1033000001C080E00E94671D80E00E94B31DDF9134
:10331000CF911F910F91FF90EF90DF9008951F9331
:10332000CF93DF93EC01162F04C0612F0E94571931
:10333000219688818823C9F7DF91CF911F91089545
:103340009F92AF92BF92CF92DF92EF92FF920F9334
:103350001F93CF93DF937C01962EA42EB22E10E004
:10336000C22EDD2414C0612F6A0D892D0E94C01D5C
:10337000E70106C0FE012196E4918E2F0E94671D91
:103380009E012E192B15B0F3EC0CFD1C1F5F1017BE
:1033900050F3DF91CF911F910F91FF90EF90DF904D
:1033A000CF90BF90AF909F9008952F923F924F92F1
:1033B0005F926F927F928F929F92AF92BF92CF92C5
:1033C000DF92EF92FF920F931F93CF93DF93282EFC
:1033D000162F342EF22E402EC62FD0E0C770D0709C
:1033E000209709F45BC0562E569456945694EE24BA
:1033F00067E0C62EC1228C2C992487FC90945E0134
:10340000A20EB11C51E0652E712C35C0DE2CD20C01
:103410008D2D652D0E94C01D0E941A1D0E941A1D2F
:10342000082F40E050E015C081E0481641F4C30188
:1034300002C0880F991F2A95E2F7082B08C0C30124
:1034400002C0880F991F2A95E2F7809508234F5FE5
:103450005F4F9A01280D391D2A153B0524F48C2D48
:10346000840F883009F78D2D652D0E94C01D802F97
:103470000E94671DE394E31448F22F2D30E088E0AA
:1034800090E08C1B9D0B8217930714F0FF2404C05F
:10349000812F87708850F80E187F185FE12EE69410
:1034A000E694E694C12FD0E0CF0DD11D43E0D59531
:1034B000C7954A95E1F712C0822D6E2D0E94C01D5E
:1034C00010E009C081E0481611F48FEF01C080E0E0
:1034D0000E94671D1F5F1315A8F3E3948E2D90E0E3
:1034E0008C179D074CF32F2D2770C9F100E0C22FD8
:1034F000D0E031E0A32EB12C30C0F02EF20C8F2D95
:103500006E2D0E94C01D0E941A1D0E941A1D182FA8
:1035100020E030E017C081E0481649F4C501022ED2
:1035200002C0880F991F0A94E2F7182B09C0C50141
:10353000022E02C0880F991F0A94E2F78095182383
:103540002F5F3F4F2C173D0734F38F2D6E2D0E94B8
:10355000C01D812F0E94671D0F5F031570F280E070
:103560000E94B31DDF91CF911F910F91FF90EF90BB
:10357000DF90CF90BF90AF909F908F907F906F9093
:103580005F904F903F902F9008952F923F924F92CF
:103590005F926F927F928F929F92AF92BF92CF92E3
:1035A000DF92EF92FF920F931F93DF93CF9300D0A0
:1035B0000F92CDB7DEB7382E462E522E262E281A61
:1035C000A42EBB24C501880F991F22273327281B4F
:1035D000390B2D5F3F4F3B832A838824992466242F
:1035E0007724362F32193983182DD42CDA18750127
:1035F000EE0CFF1C882D830D6D2D41E02E2D052D29
:103600000E94D519832D88196D2D41E02E2D0E9421
:10361000D519F42CF818110F89818A0D6F2D41E00E
:10362000212F0E94D5198D2D82196F2D41E0212F58
:103630000E94D5198A819B8197FF06C00696860D48
:10364000971D9B838A8311C0EA81FB813A96C4014E
:103650008A199B09880F991F880F991FE80FF91F76
:10366000FB83EA830894A108B1080894811C911C8B
:1036700024E030E0620E731EA814B9040CF0B4CF3D
:103680000F900F900F90CF91DF911F910F91FF90AE
:10369000EF90DF90CF90BF90AF909F908F907F90F2
:1036A0006F905F904F903F902F900895DF92EF9230
:1036B000FF920F931F93F82E162FD42EE22E41E087
:1036C00001E00E94D5198F2D81508D0D612F41E0B1
:1036D0002E2D0E94D5198F2D612F4D2D21E00E9496
:1036E000D51911501E0D8F2D612F4D2D21E00E94F7
:1036F000D5191F910F91FF90EF90DF900895EF92F1
:10370000FF920F931F93F82E162F062F06950695FE
:103710000695602F0E94C01D0E941A1D0E941A1D4E
:10372000E82E8F2D602F0E94C01D177081E090E061
:1037300002C0880F991F1A95E2F780958E210E948A
:10374000671D80E00E94B31D1F910F91FF90EF90C5
:103750000895EF92FF920F931F93F82E162F062FC6
:10376000069506950695602F0E94C01D0E941A1DA1
:103770000E941A1DE82E8F2D602F0E94C01D177009
:1037800081E090E002C0880F991F1A95E2F78E2918
:103790000E94671D80E00E94B31D1F910F91FF9052
:1037A000EF9008953F924F925F926F927F928F9227
:1037B0009F92AF92BF92CF92DF92EF92FF920F93C0
:1037C0001F93CF93DF93D82EC62E322E462E481A43
:1037D000E42EFF24C701880F991FCC27DD27C81BC3
:1037E000D90B23965D2C662E762EAA24BB24882422
:1037F000992481E0381641F50E2D0C0D8D2D602F8A
:103800000E94A91B9C2D9E19192F8D2D692F0E9496
:10381000A91B852D602F0E94A91B852D612F0E9459
:10382000A91B0419802F662D0E94A91B802F672DCC
:103830000E94A91B1419812F662D0E94A91B812F9C
:10384000672D0E94A91B27C00E2D0C0D8D2D602FFA
:103850000E947F1B8C2D8E19182F8D2D612F0E9499
:103860007F1B852D602F0E947F1B852D612F0E945D
:103870007F1B0419802F662D0E947F1B802F672DD0
:103880000E947F1B1419812F662D0E947F1B812FA0
:10389000672D0E947F1BD7FF04C02696C80DD91D37
:1038A0000DC02A96C5018E199F09880F991F880F90
:1038B000991FC80FD91F0894E108F1080894A11CAA
:1038C000B11C84E090E0880E991ED3945A946394BE
:1038D0007A94EA14FB040CF08CCFDF91CF911F9106
:1038E0000F91FF90EF90DF90CF90BF90AF909F909F
:1038F0008F907F906F905F904F903F9008952F989A
:103900002D982C9840985A98279A259A249A389A54
:10391000529A8BB18F708BB985B1807F85B98AB18E
:10392000806F8AB984B18F6084B9089540985A989D
:10393000882319F0813021F402C0409A08955A9AE0
:103940000895F8940E94961C8BB1806F8BB985B155
:103950008F6085B92F988AB18F708AB984B1807FC2
:1039600084B92D9A2C9A000000000AC02C980000FF
:103970000000000000002C9A000000000000000081
:1039800089B193B187FDF2CF2C982D988AB1806FC1
:103990008AB984B18F6084B9789408951F93162FE3
:1039A000F8940E94A11C2F982D982C9A8AB1806FB0
:1039B0008AB984B18F6084B98BB18F708BB99BB198
:1039C000812F807F892B8BB985B1807F85B985B1A7
:1039D0001F70812B85B9000000000000000000006E
:1039E0000000000000002C9878941F910895F8942E
:1039F0000E94A11C2F988AB18F708AB984B1807FF0
:103A000084B92D9A2C9A00000000000000000000EC
:103A100000000000000029B183B12C982D989AB1C4
:103A2000906F9AB994B19F6094B978948F70207F09
:103A3000822B0895F8948091DB0482958695869573
:103A400083700E94A11C2F9A8AB18F708AB984B1A9
:103A5000807F84B92D9A2C9A00000000000000009D
:103A6000000000000000000099B183B12C982D984F
:103A700078948F70907F892B089508958093DB044C
:103A800080E060E40E94CE1C1092DD0481E060E4DE
:103A90000E94CE1C1092DF048091DB04682F6F73AC
:103AA000606482958695869583700E94CE1C0895E9
:103AB0001F93182F8093DC04186B80E0612F0E9405
:103AC000CE1C81E0612F0E94CE1C1F9108950F93A0
:103AD0001F93182F0091DB0402950695069503703D
:103AE000F894802F0E94A11C2F9A2D982C9A8AB1AD
:103AF000806F8AB984B18F6084B98BB18F708BB9B4
:103B00009BB1812F807F892B8BB985B1807F85B94F
:103B100085B11F70812B85B90000000000000000F6
:103B200000000000000000002C987894E02FF0E0E6
:103B3000EE0FFF1FE352FB4F80818F5F80838091E8
:103B4000DB048F5F8093DB0487FF0AC08091DC0475
:103B50008F5F8093DC040E94581D80E00E943E1D10
:103B60001F910F9108951F93182F106C80E0612F03
:103B70000E94CE1C81E0612F0E94CE1C1F910895EF
:103B80001F93182F862F0E94581D812F0E943E1DC3
:103B90001F9108950F931F9300E080E0602F0E9413
:103BA000C01D10E080E00E94671D1F5F1038D1F734
:103BB0000F5F083091F71F910F91089580E00E94E8
:103BC000B31D80E060E00E94C01D1092DD041092E1
:103BD000DE041092DF041092E00408950E947F1C1E
:103BE00080E06FE30E94CE1C81E06FE30E94CE1C58
:103BF0000E94CA1D0E94DE1D0895982F86E0689FCE
:103C0000802D1124692F0E94C01D08950895459AA2
:103C1000449A1092C2041092C1041092C4041092EB
:103C2000C30480E28093B800ECEBF0E08081846014
:103C3000808310927B048081816080838081806496
:103C400080837894089580E28093B800089590E08E
:103C5000611191E08E7F982B9093BA000895909314
:103C6000C2048093C10408959093C4048093C30454
:103C70000895ECEBF0E080818F70806A8083089576
:103C8000ECEBF0E080818F70806D808308958091EF
:103C9000BC0087FFFCCF08958093BB00ECEBF0E005
:103CA00080818F70806880830895882329F08091B7
:103CB000BC008F70806C04C08091BC008F708068E5
:103CC0008093BC0008958091BB0008958091B90055
:103CD0000895982F80917B048823E1F782E08093F8
:103CE0007B049E7F90937C04ADE7B4E0FA0102C0B0
:103CF00081918D938E2F841B8617D0F310929D0493
:103D000060939E048091BC008F70806A8093BC0099
:103D10000895982F80917B048823E1F783E08093B6
:103D20007B04916090937C041092BF046093C00464
:103D30008091BC008F70806A8093BC0080917B046E
:103D40008823E1F7AFE9B4E0FA0102C08D918193D5
:103D50008E2F841B8617D0F30895982FFA01809137
:103D6000BC008E7F8093BC008091BC008F70806A05
:103D70008093BC008091BC0087FFFCCF9E7F909316
:103D8000BB008091BC008F7080688093BC008091E4
:103D9000BC0087FFFCCF8091B900883189F091E0A9
:103DA00012C080818093BB008091BC008F708068BE
:103DB0008093BC008091BC0087FFFCCF319661509E
:103DC000662379F790E08091BC008F70806D8093BE
:103DD000BC008091BC0084FFFCCF8091BC0081605E
:103DE0008093BC00892F0895982FFA018091BC0020
:103DF0008E7F8093BC008091BC008F70806A80931E
:103E0000BC008091BC0087FFFCCF91609093BB0009
:103E10008091BC008F7080688093BC008091BC0052
:103E200087FFFCCF8091B900803481F091E01EC003
:103E30008091BC008F70806C8093BC008091BC002E
:103E400087FFFCCF8091BB0081936150623080F787
:103E50008091BC008F7080688093BC008091BC0012
:103E600087FFFCCF8091BB00808390E08091BC00F5
:103E70008F70806D8093BC008091BC0081608093C6
:103E8000BC00892F089580917B0408951F920F92A2
:103E90000FB60F9211242F933F934F935F936F931D
:103EA0007F938F939F93AF93BF93EF93FF938091F3
:103EB000B900887F883609F4CCC0893688F580330C
:103EC00009F495C08133B0F4803109F45AC08131CE
:103ED00038F4882309F43CC1883009F046C151C048
:103EE000803209F484C0883209F453C0883109F063
:103EF0003CC14FC0883409F47AC0893438F488331F
:103F000009F478C0803409F030C192C0883509F4D2
:103F10005DC0803609F49DC0803509F026C174C0AB
:103F2000803A09F4BCC0813AB0F4803809F49CC0EE
:103F3000813838F4803709F48CC0883709F015C10E
:103F400088C0803909F490C0883909F4A2C0883843
:103F500009F00BC19EC0883B09F4CFC0893B38F4FF
:103F6000883A09F4B4C0803B09F0FFC0B0C0883C77
:103F700009F4DEC0883F09F4E5C0803C09F0F5C0D3
:103F8000D7C081E39EE060E00E94D11780917C045D
:103F900014C082E19EE060E00E94D11790919D04E0
:103FA00080919E04981708F0D8C0E92FF0E0E358FC
:103FB000FB4F80819F5F90939D048093BB00809115
:103FC000BC008F7080688093BC00CFC08DEF9DE0F7
:103FD00060E00E94D1178091BF049091BB00E82F50
:103FE000F0E0E156FB4F90838F5F8093BF0487ED35
:103FF0009DE0B0C083EC9DE060E00E94D11780910D
:10400000BC008F708068ADC08FEA9DE060E00E94C8
:10401000D1178091BB009091BF04E92FF0E0E156E9
:10402000FB4F80839F5F9093BF0490E00E9428180D
:104030008CE99DE060E00E94D1172091BF0430E040
:104040008091C00490E00197281739070CF0B7CF92
:104050006AC089E89DE060E00E94D11785E0809306
:104060007B041092BF045FC085E79DE060E00E9482
:10407000D1178091BF049091BB00E82FF0E0E1568A
:10408000FB4F90838F5F8093BF04803208F097CFFF
:104090004AC080E69DE060E00E94D11790CF8DE499
:1040A0009DE060E00E94D1178091BC008F70806C11
:1040B0008093BC00E091C104F091C204309709F4F0
:1040C00052C08091BF046FE974E009954CC08AE347
:1040D0009DE060E00E94D11784E080937B04E09132
:1040E000C304F091C404309731F080E26DE774E0CE
:1040F000099580939E0410929D0486E29DE060E005
:104100000E94D11790919D04E92FF0E0E358FB4FF6
:1041100080818093BB009F5F90939D0480919E045B
:10412000981708F04CCF8091BC008F70806C4BCFFB
:1041300084E09DE060E00E94D1178091BC008F7008
:10414000806C0FC085EF9CE060E00E94D1170DC02D
:1041500084EE9CE060E00E94D1178091BC008F70DB
:10416000806D8093BC0010927B04FF91EF91BF9112
:10417000AF919F918F917F916F915F914F913F91FF
:104180002F910F900FBE0F901F901895EF92FF92F6
:104190000F931F937B018C0120E030E040E05FE44F
:1041A0000E94C62388238CF0C801B70120E030E0CC
:1041B00040E05FE40E943E220E9426249B01AC0165
:1041C000205030404040504806C0C801B7010E940E
:1041D00026249B01AC01B901CA011F910F91FF90E8
:1041E000EF900895A0E0B0E0E8EFF0E20C947727BC
:1041F000DC012B01FA019C91923008F439C1EB01EA
:104200008881823008F433C1943069F4843009F035
:104210002FC111969C9111978981981709F428C193
:10422000ADE5B3E025C1843009F421C18230A9F4A1
:10423000923009F01DC19A01AD0188E0EA010990B0
:10424000AE01E90109929E018150C1F7E201898125
:1042500011969C918923818308C1923009F407C18A
:1042600012962D903C901397EB018A819B811496B6
:10427000AD90BD90CD90DC901797EC80FD800E81C5
:104280001F819101281B390BB90137FF04C0662734
:104290007727621B730B603271050CF061C0121638
:1042A00013066CF537014801062E04C096948794D6
:1042B000779467940A94D2F721E030E040E050E030
:1042C00004C0220F331F441F551F6A95D2F7215097
:1042D0003040404050402E213F21402351232115A2
:1042E00031054105510521F021E030E040E050E08A
:1042F00079018A01E628F728082919293CC0232BCF
:10430000D1F1260E371E35014601062E04C09694C3
:104310008794779467940A94D2F721E030E040E0E4
:1043200050E004C0220F331F441F551F6A95D2F777
:1043300021503040404050402A213B214C215D21FA
:10434000211531054105510521F021E030E040E023
:1043500050E059016A01A628B728C828D9280BC0FF
:10436000821593052CF01C01AA24BB24650103C00F
:10437000EE24FF24870111969C91D20111968C9115
:10438000981709F445C0992339F0A80197012A1913
:104390003B094C095D0906C0A60195012E193F098C
:1043A000400B510B57FD08C01182338222822483B7
:1043B0003583468357831DC081E081833382228207
:1043C00088279927DC01821B930BA40BB50B8483F0
:1043D0009583A683B7830DC0220F331F441F551F3B
:1043E0002483358346835783828193810197938306
:1043F00082832481358146815781DA01C901019781
:10440000A109B1098F5F9F4FAF4FBF4328F30BC086
:10441000918333822282EA0CFB1C0C1D1D1DE48259
:10442000F5820683178383E080832481358146816A
:10443000578157FF1AC0C901AA2797FDA095BA2F27
:1044400081709070A070B0705695479537952795FC
:10445000822B932BA42BB52B84839583A683B783C0
:1044600082819381019693838283DF0101C0D2010F
:10447000CD01CDB7DEB7E2E10C949327A0E2B0E026
:10448000E4E4F2E20C94832769837A838B839C8330
:104490002D833E834F835887E9E0EE2EF12CEC0EFE
:1044A000FD1ECE010196B7010E9417268E010F5EF8
:1044B0001F4FCE010596B8010E9417268A8991E008
:1044C00089278A8BC701B801AE01475E5F4F0E9402
:1044D000F2200E944225A096E6E00C949F27A0E2DD
:1044E000B0E0E5E7F2E20C94832769837A838B835B
:1044F0009C832D833E834F835887F9E0EF2EF12C68
:10450000EC0EFD1ECE010196B7010E9417268E010A
:104510000F5E1F4FCE010596B8010E941726C701F6
:10452000B801AE01475E5F4F0E94F2200E94422513
:10453000A096E6E00C949F27A0E2B0E0E2EAF2E267
:104540000C94772769837A838B839C832D833E83A6
:104550004F835887CE010196BE01675F7F4F0E944F
:104560001726CE010596BE016F5E7F4F0E9417266B
:104570009985923088F089898230C8F0943019F496
:10458000823051F404C0843029F4923081F48DE5F6
:1045900093E0C6C0923049F420E09A858A89981346
:1045A00021E02A87CE010996BBC0823049F420E081
:1045B0009A858A89981321E02A8BCE014196B0C052
:1045C0002D843E844F8458886D887E888F88988C8F
:1045D000EE24FF248701AA24BB24650140E050E0BB
:1045E00060E070E0E0E0F0E0C10181709070892B44
:1045F000E9F0E60CF71C081D191D9A01AB012A0D04
:104600003B1D4C1D5D1D80E090E0A0E0B0E0E61495
:10461000F7040805190520F481E090E0A0E0B0E07F
:10462000BA01A901480F591F6A1F7B1FAA0CBB1CA6
:10463000CC1CDD1C97FE08C081E090E0A0E0B0E05B
:10464000A82AB92ACA2ADB2A3196E032F10549F0B4
:10465000660C771C881C991C5694479437942794B1
:10466000C3CFFA85EA892B893C898B859C85280FE5
:10467000391F2E5F3F4F17C0CA0181709070892B80
:1046800061F016950795F794E79480E090E0A0E03C
:10469000B0E8E82AF92A0A2B1B2B769567955795DF
:1046A00047952F5F3F4F77FDE7CF0CC0440F551F55
:1046B000661F771F17FD4160EE0CFF1C001F111FC6
:1046C00021503040403090E0590790E0690790E475
:1046D000790760F32B8F3C8FDB01CA018F779070D5
:1046E000A070B07080349105A105B10561F447FD5B
:1046F0000AC0E114F1040105110529F0405C5F4F87
:104700006F4F7F4F40781A8EFE1711F081E08A8F2D
:104710004D8F5E8F6F8F78A383E0898FCE0149968E
:104720000E944225A096E2E10C949327A8E1B0E014
:10473000ECE9F3E20C94832769837A838B839C836F
:104740002D833E834F83588789E0E82EF12CEC0EB1
:10475000FD1ECE010196B7010E9417268E010F5E45
:104760001F4FCE010596B8010E9417268985823019
:1047700040F08989823028F0C701B8010E948F2655
:1047800001C08FEF6896E6E00C949F27A8E1B0E0A7
:10479000ECECF3E20C94832769837A838B839C830C
:1047A0002D833E834F83588789E0E82EF12CEC0E51
:1047B000FD1ECE010196B7010E9417268E010F5EE5
:1047C0001F4FCE010596B8010E94172689858230B9
:1047D00040F08989823028F0C701B8010E948F26F5
:1047E00001C08FEF6896E6E00C949F27A8E1B0E047
:1047F000ECEFF3E20C94832769837A838B839C83A9
:104800002D833E834F83588789E0E82EF12CEC0EF0
:10481000FD1ECE010196B7010E9417268E010F5E84
:104820001F4FCE010596B8010E9417268985823058
:1048300040F08989823028F0C701B8010E948F2694
:1048400001C081E06896E6E00C949F27ACE0B0E000
:10485000ECE2F4E20C94872769837A838B839C8350
:10486000CE010196BE016B5F7F4F0E9417268D819E
:10487000823061F1823050F1843021F48E818823BE
:1048800051F12EC02F81388537FD20C06E812F3128
:1048900031051CF06623F9F023C08EE190E0821B05
:1048A000930B29853A854B855C8504C056954795C1
:1048B000379527958A95D2F76623B1F050954095A4
:1048C000309521953F4F4F4F5F4F0EC020E030E0B5
:1048D00040E050E009C02FEF3FEF4FEF5FE704C02B
:1048E00020E030E040E050E8B901CA012C96E2E057
:1048F0000C94A327A8E0B0E0E0E8F4E20C947F2752
:104900007B018C01611571058105910519F482E027
:10491000898360C083E089838EE1C82ED12CDC823C
:10492000CB82ED82FE820F831887C801B7010E94F7
:10493000F324FC013197F7FF3BC0222733272E1BBE
:104940003F0B57016801022E04C0D694C794B79458
:10495000A7940A94D2F740E050E060E070E081E074
:1049600090E0A0E0B0E004C0880F991FAA1FBB1F11
:104970002A95D2F70197A109B1098E219F21A02381
:10498000B1230097A105B10521F041E050E060E0BE
:1049900070E04A295B296C297D294D835E836F83F2
:1049A00078878EE190E08E1B9F0B9C838B8312C0D7
:1049B000309781F00E2E04C0EE0CFF1C001F111F5B
:1049C0000A94D2F7ED82FE820F831887CE1ADF0A8F
:1049D000DC82CB821A82CE0101960E944225289663
:1049E000EAE00C949B27EF92FF920F931F937B01B9
:1049F0008C0180E0E81680E0F80681E0080780E09E
:104A0000180788F48FEFE816F1040105110531F05D
:104A100028F088E090E0A0E0B0E017C080E090E0EF
:104A2000A0E0B0E012C080E0E81680E0F80680E088
:104A3000080781E0180728F088E190E0A0E0B0E0E6
:104A400004C080E190E0A0E0B0E020E230E040E08F
:104A500050E0281B390B4A0B5B0B04C016950795D9
:104A6000F794E7948A95D2F7F701EB59FC4F8081D0
:104A7000281B310941095109C9011F910F91FF906C
:104A8000EF900895DF92EF92FF920F931F93FC0136
:104A9000E480F58006811781D1808081823048F4DE
:104AA00080E090E0A0E1B0E0E82AF92A0A2B1B2B75
:104AB000A5C0843009F49FC0823021F4EE24FF2485
:104AC000870105C0E114F1040105110519F4E0E0C6
:104AD000F0E096C0628173819FEF623879070CF035
:104AE0005BC022E83FEF261B370B2A3131052CF043
:104AF00020E030E040E050E02AC0B801A701022EDB
:104B000004C076956795579547950A94D2F781E04A
:104B100090E0A0E0B0E004C0880F991FAA1FBB1F5F
:104B20002A95D2F70197A109B1098E219F21A023CF
:104B3000B1230097A105B10521F081E090E0A0E04C
:104B4000B0E09A01AB01282B392B4A2B5B2BDA0101
:104B5000C9018F779070A070B07080349105A10565
:104B6000B10539F427FF09C0205C3F4F4F4F5F4F1D
:104B700004C0215C3F4F4F4F5F4FE0E0F0E020303A
:104B8000A0E03A07A0E04A07A0E45A0710F0E1E0ED
:104B9000F0E079018A0127C06038710564F5FB01F6
:104BA000E158FF4FD801C7018F779070A070B070A7
:104BB00080349105A105B10539F4E7FE0DC080E40C
:104BC00090E0A0E0B0E004C08FE390E0A0E0B0E0AF
:104BD000E80EF91E0A1F1B1F17FF05C01695079543
:104BE000F794E794319687E016950795F794E79444
:104BF0008A95D1F705C0EE24FF248701EFEFF0E09E
:104C00006E2F679566276795902F9F77D794DD2441
:104C1000D7948E2F8695492F462B582F5D29B701A3
:104C2000CA011F910F91FF90EF90DF900895FC0152
:104C3000DB01408151812281622F6F7770E0221F5A
:104C40002227221F9381892F880F822B282F30E063
:104C5000991F9927991F11969C931197211531053A
:104C6000A9F5411551056105710511F482E037C0C0
:104C700082E89FEF13969C938E9312979A01AB0153
:104C800067E0220F331F441F551F6A95D1F783E059
:104C90008C930DC0220F331F441F551F12968D9108
:104CA0009C911397019713969C938E9312972030A3
:104CB00080E0380780E0480780E4580758F31496EE
:104CC0002D933D934D935C93179708952F3F310596
:104CD00079F4411551056105710519F484E08C934F
:104CE000089564FF03C081E08C9312C01C9210C031
:104CF0002F57304013963C932E93129783E08C935A
:104D000087E0440F551F661F771F8A95D1F770649F
:104D100014964D935D936D937C93179708951F930D
:104D2000DC01FB019C91923008F447C08081823005
:104D300008F443C0943051F411961C91843099F5D5
:104D40008181682F70E0611B71093FC0843021F0C0
:104D5000923031F48230B9F18181882389F12DC0FC
:104D600011961C9111978230F1F081811817D9F4B6
:104D700012962D913C91139782819381821793070C
:104D800094F028173907BCF014968D919D910D90E1
:104D9000BC91A02D24813581468157812817390780
:104DA0004A075B0718F4112341F00AC082179307E2
:104DB000A407B50740F4112319F061E070E005C0C5
:104DC0006FEF7FEF02C060E070E0CB011F910895AC
:104DD000629FD001739FF001829FE00DF11D649FDF
:104DE000E00DF11D929FF00D839FF00D749FF00D6B
:104DF000659FF00D9927729FB00DE11DF91F639F0C
:104E0000B00DE11DF91FBD01CF0111240895991BBB
:104E100079E004C0991F961708F0961B881F7A95B1
:104E2000C9F780950895AA1BBB1B51E107C0AA1FB3
:104E3000BB1FA617B70710F0A61BB70B881F991F3B
:104E40005A95A9F780959095BC01CD01089597FBDF
:104E5000092E07260AD077FD04D0E5DF06D0002012
:104E60001AF4709561957F4F0895F6F790958195A6
:104E70009F4F0895A1E21A2EAA1BBB1BFD010DC076
:104E8000AA1FBB1FEE1FFF1FA217B307E407F507FA
:104E900020F0A21BB30BE40BF50B661F771F881FD6
:104EA000991F1A9469F760957095809590959B016C
:104EB000AC01BD01CF01089597FB092E05260ED048
:104EC00057FD04D0D7DF0AD0001C38F45095409528
:104ED000309521953F4F4F4F5F4F0895F6F79095CE
:104EE0008095709561957F4F8F4F9F4F08952F92BA
:104EF0003F924F925F926F927F928F929F92AF926A
:104F0000BF92CF92DF92EF92FF920F931F93CF93B6
:104F1000DF93CDB7DEB7CA1BDB0B0FB6F894DEBF4D
:104F20000FBECDBF09942A88398848885F846E8473
:104F30007D848C849B84AA84B984C884DF80EE80BD
:104F4000FD800C811B81AA81B981CE0FD11D0FB6C6
:104F5000F894DEBF0FBECDBFED010895F999FECFE5
:104F600092BD81BDF89A992780B50895262FF999A9
:104F7000FECF1FBA92BD81BD20BD0FB6F894FA9A3C
:0C4F8000F99A0FBE01960895F894FFCF37
:104F8C0001526567696F6E3A200020202020205561
:104F9C0053203132687200202020202055532032BB
:104FAC003468720020202020204555203132687250
:104FBC0000202020202045552032346872004461A6
:104FCC0074653A00202020202000436F6E666967CC
:104FDC0075726174696F6E204D656E7500536574E2
:104FEC0020416C61726D3A20200053657420546925
:104FFC006D653A2000536574204261636B6C696780
:10500C0068743A20005072657373204D454E5520DC
:10501C00746F20616476616E6365005072657373A2
:10502C002053455420746F2073657400507265735F
:10503C0073202B20746F206368616E676520687223
:10504C002E0050726573732053455420746F207377
:10505C00657420686F7572005072657373202B2015
:10506C00746F206368616E6765206D696E005072A5
:10507C006573732053455420746F20736574206DD1
:10508C00696E73005072657373202B20746F2063EC
:10509C0068616E6765207365630050726573732079
:1050AC0053455420746F20736574207365637300CB
:1050BC005072657373202B20746F206368616E6768
:1050CC0065202020200050726573732053455420B6
:1050DC00746F2073617665202020200050726573F8
:1050EC00732053455420746F207365742020202046
:1050FC0020005072657373204D454E5520746F20FF
:10510C0065786974202020005072657373202B2001
:10511C00746F206368616E67652020200050726593
:10512C0073732053455420746F207361766520206F
:10513C0020005072657373204D454E5520746F20BE
:10514C0065786974005072657373205345542074EC
:10515C006F20736574202020005072657373202BB0
:10516C0020746F206368616E6765206D6F6E0050F0
:10517C00726573732053455420746F2073657420CB
:10518C006D6F6E2E005072657373202B20746F2020
:10519C006368616E67652064617900507265737332
:1051AC002053455420746F207365742064617465BA
:1051BC00005072657373202B20746F206368616ECE
:1051CC0067652079722E00507265737320534554B5
:1051DC0020746F2073657420796561720000000083
:1051EC000000000000000102020303030304040496
:1051FC000404040404050505050505050505050558
:10520C000505050505060606060606060606060637
:10521C000606060606060606060606060606060622
:10522C000606060606070707070707070707070707
:10523C0007070707070707070707070707070707F2
:10524C0007070707070707070707070707070707E2
:10525C0007070707070707070707070707070707D2
:10526C0007070707070808080808080808080808B7
:10527C0008080808080808080808080808080808A2
:10528C000808080808080808080808080808080892
:10529C000808080808080808080808080808080882
:1052AC000808080808080808080808080808080872
:1052BC000808080808080808080808080808080862
:1052CC000808080808080808080808080808080852
:1052DC000808080808080808080808080808080842
:0652EC0008080808080094
:00000001FF
