:100000000C9421070C943E070C943E070C94691540
:100010000C943E070C943E070C943E070C943E074C
:100020000C943E070C94480A0C943E070C94B307BA
:100030000C943E070C9440070C9452070C943E0716
:100040000C943E070C943E070C943E070C943E071C
:100050000C943E070C9492140C943E070C943E07AB
:100060000C94C31E0C943E07FA3E1A7ADE8EF62ECE
:100070006078AE1CAA2A3ACEF30AB61E3838B86E9B
:1000800076DA6800FC60DAF266B6BEE0FEE684006E
:10009000000080E0F0F8FCFE3E0F07070707070F9F
:1000A0003EFEFCF8F0E0800000F0FEFFFFFFFFFFE7
:1000B000FF000000000000000000FFFFFFFFFFFF47
:1000C000FEF07FFFFFFFFFFFFFFF000000000000CA
:1000D000000000FFFFFFFFFFFFFF7F00030F3F7FD8
:1000E000FFFFFFF8C0800000000080E0FFFFFF7FFF
:1000F0003F0F030000000000000001010303070799
:1001000007070703030301000000000000000000D0
:10011000383838383878F8FCFCFCFEFFFFFF000068
:10012000000000000000000000000000000000FFD0
:10013000FFFFFFFFFFFFFF000000000000000000C6
:100140000000000000000000FFFFFFFFFFFFFFFFB7
:10015000000000000000000000000080808080801F
:1001600080FFFFFFFFFFFFFFFF8080808080000097
:10017000000000000303030303030303030303035B
:10018000030303030303030300000000C0E0F8F8C7
:10019000FC9E8E0607070707070F3FFEFEFEFCFCCE
:1001A000F8E0C000001F3F7F7F7F7F7F3F0C000093
:1001B0000000C0F0FFFFFFFFFFFF3F0F0000000047
:1001C0000000000080C0E0F8FC7E3F3F1F0F0F07DB
:1001D0000301C0E0E00080C0F0F8FCFEFFFFFBF987
:1001E000F8F8F8F8F8F8F8F8F8F8FCFFFF1F000343
:1001F00003030303030303030303030303030303CF
:10020000030303030303000000E0F8FCFCFEFECF41
:1002100087070707070F3FFFFEFEFCFCF8F0C00052
:100220000000070F0F0F0F8F878380808080C0F042
:10023000FFFFFF7F7F3F1F07000080C0C0C0C0C01E
:1002400081030303030303071FFFFEFEFEFCFCF80C
:10025000E0000E3FFFFFFFFFFF9F07000000008050
:10026000C0F0FFFFFFFFFF7F3F0F00000000000115
:100270000303030707070707070703030303010037
:10028000000000000000000000000000000000006E
:10029000C0E0F0F8FCFFFFFFFF00000000000000DE
:1002A000000080C0E0F83C1E0F07FFFFFFFFFFFFCC
:1002B000FFFF00000000E0F0F8FEDFCFC3C1C0C0C8
:1002C000C0C0C0FFFFFFFFFFFFFFFFC0C0C0C001F5
:1002D000010101010101010181818181FFFFFFFF16
:1002E000FFFFFFFF8181818100000000000000000E
:1002F00003030303030303030303030303030303CE
:1003000003000000C0FFFEFEFEFEFEFEFEFEFEFE3F
:10031000FE7E7E7E3E1E0F020000000000FFFFFFFB
:10032000E0E06070707070F0F0F0E0E0E0C080003D
:100330000000000082C7CFC7C1C0800000000000DD
:10034000000107FFFFFFFFFFFFFEF8001F7FFFFF19
:10035000FFFF9F9F0F0000008080C0F8FFFFFFFF9E
:100360007F3F1F030000000001010303030707078D
:100370000707070703030301000000000000000057
:1003800000C0E0F0F8FCFC7E1E0F07070707E7FF40
:10039000FFFEFEFCF8F000C0FCFFFFFFFFFFFF07C1
:1003A0008080C0C0C0C0C0C3C7C7C78707030100E3
:1003B000FFFFFFFFFFFFFFFF0F0303010101010329
:1003C0000FFFFFFFFFFFFEFCF0010F1F7FFFFFFF8E
:1003D000FFF0C08000000080C0F0FFFFFFFFFF3F84
:1003E0001F070000000000010103030307070707C0
:1003F00007070303030100000000000000F8FEFEF1
:10040000FEFEFEFEFEFEFEFEFEFEFEFEFEFEFEFE0C
:10041000FEFE3E0E00707F7F0F0100000000000016
:1004200000000080E0F0FC7F1F03000000000000DF
:100430000000000000000080E0F8FCFFFFFF7F03E9
:100440000000000000000000000000000000F8FEB6
:10045000FFFFFFFFFFFFFF000000000000000000A3
:100460000000000000000001030707070707030161
:1004700000000000000000000080E0F0F8FCFE1E1C
:100480000E0F07070707070F0F3EFEFEFCF8F0E010
:1004900000003FFFFFFFFFFFFEF8F0F0F0E0E0E0BC
:1004A000E0F0F8FFBF9F1F0F030080C0E0F1F3FBF7
:1004B0007F3F1F0F1F1F1F1F3F3F7F7FFFFFFFFF5C
:1004C000FEFCF01F7FFFFFFFFFE0C0808000000008
:1004D00000008080C0E0FFFFFF7F1F0700000001D9
:1004E00001030303070707070707070303030301C4
:1004F000000000000000C0F0F8FCFCFEFE3E0F070C
:10050000070707070F7EFEFCFCF8F0E080007FFF86
:10051000FFFFFFFFFFFFC000000000000000C0FF62
:10052000FFFFFFFFFFFFFC000103078F8F1F1F1F4F
:100530001F1F1E1E0E0E0703FFFFFFFFFFFFFF1F03
:10054000007CFEFFFFFFFFFF3E0000000080C0E0D8
:10055000FCFFFF7F3F1F07000000000001030303B3
:100560000707070707070303030101000000000056
:1005700000004040C0C0C0404000004040C0C0C07B
:100580004040000000008080C04040C080800000EB
:100590000000004040C0C0C0C0C0C0C0C0C0C0401B
:1005A000400000FFFFFF101010101010FFFFFF00B1
:1005B000000000FCFFFF1110101010111F1F9C0005
:1005C00000000000FFFF0000000000FFFFFF000030
:1005D00004040707070404000004040707070404D1
:1005E00000000001030306060606060201000000E3
:1005F0003C0C07070404040404060707070C3C40EE
:1006000040C0C0C04040404040C0C0C0404000006A
:1006100000008080C04040C080800000000040405A
:10062000C0C0C0404000004040C0C0C040400000CA
:10063000FFFFFF0000000000FFFFFF000000007C44
:10064000FFFF010000000001FFFF7C00000000FF31
:10065000FFFF101010101010FFFFFF000004040730
:10066000070704040004040707070404000000014E
:100670000303060404060303010000000404070743
:1006800007040400000404070707040440C0C0C0B6
:10069000C0404040C0C0808000000000C0C040405A
:1006A00040C0C0C0404040C0C0000000000080808A
:1006B000C04040C0808000000000000000FFFFFF3D
:1006C000101010183FEFE7C0000000070000000006
:1006D000FFFFFF00000000070000007CFFFF01009B
:1006E00000000001FFFF7C0000000404070707046E
:1006F00004040606030301000000000000040407D0
:1007000007070404000000000000000103030604C2
:1007100004060303010000000000008080C0404088
:1007200040C080000000004040C0C0C080C0C0C0C9
:10073000C0C080000000000000008080C0C04040B9
:100740004040C0C0C04040007CFFFF81000000026C
:100750000707830000000000FFFFFF01000000000A
:1007600081FFFF7C00000000070F1FD8F0F0101081
:1007700010FFFFFF00000000010307060606060247
:1007800003000000008080FFFFFF8386060606034B
:100790000301000000000306040607070104060623
:1007A0000707070604004040C0C0C040400040406A
:1007B000C0C0C04040000000008080C04040C080F9
:1007C000800000000000C0C0404040C0C0C04040A9
:1007D00040C0C0000000001F3F7F6040404060FFFD
:1007E000FFFF00000000FCFFFF1110101010111F90
:1007F0001F9C0000000700000000FFFFFF0000003A
:1008000000070000000000000000000004040707CB
:1008100007040400000001030306060606060201A1
:1008200000000000000000040407070704040000A3
:100830000000004040C0C0C04040404040C0C0C078
:100840004040000000008080C04040C08080000028
:10085000000000C0C0404040C0C0C0404040C0C0D8
:1008600000000000FFFFFF0000000000FFFFFF008E
:10087000000000FCFFFF1110101010111F1F9C0042
:1008800000000700000000FFFFFF0000000007005D
:10089000000404070707040400040407070704040E
:1008A0000000000103030606060606020100000020
:1008B0000000000004040707070404000000000013
:1008C00000008080C0404040C08000000000C0C0E8
:1008D000404040C0C0C0C040000000000000000018
:1008E00000C0F89C86C74747C78787030100007C84
:1008F000FFFF8100000002070783000000070000DF
:100900000000FFFFFF101010101030F0E0C00000DA
:100910007FFFFF010000000001FFFF7C00000001DD
:10092000030706060606020300000000000000049C
:10093000040707070404040406060303010000007B
:1009400001030306040406030301000000C0F0FCD9
:100950000E02010101030EFCF8C0001FFFFF800022
:100960000000000080FFFF1F0000000103060404D8
:1009700004060301000000000004040606FEFFFF59
:100980000000000000000000000000FFFFFF00006A
:100990000000000000040404060707070404040420
:1009A0000078FCF6E2010101010386FEFC780000FC
:1009B0000080C06030180C0E070381E000040607B9
:1009C0000707070707070707070700001C3E3E3316
:1009D00001010183FEFE3C000000E0F0F001010196
:1009E0000103FEFCF80000000003030604040607F0
:1009F00003010000000000000080C07018FCFFFF31
:100A000000000020302C2623202020FFFFFF202084
:100A1000200000000000040404070707060400008B
:100A200000F0FF87878787878703010000C0E2F314
:100A3000E1000000000103FFFE780000010306064C
:100A400004040406030301000080F0F81C060203FE
:100A50000101011F1E08003FFFFF86020101010185
:100A600003FEFE78000000010306040404060303ED
:100A7000010000003F0F070707070787E73F0F0345
:100A8000000000000000E0F8FE0700000000000089
:100A9000000000000707070000000000000078FCCD
:100AA000FEC38381010383FE7E3C00E0F8FC0D075A
:100AB00003030707070EFEFC780001030706040482
:100AC00004040603030100F0FCFE06030101010318
:100AD0000EFCF8E00001C7C70E0C08080804C6FFAA
:100AE0007F1F000003070404040606030100000042
:100AF000000B3E41414141424242423C0006FFFF61
:100B0000FFFFFFFF000000000000005F0000000783
:100B1000000700147F147F14242A7F2A122313084D
:100B2000646236495522500005030000001C224132
:100B3000000041221C00082A1C2A0808083E080858
:100B4000005030000008080808080060600000201D
:100B5000100804023E5149453E00427F4000426178
:100B60005149462141454B311814127F1027454504
:100B700045393C4A4949300171090503364949491B
:100B800036064949291E0036360000005636000058
:100B900000081422411414141414412214080002F1
:100BA00001510906324979413E7E1111117E7F497A
:100BB0004949363E414141227F4141221C7F4949FA
:100BC00049417F090901013E414151327F0808082E
:100BD0007F00417F41002040413F017F08142241B6
:100BE0007F404040407F0204027F7F0408107F3E28
:100BF0004141413E7F090909063E4151215E7F097D
:100C0000192946464949493101017F01013F4040C8
:100C1000403F1F2040201F7F2018207F63140814AE
:100C2000630304780403615149454300007F414157
:100C3000020408102041417F000004020102044028
:100C400040404040000102040020545454787F4842
:100C50004444383844444420384444487F38545449
:100C60005418087E090102081454543C7F080404F7
:100C70007800447D40002040443D00007F1028441F
:100C800000417F40007C041804787C080404783814
:100C9000444444387C14141408081414187C7C0848
:100CA0000404084854545420043F4440203C40402D
:100CB000207C1C2040201C3C4030403C4428102814
:100CC000440C5050503C4464544C4400083641009D
:100CD00000007F0000004136080008082A1C0808B0
:100CE0001C2A08084932433A204255535F45525264
:100CF0004F520D0A004932433A204E4F5F494E464B
:100D00004F0D0A004932433A2053542D3E4441547A
:100D1000415F4E41434B206F72204C4153545F441E
:100D20004154410D0A004932433A2053542D3E4468
:100D30004154415F41434B0D0A004932433A20532D
:100D4000542D3E534C415F41434B0D0A0049324301
:100D50003A2053522D3E53525F53544F500D0A00C8
:100D60004932433A2053522D3E444154415F4E4153
:100D7000434B0D0A004932433A2053522D3E444121
:100D800054415F41434B0D0A004932433A205352CC
:100D90002D3E534C415F41434B0D0A004932433ACB
:100DA000204D522D3E534C415F41434B0D0A0049AB
:100DB00032433A204D522D3E444154415F41434B12
:100DC0000D0A004932433A204D542D3E4152425FB4
:100DD0004C4F53540D0A004932433A204D54522D82
:100DE0003E534C415F4E41434B206F72204D542D7A
:100DF0003E444154415F4E41434B0D0A004932434A
:100E00003A204D522D3E444154415F4E41434B0DDB
:100E10000A004932433A204D542D3E534C415F4124
:100E2000434B206F7220444154415F41434B0D0AB4
:100E3000004932433A204D2D3E53544152540D0A3D
:100E4000000011241FBECFEFD8E0DEBFCDBF14E0FD
:100E5000A0E0B1E0E6E8FEE402C005900D92A636FF
:100E6000B107D9F714E0A6E6B4E001C01D92A03E98
:100E7000B107E1F70E94C20B0C9441270C940000CB
:100E80001F920F920FB60F9211248F939F9388B1E8
:100E900098E0892788B99F918F910F900FBE0F908E
:100EA0001F9018951F920F920FB60F9211248F93D7
:100EB0009F9380916E0490916F04892B49F08091EB
:100EC0006E0490916F04019790936F0480936E0469
:100ED0008091D4049091D504892B49F08091D40459
:100EE0009091D50401979093D5048093D404809178
:100EF000D204882389F180916C0490916D04892B30
:100F000059F58091C9049091CA04892BE1F48CE2CF
:100F100091E09093CA048093C90480918100882352
:100F200079F41092800089E08093810083E08093BF
:100F30006F0088EE93E0909389008093880003C04F
:100F40001092810043988091C9049091CA0401973E
:100F50009093CA048093C9049F918F910F900FBE04
:100F60000F901F9018951F920F920FB60F92112499
:100F70008F939F9388B198E0892788B99F918F912B
:100F80000F900FBE0F901F901895AF92BF92CF9207
:100F9000DF92EF92FF920F931F93E62E1092800044
:100FA00029E02093810023E020936F009C0140E022
:100FB00050E060E079E08DE390E00E94D926309324
:100FC000890020938800FF2400E010E0C801B701E9
:100FD0000E94F7235B016C0120E030E04AEF54E40B
:100FE0000E9419227B018C0120E030E040E85FE3A1
:100FF0000E94732388231CF461E070E024C0C801C0
:10100000B70120E03FEF4FE757E40E941323181683
:10101000B4F4C601B50120E030E040E251E40E94A2
:1010200019220E94432088EC90E005C0FC01319712
:10103000F1F76150704061157105C1F707C0C80133
:10104000B7010E944320CB010197F1F71092810074
:1010500043981F910F91FF90EF90DF90CF90BF903A
:10106000AF9008951E9B16C08091CF04882311F184
:101070001092CF041092D80410926D0410926C0458
:101080008091D2048823B1F01092D2041092810092
:10109000439808958091CF04882361F481E0809380
:1010A000CF0410926D0410926C0483E080936B0463
:1010B00080936A040895FC0183709070892B39F441
:1010C000CF0164E670E00E949026892B49F420E06D
:1010D00030E0CF0160E971E00E949026892B11F485
:1010E00021E030E0822F08950895482F6AE00E94A1
:1010F0008426282F30E084E0220F331F8A95E1F701
:10110000842F0E948426892F822B089588E592E0FF
:1011100090936D0480936C04109281004398109218
:10112000D30408950F931F93182F062F6AE00E948F
:101130008426805D602F0E94D418812F6AE00E946F
:101140008426892F805D602F0E94D4181F910F91F3
:101150000895CF92DF92EF92FF920F931F93DF9348
:10116000CF93CDB7DEB728970FB6F894DEBF0FBE8A
:10117000CDBF162FF42ED22EFE01319698E0DF015E
:101180001D929A95E9F719820E9475088A83812F2A
:101190000E9475088B838F2D0E9475088C838D2D7E
:1011A0000E9475088D83802F0E9475088E838E2D76
:1011B0000E9475088F838C2D0E9475088887F8948B
:1011C00080ED68E0AE014F5F5F4F0E942A1E789469
:1011D0008823D9F008EC10E080EA9FE064E60E94E2
:1011E000C50788EE93E0F8013197F1F70197D9F739
:1011F00080EA9FE064E60E94C50780E197E2F8017B
:101200003197F1F70197D9F7E7CF28960FB6F89401
:10121000DEBF0FBECDBFCF91DF911F910F91FF9029
:10122000EF90DF90CF9008950F931F93DF93CF93AC
:10123000CDB7DEB729970FB6F894DEBF0FBECDBF8E
:101240001982F89480ED61E0AE014F5F5F4F0E941C
:101250002A1E8823E1F008EC10E0789480EA9FE0F1
:1012600064E60E94C50788EE93E0F8013197F1F734
:101270000197D9F780EA9FE064E60E94C50780E104
:1012800097E2F8013197F1F70197D9F7E6CF80EDB2
:1012900067E0AE014E5F5F4F0E94711E7894882315
:1012A000D9F008EC10E080EA9FE064E60E94C507F0
:1012B00088EE93E0F8013197F1F70197D9F780EACA
:1012C0009FE064E60E94C50780E197E2F80131974C
:1012D000F1F70197D9F7E7CF7A81872F82958F7041
:1012E00090E0877090709C01A3E0220F331FAA95B5
:1012F000E1F7880F991F280F391F872F8F70820FF2
:101300008093D7044B81842F82958F7090E08770F3
:1013100090709C01E3E0220F331FEA95E1F7880FFC
:10132000991F280F391F4F70420F4093CD048C81B5
:10133000482F42954F70682F6F7086FF22C08295AC
:101340008695877090E0817090709C01220F331F0A
:10135000280F391F220F331F220F331F842F90E0D5
:1013600081709070AC0103E0440F551F0A95E1F7BE
:10137000880F991F480F591F240F260F2093C4046C
:1013800011C0842F90E0837090709C01B3E0220F15
:10139000331FBA95E1F7880F991F280F391F620F85
:1013A0006093C4044E81842F82958F7090E0837087
:1013B00090709C01F3E0220F331FFA95E1F7880F3C
:1013C000991F280F391F4F70420F4093CC044F8153
:1013D000842F82958F7090E0817090709C0163E003
:1013E000220F331F6A95E1F7880F991F280F391FC5
:1013F0004F70420F4093D6042885822F82958F70BC
:101400003AE0839FC00111242F70280F2093C70456
:10141000872F807829960FB6F894DEBF0FBECDBF18
:10142000CF91DF911F910F910895CF92EF920F937B
:101430000E94841D0E941409882359F080E060E016
:101440004CE020E001E0EE24E394B9E0CB2E0E94D2
:10145000A9080E94140982E090E00E942B276CE307
:101460000E9484269093C80481E090E00E942B277C
:1014700068E10E9484269093D10487E08093B100B4
:1014800081E08093700078940F91EF90CF90089551
:101490001F920F920FB60F921124FF920F931F937A
:1014A0002F933F934F935F936F937F938F939F936C
:1014B000AF93BF93EF93FF93A8958091700480350D
:1014C00079F4109270041091D7040091CD04F0903B
:1014D000C4040E9414098091C4048F1529F40AC021
:1014E0008F5F80937004E3C081E080936804F09282
:1014F000CE0407C08091CD04801731F081E0809345
:1015000067040093C50409C08091D704811729F0AE
:1015100081E0809369041093D9048091D7048117E6
:1015200009F43FC08091D204882359F080916C0463
:1015300090916D04009729F0019790936D0480932A
:101540006C0480916A04882361F180916A0481505F
:1015500080936A0480916A04882319F580916B0452
:101560008093790410926B0480916804882329F099
:101570008091CE048093C40404C0809167048823C2
:1015800021F08091C5048093CD0480916804882364
:1015900021F480916704882321F0F092C404009321
:1015A000CD048091D304843061F08091D3048530E0
:1015B00041F08091D304883021F08091D3048630AB
:1015C00089F580917304882369F584E462E00E94C0
:1015D0003D1D8091C40460E00E941D0D8AE360E01F
:1015E0000E94D4188091CD0460E00E9492088AE3A2
:1015F00060E00E94D4188091D70460E00E949208B5
:101600008091C604882371F480E260E00E94D418BF
:101610008091C4048C3010F080E501C081E460E06A
:101620000E94D4188091CF04882399F08091D70428
:10163000882379F49091CD048091C804981749F4D7
:101640009091C4048091D104981719F481E080939B
:10165000D80480916704882369F480916804882302
:1016600049F48091D804882329F081E08093D20442
:101670001092D80480917104863039F4109271046C
:1016800080917704882329F409C08F5F80937104C7
:101690000EC080917704815080937704809172040A
:1016A000882329F080917204815080937204FF9105
:1016B000EF91BF91AF919F918F917F916F915F91CA
:1016C0004F913F912F911F910F91FF900F900FBE5F
:1016D0000F901F901895EF92FF920F931F93F82E83
:1016E000162FE42E21E001E00E945219FE0C0F2D6E
:1016F00002501150802F612F0E94261B1E5F802FE9
:10170000612F0E94261B01501350802F612F0E94D1
:10171000261B1C5F802F612F0E94261B1F910F919B
:10172000FF90EF90089580E090E00E942B27833C8B
:1017300041F181E090E068E00E94332782E090E090
:1017400060E00E94332783E090E060E10E9433274D
:1017500084E090E061E00E94332785E090E060E063
:101760000E94332786E090E060E00E94332787E004
:1017700090E06AE00E94332780E090E063EC0E94F2
:10178000332708959F92AF92BF92CF92DF92EF924C
:10179000FF920F931F93CF93DF9384B714BE88E11A
:1017A0000FB6F89480936000109260000FBE8AE13B
:1017B00090E00E9413173B9A0E94150A0E94930B17
:1017C00085E090E00E942B278093D00486E090E093
:1017D0000E942B278093C6040E9467140E9432083F
:1017E00082E084BD83E085BD8DE787BD80916E007A
:1017F000826080936E00539A80E28093B000809163
:10180000B00083608093B0008091B10088608093C5
:10181000B10080E18093B30083E090E00E942B2729
:101820008093B400259A80EA9FE064E60E94C50791
:101830002FE088E190E00FB6F894A89580936000BF
:101840000FBE209360000E946B1D0E94471D0E94E6
:101850008E1580E00E94091710E05BE4E52EF12C64
:10186000C8E5D2E042E0942E03E038E0A32E26E063
:10187000B22E94E0C92E85E0D82EF092D504E092E5
:10188000D40480917504882379F08091D204882350
:1018900059F010927504D0936D04C0936C041092AB
:1018A000810043981092D30480917504867031F0C2
:1018B0001092750490926B0400936A0480917504F1
:1018C00080FF41C01092750410926B0410926A045C
:1018D0008091D304843089F0853028F4882341F046
:1018E000833009F511C08530A1F08830E1F416C0CD
:1018F000C092D3040E9413101DC00093D3040E9411
:10190000740E1092000116C0D092D3040E94AA1245
:1019100011C0A092D3040E9413110CC0B092D30442
:101920000E94DA1107C01092D3040E94471D80E084
:101930000E9409178091D304882329F40E94471D2F
:1019400080E00E9409170E948F158091D30488239C
:1019500041F5112369F48091D204882369F08091C4
:10196000D70480FF09C081E00E94091711E019C067
:101970008091D204882351F08091D204882359F0B9
:10198000112349F08091D70480FD05C080E00E94BA
:10199000091710E006C02D9A812F90E00E94DC15F7
:1019A0002D988091D4049091D504892BD1F765CFDF
:1019B0000F931F93CF93DF93182F062F8091C604A8
:1019C000882371F584E761E00E943D1D1C3010F012
:1019D00080E501C081E460E00E94D4188DE460E0FD
:1019E0000E94D41880E561E00E943D1D812F90E0A7
:1019F00047966CE070E00E94A426EC0189309105C6
:101A000024F09C012F5F822F10C080E260E00E94D2
:101A1000D4189E012F5C822F602F0E94D41808C01A
:101A200080E561E00E943D1D812F602F0E94920899
:101A3000DF91CF911F910F9108950F931F93CF9333
:101A4000DF93082F162F8091C6048823D1F4802FAE
:101A500090E047966CE070E00E94A426EC0189308B
:101A6000910524F09C012F5F822F14C080E260E07A
:101A70000E94D4189E012F5C822F612F0E94D418DF
:101A80000CC080E260E00E94D41880E260E00E9416
:101A9000D418802F612F0E949208DF91CF911F915F
:101AA0000F9108951F93182F88E064E00E943D1D58
:101AB00081E091E060E00E940C198091D0048823BD
:101AC00039F48091C604882319F48AE091E020C09B
:101AD0008091D004882339F48091C604813019F4B0
:101AE00087E191E015C08091D004813039F4809174
:101AF000C604882319F484E291E00AC08091D004DE
:101B0000813049F48091C604813029F481E391E069
:101B1000612F0E940C191F910895EF92FF920F936D
:101B20001F93F82E162FE42E022F88E063E00E9408
:101B30003D1D8EE391E060E00E940C198091D0047D
:101B40008823B1F484E491E060E00E940C1960E025
:101B50000B3009F461E08F2D0E9492088FE260E063
:101B60000E94D41860E00C3009F461E0812F19C0A4
:101B70008091D0048130D9F484E491E060E00E9447
:101B80000C1960E00C3009F461E0812F0E9492088A
:101B90008FE260E00E94D41860E00B3009F461E04D
:101BA0008F2D0E9492088FE260E00E94D41810E00E
:101BB0000D3009F411E084E1612F0E9492088E2D0E
:101BC000612F0E9492081F910F91FF90EF9008954E
:101BD000809173048F5F809373040E94471D80E09F
:101BE00060E00E943D1D8AE491E060E00E940C19D3
:101BF00088E061E00E943D1D8DE591E060E00E947B
:101C00000C198091D10460E00E94D80C8AE360E056
:101C10000E94D4188091C80460E00E94920888E075
:101C200062E00E943D1D8AE691E060E00E940C198E
:101C30008091C40460E00E941D0D8AE360E00E9470
:101C4000D4188091CD0460E00E9492088AE360E09D
:101C50000E94D4188091D70460E00E94920880917D
:101C6000C604882371F480E260E00E94D418809159
:101C7000C4048C3010F080E501C081E460E00E9473
:101C8000D4188091D6046091CC044091C70425E01B
:101C90000E948D0D80E090E00E94520D88E065E08A
:101CA0000E943D1D85E791E060E00E940C19809143
:101CB000B40060E00E94920880E066E00E943D1D52
:101CC00085E891E060E00E940C1980E067E00E94E6
:101CD0003D1D8BE991E060E00E940C198091730436
:101CE0008150809373040895BF92CF92DF92EF9258
:101CF000FF920F931F93CF93DF931091C404D09062
:101D0000CD04F090D7040E94E80D809173048F5F9A
:101D10008093730480E063E147E00E946B0B809145
:101D200073048150809373048AE08093720403E00B
:101D30008AE0B82EC8ECD0E08091750480FD69C1BE
:101D400080917504882321F480917604882319F00A
:101D5000B092720407C080917204882319F4109223
:101D6000D30457C18091750481FFDAC010927504C5
:101D7000809173048F5F80937304033081F584E452
:101D800062E00E943D1D812F61E00E941D0D84E7ED
:101D900062E00E943D1D8091C604882361F480E2C8
:101DA00060E00E94D4181C3010F080E501C081E48E
:101DB00061E00E94D41880E066E00E943D1D8CEA3C
:101DC00091E060E00E940C1980E067E00E943D1DF8
:101DD00082EC91E060E00E940C1905E69CC005369B
:101DE000C1F584E462E00E943D1D812F60E00E9405
:101DF0001D0D8AE360E00E94D4188D2D61E00E94E1
:101E0000920880E066E00E943D1D88ED91E060E070
:101E10000E940C1980E067E00E943D1D8EEE91E06B
:101E200060E00E940C1984E762E00E943D1D8091F1
:101E3000C604882361F480E260E00E94D4181C305C
:101E400010F080E501C081E460E00E94D41806E64D
:101E500062C0063651F58091C604882311F486E5E8
:101E600001C082E662E00E943D1D8D2D60E00E946F
:101E700092088AE360E00E94D4188F2D61E00E94EE
:101E8000920880E066E00E943D1D84E092E060E000
:101E90000E940C1980E067E00E943D1D8AE192E0FB
:101EA00060E00E940C1907E636C08091C6048823C2
:101EB00011F488E601C084E762E00E943D1D8F2D89
:101EC00060E00E94920880E066E00E943D1D85E887
:101ED00091E060E00E940C1980E067E00E943D1DE7
:101EE0008BE991E060E00E940C191093C404D09239
:101EF000CD04F092D7048091D7046091CD04409135
:101F0000C4040091CC04E090D604C090C70420E043
:101F10000E94A90803E080917304815080937304A8
:101F20008091750482FD04C08091760482FF04CF05
:101F300010927504809173048F5F8093730405364B
:101F400049F5812F90E0019668E170E00E94A42697
:101F5000182F8093C40484E462E00E943D1D812F09
:101F600061E00E941D0D84E762E00E943D1D8091AA
:101F7000C6048823E9F580E260E00E94D4188091CD
:101F8000C4048C3010F080E501C081E461E00E945F
:101F9000D4182EC00636A1F48D2D90E001966CE386
:101FA00070E00E94A426D82E8091C604882311F4E4
:101FB00086E501C082E662E00E943D1D8D2D15C0C0
:101FC0000736B1F48F2D90E001966CE370E00E942B
:101FD000A426F82E8091C604882311F488E601C057
:101FE00084E762E00E943D1D8F2D61E00E9492080F
:101FF000809173048150809373048091760482FFF2
:102000009BCE80ED97E0FE013197F1F70197D9F76C
:1020100093CEDF91CF911F910F91FF90EF90DF90C2
:10202000CF90BF9008950F931F93CF93DF930E949B
:10203000E80D809173048F5F8093730480E06BE000
:1020400047E00E946B0B809173048150809373046E
:102050008AE08093720414E00AE0C8ECD0E080913A
:10206000750480FDDBC080917504882321F4809184
:102070007604882319F00093720407C080917204DB
:10208000882319F41092D304C9C08091750481FF8C
:1020900074C010927504809173048F5F80937304F1
:1020A0001430C9F48091D10461E00E94D80C80E022
:1020B00066E00E943D1D8CEA91E060E00E940C19F0
:1020C00080E067E00E943D1D82EC91E060E00E94AC
:1020D0000C1915E64DC0153631F580E561E00E941A
:1020E0003D1D8091D10460E00E94D80C82E661E041
:1020F0000E943D1D8091C80461E00E94920880E02A
:1021000066E00E943D1D88ED91E060E00E940C19A0
:1021100080E067E00E943D1D8EEE91E060E00E944D
:102120000C1916E625C080E561E00E943D1D8091F6
:10213000D10460E00E94D80C82E661E00E943D1D5F
:102140008091C80460E00E94920880E066E00E94EE
:102150003D1D85E891E060E00E940C1980E067E099
:102160000E943D1D8BE991E060E00E940C1914E093
:10217000809173048150809373048091750482FD73
:1021800004C08091760482FF6ACF1092750480911A
:1021900073048F5F809373041536A1F48091D1048A
:1021A00090E0019668E170E00E94A4268093D1043B
:1021B0008091D10461E00E94D80C6091D10481E04B
:1021C00090E019C01636C9F48091C80490E00196D9
:1021D0006CE370E00E94A4268093C80482E661E06C
:1021E0000E943D1D8091C80461E00E9492086091A8
:1021F000C80482E090E00E943327809173048150EC
:10220000809373048091760482FF29CF80ED97E05C
:10221000FE013197F1F70197D9F721CFDF91CF91E7
:102220001F910F9108950F931F930E94E80D8091C5
:1022300073048F5F8093730480E063E247E00E9441
:102240006B0B809173048150809373048AE08093B8
:10225000720418E00AE08091750480FDA8C08091A6
:102260007504882321F480917604882319F0009363
:10227000720407C080917204882319F41092D30469
:1022800096C08091750481FF3BC0109275048091C7
:1022900073048F5F809373041830B9F481E00E9457
:1022A000520D80E066E00E943D1D80E392E060E018
:1022B0000E940C1980E067E00E943D1D86E492E0D8
:1022C00060E00E940C1918E616C080E00E94520DD2
:1022D00080E066E00E943D1D85E891E060E00E949C
:1022E0000C1980E067E00E943D1D8CE592E060E003
:1022F0000E940C1918E0809173048150809373043C
:102300008091750482FD04C08091760482FFA3CF82
:1023100010927504183609F09ECF8091C604882368
:1023200059F08091D0048F5F8093D0048091D004C5
:10233000823010F01092D0048091C60490E088237F
:1023400009F491E09093C604809173048F5F8093A9
:1023500073040E94E80D80E066E00E943D1D80E36A
:1023600092E060E00E940C1980E067E00E943D1D51
:1023700086E492E060E00E940C1980E063E247E0AE
:102380000E946B0B81E00E94520D8091730481507A
:10239000809373046091D00485E090E00E9433271D
:1023A0006091C60486E090E00E94332754CF1F91CD
:1023B0000F9108950F931F930E94E80D809173046D
:1023C0008F5F8093730480E066E00E943D1D82E78A
:1023D00092E060E00E940C1980E06BE247E00E940E
:1023E0006B0B809173048150809373048AE0809317
:1023F000720416E00AE08091750480FDA8C0809107
:102400007504882321F480917604882319F00093C1
:10241000720407C080917204882319F41092D304C7
:1024200096C08091750481FF47C010927504809119
:1024300073048F5F809373041630E9F482E665E0DD
:102440000E943D1D8091B40061E00E94920880E0EE
:1024500066E00E943D1D88E892E060E00E940C1951
:1024600080E067E00E943D1D8DE992E060E00E94FF
:102470000C1919E61CC082E665E00E943D1D8091A2
:10248000B40060E00E94920880E066E00E943D1D7A
:1024900082EB92E060E00E940C1980E067E00E940D
:1024A0003D1D85EC92E060E00E940C1916E08091E1
:1024B00073048150809373048091750482FD04C07D
:1024C0008091760482FF97CF10927504193609F037
:1024D00092CF8091B4008F5F8093B4008091B4005C
:1024E000813110F01092B400809173048F5F80935B
:1024F00073040E94E80D80E066E00E943D1D80E3C9
:1025000092E060E00E940C1980E067E00E943D1DAF
:1025100086E492E060E00E940C1980E06BE247E004
:102520000E946B0B82E665E00E943D1D8091B40025
:1025300061E00E949208809173048150809373043B
:102540006091B40083E090E00E94332754CF1F9144
:102550000F910895BF92CF92DF92EF92FF920F9367
:102560001F93CF93DF93F090CC041091D604D090BA
:10257000C7040E94E80D809173048F5F80937304F9
:1025800080E06BE147E00E946B0B80917304815007
:10259000809373048AE08093720405E04AE0B42ECD
:1025A000C8ECD0E08091750480FD87C180917504EE
:1025B000882321F480917604882319F0B092720464
:1025C00007C080917204882319F41092D30475C156
:1025D0008091750481FFDFC01092750480917304AF
:1025E0008F5F809373040530F1F48091D0048823C9
:1025F00009F451C08091D004823009F44CC080911C
:10260000D004843009F447C08091D004853009F4A7
:1026100042C08091D0048130C9F08091D0048330D1
:1026200009F086C013C00B3059F58091D00488237F
:1026300069F08091D004823049F08091D0048430D8
:1026400029F08091D004853009F050C0812F6F2D82
:102650004D2D2CE00E948D0D80E066E00E943D1D16
:1026600085E093E060E00E940C1980E067E00E9442
:102670003D1D8BE193E060E00E940C190CE086C0E8
:102680000C3009F055C08091D004813021F0809148
:10269000D0048330D1F4812F6F2D4D2D2BE00E947B
:1026A0008D0D80E066E00E943D1D89ED92E060E0C6
:1026B0000E940C1980E067E00E943D1D8FEE92E0C1
:1026C00060E00E940C190BE061C08091D004882367
:1026D000A9F08091D004823089F08091D0048430B8
:1026E00069F08091D004853019F508C08091D0043C
:1026F000813021F08091D0048330D1F4812F6F2D6F
:102700004D2D2DE00E948D0D80E066E00E943D1D64
:1027100081E393E060E00E940C1980E067E00E9492
:102720003D1D87E493E060E00E940C190DE02EC08F
:10273000812F6F2D4D2D25E00E948D0D80E066E0EC
:102740000E943D1D85E891E060E00E940C1980E048
:1027500067E00E943D1D8BE991E060E00E940C194A
:10276000D092C7041093D604F092CC048091D70481
:102770006091CD044091C4040091CC04E090D60453
:10278000C090C70420E00E94A90805E0809173046E
:102790008150809373048091750482FD04C0809100
:1027A000760482FFFFCE10927504809173048F5FD0
:1027B000809373040B3089F51F5F1D3010F011E01A
:1027C00027C01230C1F48D2D90E00E945B08882351
:1027D00031F08DE18F1518F43DE1F32E19C08D2DE8
:1027E00090E00E945B08882399F48CE18F1580F4B7
:1027F0002CE1F22E0DC0143031F0163021F01930DA
:1028000011F01B3029F48EE18F1510F49EE1F92EA2
:10281000812F6F2D4D2D2BE03DC00C3069F5F394C9
:102820008FE18F1510F4FF24F394123099F48D2D5D
:1028300090E00E945B08882319F08DE18F15A8F0C5
:102840008D2D90E00E945B08882389F48CE18F1520
:1028500060F00DC0143031F0163021F0193011F055
:102860001B3029F48FE1F81611F4FF24F394812F23
:102870006F2D4D2D2CE00EC00D3071F48D2D90E09C
:10288000019664E670E00E94A426D82E812F6F2D59
:102890004D2D2DE00E948D0D809173048150809309
:1028A00073048091760482FF7DCE80ED97E0FE0177
:1028B0003197F1F70197D9F775CEDF91CF911F913D
:1028C0000F91FF90EF90DF90CF90BF9008952698E2
:1028D0002E9A81E080936800EBE6F0E080818064CE
:1028E000808382E080937C0010927B00EAE7F0E036
:1028F0008EE88083808180648083089580917A004F
:10290000877F80937A0080917A00806480937A0038
:1029100080917A0084FFFCCF20917800309179007B
:10292000C90108951F920F920FB60F9211242F9391
:102930008F939F937894809178009091790022E012
:10294000803E920728F01092760410927404B4C06E
:1029500022E08336920708F453C08091740482FD0C
:10296000ABC080E29EE40197F1F780917A00877F07
:1029700080937A0080917A00806480937A008091BD
:102980007A0084FFFCCF8091780090917900825684
:1029900092408E37910508F08FC082E080937704D3
:1029A00022C080917A00877F80937A0080917A009C
:1029B000806480937A0080917A0084FFFCCF8091BC
:1029C000780090917900825692408E37910558F0A8
:1029D000809174048B7F809374048091750484606B
:1029E0008093750469C0809177048823D1F6809123
:1029F00074048460809374048091760484605AC067
:102A00008F50914068F18091740481FD20C080E274
:102A10009EE40197F1F780917A00877F80937A0096
:102A200080917A00806480937A0080917A0084FF9C
:102A3000FCCF80917800909179008E50914085551F
:102A40009140D0F5809175048260809375048091E7
:102A500074048260809374048091760482602AC03A
:102A60008091740480FD1EC080E29EE40197F1F71E
:102A700080917A00877F80937A0080917A008064C9
:102A800080937A0080917A0084FFFCCF8091780057
:102A9000909179008F50914078F480917504816015
:102AA0008093750480917404816080937404809194
:102AB000760481608093760480917A0088648093A4
:102AC0007A009F918F912F910F900FBE0F901F90C2
:102AD00018951F920F920FB60F9211242F933F93C8
:102AE0004F935F936F937F938F939F93AF93BF9316
:102AF000EF93FF9378940E943208FF91EF91BF917A
:102B0000AF919F918F917F916F915F914F913F9185
:102B10002F910F900FBE0F901F9018950895089554
:102B2000CF93DF93C82FD0E0E42FF0E0E053F84FCD
:102B3000833010F42C963197262F30E02F5F3F4FD3
:102B40002E0F3F1FCE01880F991F280F391FCF016D
:102B50009695879596958795280F391FCF0160E93F
:102B600071E00E949026260F371FCF0164E670E0C7
:102B70000E949026261B370BAE014F5F5F4FCA01A4
:102B8000880F991F840F951F880F991F6AE070E0C6
:102B90000E949026C901860F971F67E070E00E948F
:102BA0009026DF91CF91089520E0442309F421E09D
:102BB00044E00E94421A0895DF92EF92FF920F9331
:102BC0001F9380916B04833029F41091D104D0902D
:102BD000C80410C080916B04823041F48091C70416
:102BE00064E60E948426D92E14E104C01091C40426
:102BF000D090CD048091C6048823B9F4812F90E051
:102C000047966CE070E00E94A426E82EE3941C3006
:102C100028F480E466E044E021E004C080E466E05B
:102C200044E020E00E94421A07C080E466E044E0ED
:102C300020E00E94421AE12E8E2D6AE00E94842636
:102C40001DE7F12E8F9DC001112480579F4F63E037
:102C500070E040E050E029E130E005E010E00E9443
:102C60001D198E2D6AE00E9484269F9DC0011124AB
:102C700080579F4F6FE170E040E050E029E130E085
:102C80000E941D198D2D6AE00E9484268F9DC0012F
:102C9000112480579F4F68E470E040E050E029E144
:102CA00030E00E941D198D2D6AE00E9484269F9DB0
:102CB000C001112480579F4F64E670E040E050E06F
:102CC00029E130E00E941D198091D6046091CC0466
:102CD0004091C7040E9490159DE8899FC00111246E
:102CE0008E589A4F61E070E045E050E02FE230E00E
:102CF00003E010E00E941D198091D004882329F47C
:102D0000E090D604D090CC0404C0E090CC04D090E5
:102D1000D6048E2D6AE00E948426BAE2FB2E8F9D97
:102D2000C0011124835B964F6BE370E045E050E0F7
:102D30002EE030E003E010E00E941D198E2D6AE0C5
:102D40000E9484269F9DC0011124835B964F6BE4F3
:102D500070E045E050E02EE030E00E941D198BE568
:102D600068E344E022E001E00E9452198CE567E349
:102D700042E024E00E9452198D2D6AE00E948426D0
:102D80008F9DC0011124835B964F61E670E045E0A2
:102D900050E02EE030E003E010E00E941D198D2D80
:102DA0006AE00E9484269F9DC0011124835B964F98
:102DB00061E770E045E050E02EE030E00E941D1930
:102DC00080916904882399F08091D70480FF0FC017
:102DD00080916B04823059F080E46FE044E021E0A0
:102DE0000E94421A80E46EE144E021E00AC080E4DF
:102DF0006FE044E020E00E94421A80E46EE144E08B
:102E000020E00E94421A1F910F91FF90EF90DF90F7
:102E100008950F93082F80E060E040E820E40E94CE
:102E200052190F9108959093C5008093C40088E1D2
:102E30008093C1008EE08093C200519A509808950B
:102E400006C090E000009F5F9E31E1F7815088232B
:102E5000C1F7089548EC50E009C020E137E2FA01DB
:102E60003197F1F721503040D1F781508823A9F7ED
:102E70000895982F8091C00085FFFCCF9093C600E5
:102E800080E090E008958091C00087FFFCCF8091A2
:102E9000C60008958091C00080780895AC0120E0BC
:102EA00007C08091C00085FFFCCF3093C6002F5F24
:102EB000FA01E20FF11D3491332399F7662371F083
:102EC0008091C00085FFFCCF8AE08093C60080918E
:102ED000C00085FFFCCF8DE08093C6000895FC0103
:102EE00007C08091C00085FFFCCF31969093C6004B
:102EF00090819923B1F70895282F982F92959F706C
:102F00009A3030F48091C00085FFFCCF905D05C001
:102F10008091C00085FFFCCF995A9093C600822F04
:102F200090E08F7090700A973CF48091C00085FF0C
:102F3000FCCF2F70205D06C08091C00085FFFCCFC4
:102F40002F70295A2093C60008951F93182F892F98
:102F50000E947C17812F0E947C171F910895EF9289
:102F6000FF920F931F937B018C01C801AA27BB27F7
:102F70000E94A517C7010E94A5171F910F91FF90EE
:102F8000EF9008950F931F93CF93DF938C01E0E1AF
:102F9000F7E240E0C0E0D0E0C801BF010E94902607
:102FA000262F662329F4442319F4E130F10549F46E
:102FB0008091C00085FFFCCF205D2093C600205388
:102FC00041E0CF016AE070E00E9490262196C53072
:102FD000D10571F0822F90E09C012E9FC0012F9FA0
:102FE000900D3E9F900D1124081B190BFB01D4CFAF
:102FF000DF91CF911F910F9108951F93CF93DF938E
:10300000482F87FF08C08091C00085FFFCCF8DE26C
:103010008093C6004195E4E6F0E010E0C0E0D0E027
:10302000842F992787FD9095BF010E949026262F17
:1030300016162CF0112319F4E130F10549F48091B2
:10304000C00085FFFCCF205D2093C600205311E017
:10305000CF016AE070E00E9490262196C330D1052E
:1030600031F02E9F802D1124481BFB01D9CFDF9119
:10307000CF911F9108954F925F926F927F928F929E
:103080009F92AF92BF92CF92DF92EF92FF920F93F7
:103090001F93CF93DF934B015C01E12C9AECF92E47
:1030A0009AE9092F9BE3192F4424C0E0D0E0C50121
:1030B000B401A80197010E94B726D22E222341F421
:1030C000442031F481E0E816F1040105110561F4B2
:1030D0008091C00085FFFCCF80E3D80ED092C6005F
:1030E00080EDD80E44244394C801B7012AE030E0B3
:1030F00040E050E00E94B726C22E732E642E552E5B
:103100002196CA30D105A9F06D2D70E080E090E0E5
:10311000A80197010E946526861A970AA80AB90A8B
:103120002C2D372D462D552DC901DA017C018D013D
:10313000BECFDF91CF911F910F91FF90EF90DF9065
:10314000CF90BF90AF909F908F907F906F905F9047
:103150004F90089508950F931F93CF93DF93482FB7
:1031600030E020E007C08F50954FFC0184918F5FC5
:10317000280F3F5F822F90E03417A8F3FC01EF5037
:10318000F54F0491EC01CE50D54F10E006C0FE0182
:1031900084910E94E41C1F5F21961017C0F3DF91F9
:1031A000CF911F910F910895DF92EF92FF920F93AD
:1031B0001F93CF93DF93D62E95E0899FC0011124F2
:1031C000EC01CC59D54F8E0129E6E22E2AE0F22EF1
:1031D000E80EF91EDD2021F0FE018491809502C0E9
:1031E000F80184910E94E41C21960F5F1F4FCE15B9
:1031F000DF0581F7DD2011F08FEF01C080E00E9434
:10320000E41C80E00E94301DDF91CF911F910F914F
:10321000FF90EF90DF9008951F93CF93DF93EC0121
:10322000162F04C0612F0E94D4182196888188230C
:10323000C9F7DF91CF911F9108959F92AF92BF92EE
:10324000CF92DF92EF92FF920F931F93CF93DF9372
:103250007C01962EA42EB22E10E0C22EDD2414C0C6
:10326000612F6A0D892D0E943D1DE70106C0FE01F8
:103270002196E4918E2F0E94E41C9E012E192B159D
:10328000B0F3EC0CFD1C1F5F101750F3DF91CF91D2
:103290001F910F91FF90EF90DF90CF90BF90AF9074
:1032A0009F9008952F923F924F925F926F927F92DC
:1032B0008F929F92AF92BF92CF92DF92EF92FF9246
:1032C0000F931F93CF93DF93282E162F342EF22EB9
:1032D000402EC62FD0E0C770D070209709F45BC095
:1032E000562E569456945694EE2467E0C62EC1226C
:1032F0008C2C992487FC90945E01A20EB11C51E0A5
:10330000652E712C35C0DE2CD20C8D2D652D0E94C2
:103310003D1D0E94971C0E94971C082F40E050E022
:1033200015C081E0481641F4C30102C0880F991FFF
:103330002A95E2F7082B08C0C30102C0880F991F25
:103340002A95E2F7809508234F5F5F4F9A01280D79
:10335000391D2A153B0524F48C2D840F883009F77C
:103360008D2D652D0E943D1D802F0E94E41CE3944D
:10337000E31448F22F2D30E088E090E08C1B9D0B89
:103380008217930714F0FF2404C0812F87708850A0
:10339000F80E187F185FE12EE694E694E694C12FAC
:1033A000D0E0CF0DD11D43E0D595C7954A95E1F703
:1033B00012C0822D6E2D0E943D1D10E009C081E0DB
:1033C000481611F48FEF01C080E00E94E41C1F5FDB
:1033D0001315A8F3E3948E2D90E08C179D074CF302
:1033E0002F2D2770C9F100E0C22FD0E031E0A32ECD
:1033F000B12C30C0F02EF20C8F2D6E2D0E943D1D91
:103400000E94971C0E94971C182F20E030E017C0E4
:1034100081E0481649F4C501022E02C0880F991FA9
:103420000A94E2F7182B09C0C501022E02C0880FCA
:10343000991F0A94E2F7809518232F5F3F4F2C17AE
:103440003D0734F38F2D6E2D0E943D1D812F0E946C
:10345000E41C0F5F031570F280E00E94301DDF91C5
:10346000CF911F910F91FF90EF90DF90CF90BF9081
:10347000AF909F908F907F906F905F904F903F9014
:103480002F9008952F923F924F925F926F927F926A
:103490008F929F92AF92BF92CF92DF92EF92FF9264
:1034A0000F931F93DF93CF9300D00F92CDB7DEB76A
:1034B000382E462E522E262E281AA42EBB24C501A5
:1034C000880F991F22273327281B390B2D5F3F4F69
:1034D0003B832A838824992466247724362F321943
:1034E0003983182DD42CDA187501EE0CFF1C882DA9
:1034F000830D6D2D41E02E2D052D0E945219832D37
:1035000088196D2D41E02E2D0E945219F42CF818C7
:10351000110F89818A0D6F2D41E0212F0E945219D0
:103520008D2D82196F2D41E0212F0E9452198A8121
:103530009B8197FF06C00696860D971D9B838A8305
:1035400011C0EA81FB813A96C4018A199B09880F50
:10355000991F880F991FE80FF91FFB83EA830894CE
:10356000A108B1080894811C911C24E030E0620E8F
:10357000731EA814B9040CF0B4CF0F900F900F90E5
:10358000CF91DF911F910F91FF90EF90DF90CF903F
:10359000BF90AF909F908F907F906F905F904F9073
:1035A0003F902F900895DF92EF92FF920F931F9319
:1035B000F82E162FD42EE22E41E001E00E9452197F
:1035C0008F2D81508D0D612F41E02E2D0E945219BB
:1035D0008F2D612F4D2D21E00E94521911501E0D8B
:1035E0008F2D612F4D2D21E00E9452191F910F91B7
:1035F000FF90EF90DF900895EF92FF920F931F934B
:10360000F82E162F062F069506950695602F0E9418
:103610003D1D0E94971C0E94971CE82E8F2D602F45
:103620000E943D1D177081E090E002C0880F991F35
:103630001A95E2F780958E210E94E41C80E00E949A
:10364000301D1F910F91FF90EF900895EF92FF9220
:103650000F931F93F82E162F062F069506950695A5
:10366000602F0E943D1D0E94971C0E94971CE82E0F
:103670008F2D602F0E943D1D177081E090E002C0E9
:10368000880F991F1A95E2F78E290E94E41C80E0AA
:103690000E94301D1F910F91FF90EF9008953F926F
:1036A0004F925F926F927F928F929F92AF92BF9252
:1036B000CF92DF92EF92FF920F931F93CF93DF93FE
:1036C000D82EC62E322E462E481AE42EFF24C701CD
:1036D000880F991FCC27DD27C81BD90B23965D2C9B
:1036E000662E762EAA24BB248824992481E03816DD
:1036F00041F50E2D0C0D8D2D602F0E94261B9C2D4B
:103700009E19192F8D2D692F0E94261B852D602F44
:103710000E94261B852D612F0E94261B0419802FD5
:10372000662D0E94261B802F672D0E94261B1419D0
:10373000812F662D0E94261B812F672D0E94261B3C
:1037400027C00E2D0C0D8D2D602F0E94FC1A8C2D84
:103750008E19182F8D2D612F0E94FC1A852D602F38
:103760000E94FC1A852D612F0E94FC1A0419802FDB
:10377000662D0E94FC1A802F672D0E94FC1A1419D6
:10378000812F662D0E94FC1A812F672D0E94FC1A42
:10379000D7FF04C02696C80DD91D0DC02A96C501B5
:1037A0008E199F09880F991F880F991FC80FD91F5D
:1037B0000894E108F1080894A11CB11C84E090E091
:1037C000880E991ED3945A9463947A94EA14FB0455
:1037D0000CF08CCFDF91CF911F910F91FF90EF9064
:1037E000DF90CF90BF90AF909F908F907F906F9021
:1037F0005F904F903F9008952F982D982C98409867
:103800005A98279A259A249A389A529A8BB18F708F
:103810008BB985B1807F85B98AB1806F8AB984B14F
:103820008F6084B9089540985A98882319F08130A0
:1038300021F402C0409A08955A9A0895F8940E947B
:10384000131C8BB1806F8BB985B18F6085B92F98B0
:103850008AB18F708AB984B1807F84B92D9A2C9AED
:10386000000000000AC02C980000000000000000CA
:103870002C9A000000000000000089B193B187FD80
:10388000F2CF2C982D988AB1806F8AB984B18F605D
:1038900084B9789408951F93162FF8940E941E1CE3
:1038A0002F982D982C9A8AB1806F8AB984B18F6035
:1038B00084B98BB18F708BB99BB1812F807F892B9D
:1038C0008BB985B1807F85B985B11F70812B85B992
:1038D00000000000000000000000000000000000E8
:1038E0002C9878941F910895F8940E941E1C2F988C
:1038F0008AB18F708AB984B1807F84B92D9A2C9A4D
:1039000000000000000000000000000000000000B7
:1039100029B183B12C982D989AB1906F9AB994B12E
:103920009F6094B978948F70207F822B0895F894CB
:103930008091DA0482958695869583700E941E1C7C
:103940002F9A8AB18F708AB984B1807F84B92D9AF9
:103950002C9A0000000000000000000000000000A1
:10396000000099B183B12C982D9878948F70907F36
:10397000892B089508958093DA0480E060E40E9422
:103980004B1C1092DC0481E060E40E944B1C1092FE
:10399000DE048091DA04682F6F73606482958695E7
:1039A000869583700E944B1C08951F93182F809357
:1039B000DB04186B80E0612F0E944B1C81E0612FBB
:1039C0000E944B1C1F9108950F931F93182F009175
:1039D000DA040295069506950370F894802F0E94EC
:1039E0001E1C2F9A2D982C9A8AB1806F8AB984B1A7
:1039F0008F6084B98BB18F708BB99BB1812F807F21
:103A0000892B8BB985B1807F85B985B11F70812BDA
:103A100085B9000000000000000000000000000068
:103A200000002C987894E02FF0E0EE0FFF1FE45296
:103A3000FB4F80818F5F80838091DA048F5F80935A
:103A4000DA0487FF0AC08091DB048F5F8093DB0478
:103A50000E94D51C80E00E94BB1C1F910F9108950D
:103A60001F93182F106C80E0612F0E944B1C81E087
:103A7000612F0E944B1C1F9108951F93182F862FB2
:103A80000E94D51C812F0E94BB1C1F9108950F938B
:103A90001F9300E080E0602F0E943D1D10E080E059
:103AA0000E94E41C1F5F1038D1F70F5F083091F7B8
:103AB0001F910F91089580E00E94301D80E060E02A
:103AC0000E943D1D1092DC041092DD041092DE0471
:103AD0001092DF0408950E94FC1B80E06FE30E94B7
:103AE0004B1C81E06FE30E944B1C0E94471D0E940B
:103AF0005B1D0895982F86E0689F802D1124692F03
:103B00000E943D1D08950895459A449A1092C1045B
:103B10001092C0041092C3041092C20480E28093F9
:103B2000B800ECEBF0E080818460808310927A042E
:103B3000808181608083808180648083789408950F
:103B400080E28093B800089590E0611191E08E7F4B
:103B5000982B9093BA0008959093C1048093C00469
:103B600008959093C3048093C2040895ECEBF0E0B1
:103B700080818F70806A80830895ECEBF0E0808113
:103B80008F70806D808308958091BC0087FFFCCF8B
:103B900008958093BB00ECEBF0E080818F7080682B
:103BA00080830895882329F08091BC008F70806CF9
:103BB00004C08091BC008F7080688093BC00089521
:103BC0008091BB0008958091B9000895982F80914D
:103BD0007A048823E1F782E080937A049E7F9093B1
:103BE0007B04ACE7B4E0FA0102C081918D938E2F83
:103BF000841B8617D0F310929C0460939D048091DF
:103C0000BC008F70806A8093BC000895982F8091CB
:103C10007A048823E1F783E080937A04916090939B
:103C20007B041092BE046093BF048091BC008F702F
:103C3000806A8093BC0080917A048823E1F7AEE922
:103C4000B4E0FA0102C08D9181938E2F841B8617F8
:103C5000D0F30895982FFA018091BC008E7F809355
:103C6000BC008091BC008F70806A8093BC00809102
:103C7000BC0087FFFCCF9E7F9093BB008091BC006F
:103C80008F7080688093BC008091BC0087FFFCCF60
:103C90008091B900883189F091E012C080818093D1
:103CA000BB008091BC008F7080688093BC008091C5
:103CB000BC0087FFFCCF31966150662379F790E016
:103CC0008091BC008F70806D8093BC008091BC009F
:103CD00084FFFCCF8091BC0081608093BC00892F61
:103CE0000895982FFA018091BC008E7F8093BC00CC
:103CF0008091BC008F70806A8093BC008091BC0072
:103D000087FFFCCF91609093BB008091BC008F70C7
:103D100080688093BC008091BC0087FFFCCF8091BD
:103D2000B900803481F091E01EC08091BC008F709A
:103D3000806C8093BC008091BC0087FFFCCF809199
:103D4000BB0081936150623080F78091BC008F701E
:103D500080688093BC008091BC0087FFFCCF80917D
:103D6000BB00808390E08091BC008F70806D809359
:103D7000BC008091BC0081608093BC00892F0895B5
:103D800080917A0408951F920F920FB60F9211241A
:103D90002F933F934F935F936F937F938F939F9353
:103DA000AF93BF93EF93FF938091B900887F8836DC
:103DB00009F4CCC0893688F5803309F495C0813385
:103DC000B0F4803109F45AC0813138F4882309F401
:103DD0003CC1883009F046C151C0803209F484C02A
:103DE000883209F453C0883109F03CC14FC088348F
:103DF00009F47AC0893438F4883309F478C08034FF
:103E000009F030C192C0883509F45DC0803609F4EC
:103E10009DC0803509F026C174C0803A09F4BCC049
:103E2000813AB0F4803809F49CC0813838F4803786
:103E300009F48CC0883709F015C188C0803909F4AD
:103E400090C0883909F4A2C0883809F00BC19EC01F
:103E5000883B09F4CFC0893B38F4883A09F4B4C0F0
:103E6000803B09F0FFC0B0C0883C09F4DEC0883F49
:103E700009F4E5C0803C09F0F5C0D7C081E39EE0BD
:103E800060E00E944E1780917B0414C082E19EE0A6
:103E900060E00E944E1790919C0480919D049817B9
:103EA00008F0D8C0E92FF0E0E458FB4F80819F5F15
:103EB00090939C048093BB008091BC008F708068BD
:103EC0008093BC00CFC08DEF9DE060E00E944E1754
:103ED0008091BE049091BB00E82FF0E0E256FB4FCA
:103EE00090838F5F8093BE0487ED9DE0B0C083EC2C
:103EF0009DE060E00E944E178091BC008F7080684A
:103F0000ADC08FEA9DE060E00E944E178091BB003B
:103F10009091BE04E92FF0E0E256FB4F80839F5F53
:103F20009093BE0490E00E94A5178CE99DE060E0AC
:103F30000E944E172091BE0430E08091BF0490E0B3
:103F40000197281739070CF0B7CF6AC089E89DE0C0
:103F500060E00E944E1785E080937A041092BE04C0
:103F60005FC085E79DE060E00E944E178091BE042F
:103F70009091BB00E82FF0E0E256FB4F90838F5FFB
:103F80008093BE04803208F097CF4AC080E69DE05F
:103F900060E00E944E1790CF8DE49DE060E00E94AB
:103FA0004E178091BC008F70806C8093BC00E091B4
:103FB000C004F091C104309709F452C08091BE044E
:103FC0006EE974E009954CC08AE39DE060E00E94D0
:103FD0004E1784E080937A04E091C204F091C30408
:103FE000309731F080E26CE774E0099580939D048E
:103FF00010929C0486E29DE060E00E944E17909132
:104000009C04E92FF0E0E458FB4F80818093BB00D3
:104010009F5F90939C0480919D04981708F04CCF6B
:104020008091BC008F70806C4BCF84E09DE060E09D
:104030000E944E178091BC008F70806C0FC085EF7E
:104040009CE060E00E944E170DC084EE9CE060E0B2
:104050000E944E178091BC008F70806D8093BC00D1
:1040600010927A04FF91EF91BF91AF919F918F9140
:104070007F916F915F914F913F912F910F900FBE64
:104080000F901F901895EF92FF920F931F937B0153
:104090008C0120E030E040E05FE40E94432388236D
:1040A0008CF0C801B70120E030E040E05FE40E94FE
:1040B000BB210E94A3239B01AC0120503040404013
:1040C000504806C0C801B7010E94A3239B01AC0160
:1040D000B901CA011F910F91FF90EF900895A0E0E0
:1040E000B0E0E5E7F0E20C94F426DC012B01FA01E4
:1040F0009C91923008F439C1EB018881823008F438
:1041000033C1943069F4843009F02FC111969C9129
:1041100011978981981709F428C1ADE5B3E025C14D
:10412000843009F421C18230A9F4923009F01DC114
:104130009A01AD0188E0EA010990AE01E901099216
:104140009E018150C1F7E201898111969C918923DA
:10415000818308C1923009F407C112962D903C90DA
:104160001397EB018A819B811496AD90BD90CD9001
:10417000DC901797EC80FD800E811F819101281B38
:10418000390BB90137FF04C066277727621B730B11
:10419000603271050CF061C0121613066CF5370120
:1041A0004801062E04C096948794779467940A94E5
:1041B000D2F721E030E040E050E004C0220F331F8E
:1041C000441F551F6A95D2F721503040404050405F
:1041D0002E213F2140235123211531054105510551
:1041E00021F021E030E040E050E079018A01E6284A
:1041F000F728082919293CC0232BD1F1260E371E98
:1042000035014601062E04C09694879477946794EE
:104210000A94D2F721E030E040E050E004C0220FE1
:10422000331F441F551F6A95D2F72150304040403C
:1042300050402A213B214C215D21211531054105AA
:10424000510521F021E030E040E050E059016A01E1
:10425000A628B728C828D9280BC0821593052CF0AA
:104260001C01AA24BB24650103C0EE24FF2487019E
:1042700011969C91D20111968C91981709F445C022
:10428000992339F0A80197012A193B094C095D09C6
:1042900006C0A60195012E193F09400B510B57FD91
:1042A00008C0118233822282248335834683578358
:1042B0001DC081E081833382228288279927DC0117
:1042C000821B930BA40BB50B84839583A683B783C2
:1042D0000DC0220F331F441F551F2483358346838F
:1042E00057838281938101979383828324813581CF
:1042F00046815781DA01C9010197A109B1098F5F90
:104300009F4FAF4FBF4328F30BC09183338222826C
:10431000EA0CFB1C0C1D1D1DE482F582068317832D
:1043200083E08083248135814681578157FF1AC0FD
:10433000C901AA2797FDA095BA2F81709070A0702F
:10434000B0705695479537952795822B932BA42BC4
:10435000B52B84839583A683B7838281938101964D
:1043600093838283DF0101C0D201CD01CDB7DEB7D7
:10437000E2E10C941027A0E2B0E0E1ECF1E20C9451
:10438000002769837A838B839C832D833E834F83AD
:104390005887E9E0EE2EF12CEC0EFD1ECE010196C1
:1043A000B7010E9494258E010F5E1F4FCE01059626
:1043B000B8010E9494258A8991E089278A8BC701D8
:1043C000B801AE01475E5F4F0E946F200E94BF247C
:1043D000A096E6E00C941C27A0E2B0E0E2EFF1E248
:1043E0000C94002769837A838B839C832D833E837F
:1043F0004F835887F9E0EF2EF12CEC0EFD1ECE0115
:104400000196B7010E9494258E010F5E1F4FCE01C9
:104410000596B8010E949425C701B801AE01475E18
:104420005F4F0E946F200E94BF24A096E6E00C948C
:104430001C27A0E2B0E0EFE1F2E20C94F4266983DD
:104440007A838B839C832D833E834F835887CE0151
:104450000196BE01675F7F4F0E949425CE010596AD
:10446000BE016F5E7F4F0E9494259985923088F03F
:1044700089898230C8F0943019F4823051F404C034
:10448000843029F4923081F48DE593E0C6C09230F7
:1044900049F420E09A858A89981321E02A87CE0181
:1044A0000996BBC0823049F420E09A858A89981326
:1044B00021E02A8BCE014196B0C02D843E844F84EA
:1044C00058886D887E888F88988CEE24FF24870119
:1044D000AA24BB24650140E050E060E070E0E0E029
:1044E000F0E0C10181709070892BE9F0E60CF71CB7
:1044F000081D191D9A01AB012A0D3B1D4C1D5D1DA8
:1045000080E090E0A0E0B0E0E614F70408051905AB
:1045100020F481E090E0A0E0B0E0BA01A901480FEA
:10452000591F6A1F7B1FAA0CBB1CCC1CDD1C97FEED
:1045300008C081E090E0A0E0B0E0A82AB92ACA2A29
:10454000DB2A3196E032F10549F0660C771C881CB5
:10455000991C5694479437942794C3CFFA85EA89D7
:104560002B893C898B859C85280F391F2E5F3F4FF7
:1045700017C0CA0181709070892B61F0169507955C
:10458000F794E79480E090E0A0E0B0E8E82AF92A08
:104590000A2B1B2B76956795579547952F5F3F4FB5
:1045A00077FDE7CF0CC0440F551F661F771F17FD1F
:1045B0004160EE0CFF1C001F111F215030404030A5
:1045C00090E0590790E0690790E4790760F32B8F3A
:1045D0003C8FDB01CA018F779070A070B07080347F
:1045E0009105A105B10561F447FD0AC0E114F1048C
:1045F0000105110529F0405C5F4F6F4F7F4F4078F8
:104600001A8EFE1711F081E08A8F4D8F5E8F6F8FAB
:1046100078A383E0898FCE0149960E94BF24A0969B
:10462000E2E10C941027A8E1B0E0E9E1F3E20C9498
:10463000002769837A838B839C832D833E834F83FA
:10464000588789E0E82EF12CEC0EFD1ECE01019674
:10465000B7010E9494258E010F5E1F4FCE01059673
:10466000B8010E9494258985823040F08989823082
:1046700028F0C701B8010E940C2601C08FEF689690
:10468000E6E00C941C27A8E1B0E0E9E4F3E20C9426
:10469000002769837A838B839C832D833E834F839A
:1046A000588789E0E82EF12CEC0EFD1ECE01019614
:1046B000B7010E9494258E010F5E1F4FCE01059613
:1046C000B8010E9494258985823040F08989823022
:1046D00028F0C701B8010E940C2601C08FEF689630
:1046E000E6E00C941C27A8E1B0E0E9E7F3E20C94C3
:1046F000002769837A838B839C832D833E834F833A
:10470000588789E0E82EF12CEC0EFD1ECE010196B3
:10471000B7010E9494258E010F5E1F4FCE010596B2
:10472000B8010E9494258985823040F089898230C1
:1047300028F0C701B8010E940C2601C081E06896EC
:10474000E6E00C941C27ACE0B0E0E9EAF3E20C945C
:10475000042769837A838B839C83CE010196BE01F3
:104760006B5F7F4F0E9494258D81823061F1823092
:1047700050F1843021F48E81882351F12EC02F8195
:10478000388537FD20C06E812F3131051CF066233E
:10479000F9F023C08EE190E0821B930B29853A85C6
:1047A0004B855C8504C056954795379527958A9526
:1047B000D2F76623B1F050954095309521953F4F43
:1047C0004F4F5F4F0EC020E030E040E050E009C0A6
:1047D0002FEF3FEF4FEF5FE704C020E030E040E015
:1047E00050E8B901CA012C96E2E00C942027A8E019
:1047F000B0E0EDEFF3E20C94FC267B018C01611537
:1048000071058105910519F482E0898360C083E018
:1048100089838EE1C82ED12CDC82CB82ED82FE8290
:104820000F831887C801B7010E947024FC013197DB
:10483000F7FF3BC0222733272E1B3F0B5701680190
:10484000022E04C0D694C794B794A7940A94D2F7C2
:1048500040E050E060E070E081E090E0A0E0B0E097
:1048600004C0880F991FAA1FBB1F2A95D2F7019772
:10487000A109B1098E219F21A023B1230097A10591
:10488000B10521F041E050E060E070E04A295B2989
:104890006C297D294D835E836F8378878EE190E05C
:1048A0008E1B9F0B9C838B8312C0309781F00E2E42
:1048B00004C0EE0CFF1C001F111F0A94D2F7ED82FA
:1048C000FE820F831887CE1ADF0ADC82CB821A821F
:1048D000CE0101960E94BF242896EAE00C94182786
:1048E000EF92FF920F931F937B018C0180E0E816FB
:1048F00080E0F80681E0080780E0180788F48FEF71
:10490000E816F1040105110531F028F088E090E087
:10491000A0E0B0E017C080E090E0A0E0B0E012C0FE
:1049200080E0E81680E0F80680E0080781E01807DC
:1049300028F088E190E0A0E0B0E004C080E190E0E1
:10494000A0E0B0E020E230E040E050E0281B390B6E
:104950004A0B5B0B04C016950795F794E7948A956C
:10496000D2F7F701EB59FC4F8081281B310941092F
:104970005109C9011F910F91FF90EF900895DF92A7
:10498000EF92FF920F931F93FC01E480F580068164
:104990001781D1808081823048F480E090E0A0E1EE
:1049A000B0E0E82AF92A0A2B1B2BA5C0843009F4B1
:1049B0009FC0823021F4EE24FF24870105C0E1145A
:1049C000F1040105110519F4E0E0F0E096C0628100
:1049D00073819FEF623879070CF05BC022E83FEFEC
:1049E000261B370B2A3131052CF020E030E040E067
:1049F00050E02AC0B801A701022E04C07695679541
:104A0000579547950A94D2F781E090E0A0E0B0E096
:104A100004C0880F991FAA1FBB1F2A95D2F70197C0
:104A2000A109B1098E219F21A023B1230097A105DF
:104A3000B10521F081E090E0A0E0B0E09A01AB0187
:104A4000282B392B4A2B5B2BDA01C9018F77907009
:104A5000A070B07080349105A105B10539F427FF2D
:104A600009C0205C3F4F4F4F5F4F04C0215C3F4F58
:104A70004F4F5F4FE0E0F0E02030A0E03A07A0E0C9
:104A80004A07A0E45A0710F0E1E0F0E079018A015A
:104A900027C06038710564F5FB01E158FF4FD8016C
:104AA000C7018F779070A070B07080349105A10518
:104AB000B10539F4E7FE0DC080E490E0A0E0B0E07D
:104AC00004C08FE390E0A0E0B0E0E80EF91E0A1FFA
:104AD0001B1F17FF05C016950795F794E7943196AD
:104AE00087E016950795F794E7948A95D1F705C066
:104AF000EE24FF248701EFEFF0E06E2F6795662725
:104B00006795902F9F77D794DD24D7948E2F869525
:104B1000492F462B582F5D29B701CA011F910F91CC
:104B2000FF90EF90DF900895FC01DB0140815181FF
:104B30002281622F6F7770E0221F2227221F93812C
:104B4000892F880F822B282F30E0991F9927991FD2
:104B500011969C93119721153105A9F54115510521
:104B60006105710511F482E037C082E89FEF13966A
:104B70009C938E9312979A01AB0167E0220F331F2B
:104B8000441F551F6A95D1F783E08C930DC0220F07
:104B9000331F441F551F12968D919C9113970197B7
:104BA00013969C938E931297203080E0380780E014
:104BB000480780E4580758F314962D933D934D937E
:104BC0005C93179708952F3F310579F441155105EE
:104BD0006105710519F484E08C93089564FF03C0A6
:104BE00081E08C9312C01C9210C02F573040139656
:104BF0003C932E93129783E08C9387E0440F551FCC
:104C0000661F771F8A95D1F7706414964D935D9354
:104C10006D937C93179708951F93DC01FB019C9182
:104C2000923008F447C08081823008F443C0943049
:104C300051F411961C91843099F58181682F70E0B0
:104C4000611B71093FC0843021F0923031F4823011
:104C5000B9F18181882389F12DC011961C9111979A
:104C60008230F1F081811817D9F412962D913C9180
:104C70001397828193818217930794F0281739073D
:104C8000BCF014968D919D910D90BC91A02D248126
:104C9000358146815781281739074A075B0718F481
:104CA000112341F00AC082179307A407B50740F407
:104CB000112319F061E070E005C06FEF7FEF02C0D3
:104CC00060E070E0CB011F910895629FD001739F57
:104CD000F001829FE00DF11D649FE00DF11D929F98
:104CE000F00D839FF00D749FF00D659FF00D9927D7
:104CF000729FB00DE11DF91F639FB00DE11DF91FFB
:104D0000BD01CF0111240895991B79E004C0991FBA
:104D1000961708F0961B881F7A95C9F78095089515
:104D2000AA1BBB1B51E107C0AA1FBB1FA617B707D1
:104D300010F0A61BB70B881F991F5A95A9F78095ED
:104D40009095BC01CD01089597FB092E07260AD046
:104D500077FD04D0E5DF06D000201AF47095619548
:104D60007F4F0895F6F7909581959F4F0895A1E2A2
:104D70001A2EAA1BBB1BFD010DC0AA1FBB1FEE1FD5
:104D8000FF1FA217B307E407F50720F0A21BB30B20
:104D9000E40BF50B661F771F881F991F1A9469F79C
:104DA00060957095809590959B01AC01BD01CF01F8
:104DB000089597FB092E05260ED057FD04D0D7DFA6
:104DC0000AD0001C38F450954095309521953F4FFE
:104DD0004F4F5F4F0895F6F79095809570956195C8
:104DE0007F4F8F4F9F4F08952F923F924F925F9228
:104DF0006F927F928F929F92AF92BF92CF92DF92EB
:104E0000EF92FF920F931F93CF93DF93CDB7DEB74F
:104E1000CA1BDB0B0FB6F894DEBF0FBECDBF0994E3
:104E20002A88398848885F846E847D848C849B843A
:104E3000AA84B984C884DF80EE80FD800C811B8148
:104E4000AA81B981CE0FD11D0FB6F894DEBF0FBE77
:104E5000CDBFED010895F999FECF92BD81BDF89ABD
:104E6000992780B50895262FF999FECF1FBA92BDD4
:104E700081BD20BD0FB6F894FA9AF99A0FBE01963B
:064E80000895F894FFCF35
:104E860001526567696F6E3A200020202020205568
:104E960053203132687200202020202055532032C2
:104EA6003468720020202020204555203132687257
:104EB60000202020202045552032346872004461AD
:104EC60074653A00202020202000436F6E666967D3
:104ED60075726174696F6E204D656E7500536574E9
:104EE60020416C61726D3A2020005365742054692C
:104EF6006D653A2000536574204261636B6C696787
:104F060068743A20005072657373204D454E5520E3
:104F1600746F20616476616E6365005072657373A9
:104F26002053455420746F20736574005072657366
:104F360073202B20746F206368616E67652068722A
:104F46002E0050726573732053455420746F20737E
:104F5600657420686F7572005072657373202B201C
:104F6600746F206368616E6765206D696E005072AC
:104F76006573732053455420746F20736574206DD8
:104F8600696E73005072657373202B20746F2063F3
:104F960068616E6765207365630050726573732080
:104FA60053455420746F20736574207365637300D2
:104FB6005072657373202B20746F206368616E676F
:104FC60065202020200050726573732053455420BD
:104FD600746F2073617665202020200050726573FF
:104FE600732053455420746F20736574202020204D
:104FF60020005072657373204D454E5520746F2006
:1050060065786974202020005072657373202B2008
:10501600746F206368616E6765202020005072659A
:1050260073732053455420746F2073617665202076
:1050360020005072657373204D454E5520746F20C5
:1050460065786974005072657373205345542074F3
:105056006F20736574202020005072657373202BB7
:1050660020746F206368616E6765206D6F6E0050F7
:10507600726573732053455420746F2073657420D2
:105086006D6F6E2E005072657373202B20746F2027
:105096006368616E67652064617900507265737339
:1050A6002053455420746F207365742064617465C1
:1050B600005072657373202B20746F206368616ED5
:1050C60067652079722E00507265737320534554BC
:1050D60020746F207365742079656172000000008A
:1050E600000000000000010202030303030404049D
:1050F600040404040405050505050505050505055F
:10510600050505050506060606060606060606063E
:105116000606060606060606060606060606060629
:10512600060606060607070707070707070707070E
:1051360007070707070707070707070707070707F9
:1051460007070707070707070707070707070707E9
:1051560007070707070707070707070707070707D9
:1051660007070707070808080808080808080808BE
:1051760008080808080808080808080808080808A9
:105186000808080808080808080808080808080899
:105196000808080808080808080808080808080889
:1051A6000808080808080808080808080808080879
:1051B6000808080808080808080808080808080869
:1051C6000808080808080808080808080808080859
:1051D6000808080808080808080808080808080849
:0651E6000808080808009B
:00000001FF
